:100000000C943E000C945B000C945B000C945B0021
:100010000C945B000C945B000C945B000C945B00F4
:100020000C945B000C945B000C945B000C945B00E4
:100030000C945B000C945B000C945B000C945B00D4
:100040000C945B000C945B000C945B000C945B00C4
:100050000C945B000C945B000C945B000C945B00B4
:100060000C945B000C945B000C945B000C945B00A4
:100070000C945B000C945B000C945B0011241FBE7D
:10008000CFEFD0E1DEBFCDBF13E0A0E0B1E0EEE7FF
:10009000F8E102C005900D92A638B107D9F713E038
:1000A000A6E8B3E001C01D92AC38B107E1F70E94A9
:1000B00051010C943D0C0C9400004F925F926F9292
:1000C0007F928F929F92AF92BF92CF92DF92EF92E8
:1000D000FF920F931F93DF93CF93CDB7DEB76A974D
:1000E0000FB6F894DEBF0FBECDBF6DB67EB6CE01A3
:1000F00001960E94B6010E94910B68E170E00E9497
:10010000280AA82EA3948A2D90E02DB73EB7281B6D
:10011000390B0FB6F8943EBF0FBE2DBFCDB6DEB67D
:100120000894C11CD11C00E010E07C010DC00E94AD
:10013000910BF601E00FF11F62E070E00E94280AC7
:10014000835880830F5F1F4F0E151F0580F35C2CB3
:100150004D2CC6016A2D0E94D2018E010F5F1F4FE8
:10016000C801B6014A2D2FEF0E945406BB24480156
:100170001EC00B2D10E07801EE0CFF1CEB89FC89F2
:10018000EE0DFF1D60817181ED89FE89E00FF11F89
:10019000C40140810E9470058B899C896D897E898C
:1001A000600F711F8E0D9F1D0E948307B3948F896E
:1001B000B816F8F2CE014396BE016B5E7F4FAE01DA
:1001C000495E5F4F0E94A4071A8D1A1521F4A88D6D
:1001D000B98D20E036C080E091E00E94CD088EE12C
:1001E00091E00E94CD088A2D0E94040984E391E0E9
:1001F0000E94CD088A8D0E94040980E591E00E944A
:10020000CD0832C08D91F601E20FF11D9081891762
:10021000B9F083E591E00E94CD0881E791E00E946A
:10022000CD08852D942D612F0E94D20184E891E0A4
:100230000E94CD08888D998D6A8D0E94D20114C0CC
:100240002F5F2117F8F2CE014896BE01665E7F4F00
:100250000E9483070E947907882339F087E991E09B
:100260000E94CD080E949A0881E00FB6F8947EBEE5
:100270000FBE6DBE6A960FB6F894DEBF0FBECDBF3F
:10028000CF91DF911F910F91FF90EF90DF90CF9072
:10029000BF90AF909F908F907F906F905F904F90A6
:1002A0000895CF93DF930E94B20888EE93E02CE28A
:1002B00031E0F9013197F1F70197D9F78DEA91E033
:1002C0000E94CD08C0E0D0E00E945D00882379F054
:1002D00088EE91E00E94CD08CE0101960E94470968
:1002E0008EEE91E00E94CD0821E030E014C0C336CC
:1002F000D10521F488EF91E00E94CD082196CE012E
:100300000E9447098DEF91E00E94CD08C436D105C7
:10031000D9F620E030E0C901DF91CF910895FC01CA
:100320008DE7808315821782168282870895FC01EB
:100330008DE7808315821782168282870895FC01DB
:100340008DE7808315821782168282871486138632
:10035000158617861686108A138A128A158A148AB9
:10036000168A108E178A118E118A0895FC018DE766
:1003700080831582178216828287148613861586DB
:1003800017861686108A138A128A158A148A168A84
:10039000108E178A118E118A0895681708F4682F35
:1003A000862F08950F931F93CF93DF93062FEC01B1
:1003B00010E007C089910E94DA0880E20E94C50817
:1003C0001F5F1017B8F38DE092E00E94CD08DF9117
:1003D000CF911F910F9108952F923F924F925F926C
:1003E0006F927F928F929F92AF92BF92CF92DF9245
:1003F000EF92FF920F931F93DF93CF93CDB7DEB7AA
:100400002B970FB6F894DEBF0FBECDBFDE2CE9826E
:10041000FA820B831C83E22F2D83932F3E834F831D
:10042000588769877A878B87E92E9D2C8F2C702EB1
:10043000612E5E2ECF80D884462E372E282E85E062
:10044000989FC0011124B82EB3948BE08B1510F047
:100450009CE0B92E86EFF82EFB0C0B2D017080E18D
:1004600092E00E94CD08EE2059F010E004C08DE229
:100470000E94C5081F5F1B15D0F38BE20E94C508C0
:100480008DE392E00E94CD0886E592E00E94CD08BF
:10049000EE20F9F0AF2CA69410E00A0D111DFF24F8
:1004A00004C080E20E94C508F3948F2D90E080176D
:1004B0009107BCF383E892E00E94CD0810E004C0ED
:1004C00080E20E94C5081F5F1A15D0F38CE70E94D6
:1004D000C5088EE892E00E94CD0880E192E00E947B
:1004E000CD08EE2059F010E004C08DE20E94C5084E
:1004F0001F5F1B15D0F38BE20E94C5088DE392E0CD
:100500000E94CD0887EA92E00E94CD08892D0E94C2
:10051000DA088BEA92E00E94CD08882D0E94DA0862
:1005200080E20E94C508872D0E94DA0880EB92E0E5
:100530000E94CD08862D0E94DA0884EB92E00E948A
:10054000CD08852D0E94DA0887EB92E00E94CD0845
:100550008E2D0E94DA088BEA92E00E94CD08E2E03C
:10056000EE1590F4FC2CC6018C01F80181918F01ED
:100570000E94DA0880E20E94C508802F8F198E152C
:10058000A0F38CEB92E01FC0F2E0EF1679F4F601D5
:1005900080810E94DA0884EB92E00E94CD08F60187
:1005A00081810E94DA0880EB92E00DC0F1E0EF1645
:1005B00061F48FEB92E00E94CD08F60180810E94E9
:1005C000DA0883EC92E00E94CD08842D0E94DA08BC
:1005D00084EB92E00E94CD08832D0E94DA0887EB1D
:1005E00092E00E94CD08822D0E94DA088AEC92E007
:1005F0000E94CD0880E192E00E94CD08EE2059F0E3
:1006000010E004C08DE20E94C5081F5F1B15D0F3E7
:100610008BE20E94C5088DE392E00E94CD082B96E4
:100620000FB6F894DEBF0FBECDBFCF91DF911F9103
:100630000F91FF90EF90DF90CF90BF90AF909F9081
:100640008F907F906F905F904F903F902F90089584
:10065000CF92DF92EF92FF920F931F93DF93CF938E
:10066000CDB7DEB79C01CDB6DEB6DC0115968C9118
:1006700015978B5FE82EFF24EDB7FEB7EE19FF0943
:100680000FB6F894FEBF0FBEEDBF0DB71EB70F5FDC
:100690001F4F11968C911197818312968C91D801DE
:1006A00011968C931197F901838112968C9312976E
:1006B000848113968C931397858114968C9340E0D4
:1006C00010C0842F90E0B801680F791FD9011696E9
:1006D000ED91FC911797E80FF91F8081FB0185834D
:1006E0004F5FD90115968C91481758F320E030E000
:1006F00040E050E0A1EFBFEF16C0F801E40FF51F96
:10070000F081E0E02E273F2768E0C901880F991F9C
:1007100037FF04C09C012A273B2701C09C01615080
:10072000A1F74F5F5F4F4E155F053CF3C9010FB650
:10073000F894DEBE0FBECDBECF91DF911F910F9119
:10074000FF90EF90DF90CF9008958F929F92AF929D
:10075000BF92CF92DF92EF92FF920F931F93DF939E
:10076000CF9300D00F92CDB7DEB76C011B821A82F7
:10077000F2E0EF2EF12CEC0EFD1EDC011D964C91EB
:100780004250C7018E010F5F1F4FB8010E94D00772
:100790004981F601238534852F5F3F4F8A819B81F4
:1007A000B90150E00E94A10BBB24E0E28E2E9E2CEA
:1007B000AF2C780126C00B2D10E0DF01A00FB11F78
:1007C0008C918E37E9F430E0201B310B0F5F1F4F07
:1007D000AF01400F511F01501040CD01BA01A901D6
:1007E0000E94A10BEA81FB81E00FF11F8081882527
:1007F000808349814150892D9A2DB7010E942A0892
:10080000B3942981EA81FB81B216A8F28081D601D6
:1008100011968C931197818112968C9312978281F5
:1008200013968C931397838114968C93B6016B5F08
:100830007F4FC601069644810E94D007F60145818C
:100840002A813B812B5F3F4F86819781B90150E020
:100850000E94A10BEA81FB818981E80FF11D32978B
:100860008191D60118968C931897808119968C9354
:10087000CE010296BE016F5F7F4F0E9483070F90EB
:100880000F900F90CF91DF911F910F91FF90EF90FC
:10089000DF90CF90BF90AF909F908F9008952F9250
:1008A0003F924F925F926F927F928F929F92AF9200
:1008B000BF92CF92DF92EF92FF920F931F93DF933D
:1008C000CF9300D000D00F92CDB7DEB74C012DB73B
:1008D0003EB73D832C831B821A82DC0115964C9116
:1008E000495FCE010296BE016F5F7F4F0E94D00725
:1008F000EA81FB81D40111968C9111978083EA8162
:10090000FB8112968C9112978183EA81FB81139669
:100910008C9113978283EA81FB8114968C911497B2
:100920008383EA81FB8115968C91848320E00EC03D
:10093000822F90E0A80FB91FF40146815781480F1C
:10094000591FFA01808115968C932F5FD40115965B
:100950008C91AA81BB81281758F38981A80FB11DFA
:100960001297F40180858C938981EA81FB81E80FDD
:10097000F11D3197D40119968C9180837724B2E0D0
:100980002B2E312C2C0E3D1E2E010894411C511C87
:10099000A0E26A2E56C0A72CBB24EA81FB81EA0D97
:1009A000FB1D80818D57823008F04AC0DDB6CEB67F
:1009B0004F5FC101B2010E942A08E981F0E0CF0136
:1009C0008A199B092DB73EB7281B390B0FB6F8942F
:1009D0003EBF0FBE2DBF0DB71EB70F5F1F4FFC01EF
:1009E0002A813B812A0D3B1DC801B901AF010E943C
:1009F000A10B75010894E11CF11C4A815B814E0D2D
:100A00005F1D298130E02A193B09CA01B801A901FB
:100A10000E94A10BEA81FB81EA0DFB1D3EE73083BA
:100A2000EA81FB81EE0DFF1D808186258083739412
:100A30002D2D3C2DC9010FB6F8949EBF0FBE8DBF62
:100A400073944981741608F4A6CFB401635F7F4F95
:100A50004E5FC4010B960E94D007D4011B96ED9106
:100A6000FC911C971DE710831B962D913C911C97C0
:100A70002F5F3F4F49816A817B81C90150E00E940D
:100A8000A10BF40185850384F485E02DE80FF11DA9
:100A900031971083CE010296BE016F5F7F4F0E9497
:100AA00083072C813D810FB6F8943EBF0FBE2DBF4A
:100AB0000F900F900F900F900F90CF91DF911F919B
:100AC0000F91FF90EF90DF90CF90BF90AF909F90ED
:100AD0008F907F906F905F904F903F902F900895F0
:100AE000AF92BF92CF92DF92EF92FF920F931F933C
:100AF000CF93DF93EC01062FF72E142F80ED92E0B9
:100B00000E94CD083BE0C32ED12CCC0EDD1E2DE083
:100B1000A22EB12CAC0EBD1EC601B501412F0E9404
:100B2000D0074D858B859C85602F7F2D50E00E94DE
:100B3000A10BCE010E94A50387ED92E00E94CD0893
:100B40008B859C856D850E94D201E880F9800A81A1
:100B50001B812C813D814E815F81688579858A85E5
:100B60000E94EC01C601B5010E9483078C8181506F
:100B70008E3F18F487EE92E019C08A81882321F015
:100B80008989882309F085C0CE010E942803388511
:100B900020E04985240F311D8217930711F081E071
:100BA000898B8989882329F084E293E00E94CD080B
:100BB00070C08A818823B9F48EE493E00E94CD0846
:100BC0008E819F816D810E94D201BE01675E7F4F41
:100BD000CE0147964D810E94D007498D6E817F815D
:100BE0008F89988D15C089818E01025F1F4F90E11A
:100BF000E92EF12CEC0EFD1E882371F4C801B7011B
:100C00004D810E94D00748896E817F818E859F85A6
:100C100050E00E94A10B37C04D818889480FC80160
:100C2000B7010E942A084D81888990E0841B9109B0
:100C30002E853F85280F391F6E817F81C90150E0C5
:100C40000E94A10B99818A819817E9F48EE493E0C0
:100C50000E94CD088E859F8568890E94D201BE01C1
:100C6000675E7F4FCE01479648890E94D00748892A
:100C70006E857F858F89988D50E00E94A10BC801F9
:100C8000B7010E948307CE0106962596BE010E94F9
:100C90008307DF91CF911F910F91FF90EF90DF902D
:100CA000CF90BF90AF9008952F923F924F925F9256
:100CB0006F927F928F929F92AF92BF92CF92DF926C
:100CC000EF92FF920F931F93DF93CF93CDB7DEB7D1
:100CD00029970FB6F894DEBF0FBECDBF99878887DE
:100CE000062FF72E142F2E8387E593E00E94CD0860
:100CF00020E0812F90E087709070892B09F021E02F
:100D0000812E869486948694820E688579856C5EA1
:100D10007F4F488559854A5E5F4F88859985429601
:100D2000282D0E94F807482D50E081E090E0841BB8
:100D3000950BE3E0880F991FEA95E1F7180F1983E7
:100D400076E0472E512C88859985480E591E65E01E
:100D5000662E712C680E791E0B969D838C83A88558
:100D6000B9851D96BB83AA83202F3F2DC9015C0145
:100D70009924CC24DD241A01089421083108B82DC7
:100D8000B150BF839AC0892D90E08215930511F070
:100D900018E001C01981E885F98591828F818283ED
:100DA00013829E819483C201B301412F0E94D00718
:100DB000950190E00DC0A885B9851696ED91FC913E
:100DC0001797E90FF11DD9018D919D0180839F5FD8
:100DD000911788F3888599850E942803E885F9850D
:100DE00090878187888599850E944F04A885B98559
:100DF000EC901196FC90119712960C911297139605
:100E00001C91139714962C91149715963C91159755
:100E100016964C91169717965C91179718966C91A9
:100E2000189719967C9119971A968C910E94EC014B
:100E300087ED92E00E94CD08E885F9858385948549
:100E400065850E94D201A885B98552968D919C91A5
:100E5000539754966D917C915597690D711D8C0D2A
:100E60009D1D1D964C910E94D007A885B98552966C
:100E7000ED91FC915397EC0DFD1D1D964C911D9726
:100E80001B966C911B971C967C918081918150E000
:100E90000E94A10BC201B3010E9483078C819D8136
:100EA0006A817B810E9483079394E2E0F0E0CE0E9A
:100EB000DF1E88E090E0A80EB91E981408F463CFF6
:100EC00029960FB6F894DEBF0FBECDBFCF91DF914C
:100ED0001F910F91FF90EF90DF90CF90BF90AF9058
:100EE0009F908F907F906F905F904F903F902F904A
:100EF000089520E08091860390918703892B09F063
:100F000021E0822F08950F931F93CF93DF938C01DD
:100F1000EB01FC0180819181009781F00E94E80A39
:100F200028818091860390918703821B9109909379
:100F3000870380938603F801118210821882DF9163
:100F4000CF911F910F910895EF92FF920F931F93EE
:100F5000CF93DF938C017B01EA01FC0180819181B9
:100F6000009711F4188215C00E94E80A2881220F08
:100F70008091860390918703821B91099093870348
:100F800080938603F80111821082C701BE010E947E
:100F90008307DF91CF911F910F91FF90EF900895FC
:100FA000DF92EF92FF920F931F93CF93DF938C0109
:100FB0007B01D42EC42FD0E0CE010E943B0AF80161
:100FC00091838083009761F08091860390918703DD
:100FD0008C0F9D1F9093870380938603F701D08227
:100FE000DF91CF911F910F91FF90EF90DF900895C7
:100FF000BF92CF92DF92EF92FF920F931F93CF9306
:10100000DF938C017B016A01B22EC22FD0E0CC0F9E
:10101000DD1FCE010E943B0AF80191838083009777
:1010200079F080918603909187038C0F911D9093A6
:10103000870380938603C701B6014B2D0E94D0071A
:10104000DF91CF911F910F91FF90EF90DF90CF90A4
:10105000BF9008957F928F929F92AF92BF92CF924E
:10106000DF92EF92FF920F931F93DF93CF93CDB751
:10107000DEB77C015B01D42E8DB69EB67EB68DB7F1
:101080009EB7841B91090FB6F8949EBF0FBE8DBF0B
:101090000DB71EB70F5F1F4FF70160817181C80147
:1010A00050E00E94A10B8D2D90E00E943B0AF701B9
:1010B00080839183B8014D2D50E00E94A10BF70170
:1010C00080819181892BD9F0F50180812D2D281BFC
:1010D000332727FD30958091860390918703820FF7
:1010E000931F9093870380938603D082282D372DFA
:1010F000C9010FB6F8949EBF0FBE8DBF08C0882DE2
:10110000972D9C010FB6F8943EBF0FBE2DBF0FB6B2
:10111000F8949EBE0FBE8DBECF91DF911F910F91AF
:10112000FF90EF90DF90CF90BF90AF909F908F9007
:101130007F900895809186039091870324E080300A
:10114000920748F0892F8695869590E00E9447097E
:101150008EE593E004C00E9447098CE693E00E946C
:10116000CD0808951092C5008DE48093C40088E1F5
:101170008093C10086E08093C20008958091C000F2
:1011800087FFFCCF8091C6000895982F8091C00002
:1011900085FFFCCF9093C6000895FC0107C08091A5
:1011A000C00085FFFCCF9093C600319690819923B3
:1011B000B1F708951F93182F88E793E00E94CD0898
:1011C000912F92959F701F709A3030F48091C000DB
:1011D00085FFFCCF905D05C08091C00085FFFCCFEE
:1011E000995C9093C6001A3030F48091C00085FF5E
:1011F000FCCF105D05C08091C00085FFFCCF195C5D
:101200001093C6001F910895282F8A3040F48091D2
:10121000C00085FFFCCF205D2093C6000895843672
:1012200080F48091C00085FFFCCF822F6AE00E948D
:10123000080A805D8093C6008091C00085FFFCCFC6
:101240001EC08091C00085FFFCCF822F64E60E9403
:10125000080A805D8093C6008091C00085FFFCCFA6
:10126000822F64E60E94080A892F6AE00E94080A19
:10127000805D8093C6008091C00085FFFCCF822FE7
:101280006AE00E94080A905D9093C60008959C0150
:101290008A30910530F48091C00085FFFCCF822F09
:1012A000B3C08436910588F48091C00085FFFCCFDF
:1012B000C9016AE070E00E94140A605D6093C60094
:1012C0008091C00085FFFCCF9AC083E0283E38079C
:1012D00008F58091C00085FFFCCFC90164E670E08D
:1012E0000E94140A605D6093C6008091C00085FF73
:1012F000FCCFC90164E670E00E94140A6AE070E065
:101300000E94140A605D6093C6008091C00085FF52
:10131000FCCF75C087E22031380788F58091C00086
:1013200085FFFCCFC90168EE73E00E94140A605D7E
:101330006093C6008091C00085FFFCCFC90168EEB4
:1013400073E00E94140A64E670E00E94140A605D73
:101350006093C6008091C00085FFFCCFC90164E6A0
:1013600070E00E94140A6AE070E00E94140A605D56
:101370006093C6008091C00085FFFCCF40C0809183
:10138000C00085FFFCCFC90160E177E20E94140A2A
:10139000605D6093C6008091C00085FFFCCFC901ED
:1013A00060E177E20E94140A68EE73E00E94140A7A
:1013B000605D6093C6008091C00085FFFCCFC901CD
:1013C00068EE73E00E94140A64E670E00E94140A5A
:1013D000605D6093C6008091C00085FFFCCFC901AD
:1013E00064E670E00E94140A6AE070E00E94140A49
:1013F000605D6093C6008091C00085FFFCCFC9018D
:101400006AE070E00E94140A805D8093C60008952F
:10141000991B79E004C0991F961708F0961B881F46
:101420007A95C9F780950895AA1BBB1B51E107C0A7
:10143000AA1FBB1FA617B70710F0A61BB70B881F64
:10144000991F5A95A9F780959095BC01CD010895F3
:1014500097FB092E07260AD077FD04D0E5DF06D0DA
:1014600000201AF4709561957F4F0895F6F79095D6
:1014700081959F4F0895CF93DF93BC0182309105F2
:1014800010F462E070E0A0918A03B0918B03ED014B
:10149000E0E0F0E040E050E021C0888199818617CB
:1014A000970769F48A819B81309719F0938382832F
:1014B00004C090938B0380938A03FE0134C06817A5
:1014C000790738F44115510519F08417950708F488
:1014D000AC01FE018A819B819C01E9012097E9F61C
:1014E00041155105A9F1CA01861B970B049708F411
:1014F000BA01E0E0F0E02AC08D919C911197841729
:101500009507F9F46417750781F412968D919C91F3
:101510001397309719F09383828304C090938B03C1
:1015200080938A03FD0132964FC0CA01861B970B38
:10153000FD01E80FF91F6193719302978D939C93BE
:1015400043C0FD01828193819C01D9011097A1F6CE
:101550008091880390918903892B41F480917D03C8
:1015600090917E03909389038093880340917F0339
:10157000509180034115510541F44DB75EB78091FC
:101580007B0390917C03481B590B20918803309179
:10159000890324173507B0F4CA01821B930B861701
:1015A000970780F0AB014E5F5F4F8417950750F0AF
:1015B000420F531F5093890340938803F9016193AD
:1015C000719302C0E0E0F0E0CF01DF91CF91089588
:1015D000CF93DF93009709F450C0EC0122971B8250
:1015E0001A82A0918A03B0918B03109709F140E011
:1015F00050E0AC17BD0708F1BB83AA83FE0121911F
:101600003191E20FF31FAE17BF0779F48D919C91D2
:101610001197280F391F2E5F3F4F39832883129669
:101620008D919C9113979B838A834115510571F489
:10163000D0938B03C0938A0320C012968D919C9106
:101640001397AD01009711F0DC01D3CFFA01D383DA
:10165000C28321913191E20FF31FCE17DF0769F4A6
:1016600088819981280F391F2E5F3F4FFA013183FE
:1016700020838A819B8193838283DF91CF91089518
:10168000A0E0B0E0E6E4FBE00C94EC0BEC01A880F9
:10169000B980CA80DB80A114B104C104D10441F433
:1016A00084E2A82E89EDB82E8BE5C82E87E0D82ECF
:1016B000C601B5012DE133EF41E050E00E94C90BB6
:1016C00027EA31E440E050E00E94AA0B7B018C0144
:1016D000C601B5012DE133EF41E050E00E94C90B96
:1016E000CA01B9012CEE34EF4FEF5FEF0E94AA0B55
:1016F0006E0D7F1D801F911F97FF04C061507040C9
:1017000080409048688379838A839B839B013F77DD
:10171000C901CDB7DEB7EAE00C94080C0E94400B7B
:10172000089581E893E00E94400B0895A0E0B0E0A6
:101730008093810390938203A0938303B0938403E7
:101740000895FB01DC0102C001900D924150504010
:10175000D8F70895629FD001739FF001829FE00D3A
:10176000F11D649FE00DF11D929FF00D839FF00D20
:10177000749FF00D659FF00D9927729FB00DE11DCC
:10178000F91F639FB00DE11DF91FBD01CF011124A9
:10179000089597FB092E05260ED057FD04D04BD097
:1017A0000AD0001C38F450954095309521953F4F54
:1017B0004F4F5F4F0895F6F790958095709561951E
:1017C0007F4F8F4F9F4F08952F923F924F925F927E
:1017D0006F927F928F929F92AF92BF92CF92DF9241
:1017E000EF92FF920F931F93CF93DF93CDB7DEB7A6
:1017F000CA1BDB0B0FB6F894DEBF0FBECDBF09943A
:101800002A88398848885F846E847D848C849B8490
:10181000AA84B984C884DF80EE80FD800C811B819E
:10182000AA81B981CE0FD11D0FB6F894DEBF0FBECD
:10183000CDBFED010895A1E21A2EAA1BBB1BFD012D
:101840000DC0AA1FBB1FEE1FFF1FA217B307E4079F
:10185000F50720F0A21BB30BE40BF50B661F771FF7
:10186000881F991F1A9469F76095709580959095D7
:0E1870009B01AC01BD01CF010895F894FFCF9C
:10187E004572726F723A206C656E6774687320647D
:10188E006F206E6F74206D617463680D0A0073654E
:10189E006E745F7061636B65745F6C656E677468A0
:1018AE00203D20002C2072656365697665645F704B
:1018BE0061636B65745F6C656E677468203D2000B4
:1018CE000D0A004572726F723A205061636B657437
:1018DE007320646F206E6F74206D617463680D0ADF
:1018EE000073656E745F7061636B657420202020D9
:1018FE00203D200072656365697665645F70616383
:10190E006B6574203D20004572726F723A204D65F2
:10191E006D6F7279206C65616B210D0A002D2D2D76
:10192E002D2D2D2D2D2D2D2D2D2D2D2D2D2D2D2DD9
:10193E002D2D2D2D2D2D2D2D2D2D2D2D2D2D2D2DC9
:10194E002D2D2D2D2D2D2D2D2D2D2D2D2D2D2D2DB9
:10195E002D2D2D2D2D0D0A0054657374200020663B
:10196E0061696C65640D0A00416C6C200020746521
:10197E00737473207061737365640D0A000D0A0031
:10198E002B2D2D2D2D2D2D2D2D2B2D2D2D2D2D2D7D
:10199E002D2D2D2D2D2B2D2D2D2D2D2D2D2D2D2D6B
:1019AE002D2D2B2D2D2D2D2D2D2D2D2B002D2D2D8A
:1019BE002D2D2D2D2D2D2D2D2D2B2D2D2D2D2D2D4B
:1019CE002D2D2B0D0A007C20486561646572207CEC
:1019DE002020436F6E74726F6C20207C20416464F3
:1019EE0072657373696E67207C204C656E677468D0
:1019FE00207C004E4554205061636B65740020209E
:101A0E00436865636B73756D20207C20466F6F7421
:101A1E006572207C0D0A007C20200020207C200096
:101A2E00207C2000202000207C2020007C20002014
:101A3E00202000202020207C200020207C0D0A0069
:101A4E0052583A200D0A0053747566666564206616
:101A5E0072616D653A200044726F7070696E672016
:101A6E006672616D653A2044657374696E6174695E
:101A7E006F6E206164647265737320646F6573208A
:101A8E006E6F74206D61746368206465766963653A
:101A9E00730D0A0044726F7070696E672066726112
:101AAE006D653A204572726F722064657465637459
:101ABE00656420696E206672616D650D0A00506165
:101ACE00636B65743A200054583A200D0A00204B7F
:101ADE00694220696E207573650D0A0020422069E7
:101AEE006E207573650D0A0030780020008C03009F
:061AFE00000100000000E1
:00000001FF
