:100000000C943E000C945B000C945B000C945B0021
:100010000C945B000C945B000C945B000C945B00F4
:100020000C945B000C945B000C945B000C945B00E4
:100030000C945B000C945B000C945B000C945B00D4
:100040000C945B000C945B000C945B000C945B00C4
:100050000C945B000C945B000C945B000C945B00B4
:100060000C945B000C945B000C945B000C945B00A4
:100070000C945B000C945B000C945B0011241FBE7D
:10008000CFEFD0E1DEBFCDBF12E0A0E0B1E0ECE900
:10009000F7E102C005900D92A63FB107D9F712E033
:1000A000A6EFB2E001C01D92AC3FB107E1F70E949C
:1000B00031010C94CC0B0C9400006F927F929F92B4
:1000C000AF92BF92CF92DF92EF92FF920F931F9366
:1000D000DF93CF93CDB7DEB77C016DB67EB60E94BD
:1000E000200B68E170E00E94B709982E9394892D47
:1000F00090E02DB73EB7281B390B0FB6F8943EBFE2
:100100000FBE2DBFCDB6DEB60894C11CD11C00E0D9
:1001100010E05C010DC00E94200BF601E00FF11F02
:1001200060E170E00E94B709805980830F5F1F4F24
:100130000A151B0580F30C2DBD2CC701B601492DF6
:100140002FEF0E940A0610E010C0212F30E0F701C7
:100150008289938964897589620F731F220F331F07
:10016000820F931F0E9412071F5FF70186891817DD
:1001700060F3B7016C5E7F4FA7014A5E5F4FC70116
:1001800042960E943307F701118D191511F420E0F2
:100190003FC080E091E00E945C088EE191E00E9407
:1001A0005C08892D0E94930884E391E00E945C081A
:1001B000F701818D0E94930880E591E00E945C0820
:1001C0003CC0A22FB0E0F7018789908D8A0F9B1F5A
:1001D000AC0DBD1DFC0190818C919817C1F083E599
:1001E00091E00E945C0881E791E00E945C08802F0A
:1001F0009B2D612F0E94DD0184E891E00E945C0844
:10020000F7018789908D618D0E94DD0116C02F5FF7
:100210002117B8F2C701479629E130E0E20EF31E3C
:10022000B7010E9412070E940807882339F087E966
:1002300091E00E945C080E94290881E00FB6F894C2
:100240007EBE0FBE6DBECF91DF911F910F91FF90CB
:10025000EF90DF90CF90BF90AF909F907F906F9086
:100260000895CF92DF92EF92FF920F931F93DF9347
:10027000CF93CDB7DEB76A970FB6F894DEBF0FBE47
:10028000CDBF0E94410888EE93E02CE231E0F901F5
:100290003197F1F70197D9F78CEA91E00E945C0859
:1002A0008E010F5F1F4FC8010E94C101EE24FF2481
:1002B0006801C6010E945D0087010F5F1F4F882300
:1002C00071F087EE91E00E945C08C8010E94D60898
:1002D0008DEE91E00E945C0821E030E01BC07801C7
:1002E000C8016AE070E00E94A309892B71F404360A
:1002F000110521F487EF91E00E945C08C8010E947B
:10030000D6088CEF91E00E945C080436110589F64E
:1003100020E030E0C9016A960FB6F894DEBF0FBE48
:10032000CDBFCF91DF911F910F91FF90EF90DF90A4
:10033000CF900895FC018DE7808315821782168285
:1003400082870895FC018DE78083158217821682CB
:1003500082870895FC018DE78083158217821682BB
:10036000828714861386158617861686108A138A46
:10037000128A158A148A168A108E178A118E118A8B
:100380000895FC018DE7808315821782168282878B
:1003900014861386158617861686108A138A128A83
:1003A000158A148A168A108E178A118E118A08955A
:1003B000681708F4682F862F08950F931F93CF9323
:1003C000DF93062FEC0110E007C089910E946908B5
:1003D00080E20E9454081F5F1017B8F38CE092E08F
:1003E0000E945C08DF91CF911F910F9108952F9289
:1003F0003F924F925F926F927F928F929F92AF92B5
:10040000BF92CF92DF92EF92FF920F931F93DF93F1
:10041000CF93CDB7DEB72B970FB6F894DEBF0FBEE4
:10042000CDBFDE2CE982FA820B831C83E22F2D8361
:10043000932F3E834F83588769877A878B87E92E6E
:100440009D2C8F2C702E612E5E2ECF80D884462E50
:10045000372E282E85E0989FC0011124B82EB39422
:100460008BE08B1510F09CE0B92E86EFF82EFB0C7C
:100470000B2D01708FE092E00E945C08EE2059F095
:1004800010E004C08DE20E9454081F5F1B15D0F3DA
:100490008BE20E9454088CE392E00E945C0885E5A0
:1004A00092E00E945C08EE20F9F0AF2CA69410E0D8
:1004B0000A0D111DFF2404C080E20E945408F39429
:1004C0008F2D90E080179107BCF382E892E00E94A4
:1004D0005C0810E004C080E20E9454081F5F1A15F7
:1004E000D0F38CE70E9454088DE892E00E945C08EB
:1004F0008FE092E00E945C08EE2059F010E004C00A
:100500008DE20E9454081F5F1B15D0F38BE20E94FE
:1005100054088CE392E00E945C0886EA92E00E9414
:100520005C08892D0E9469088AEA92E00E945C08B2
:10053000882D0E94690880E20E945408872D0E943D
:1005400069088FEA92E00E945C08862D0E94690883
:1005500083EB92E00E945C08852D0E94690886EB7F
:1005600092E00E945C088E2D0E9469088AEA92E05F
:100570000E945C08E2E0EE1590F4FC2CC6018C01B0
:10058000F80181918F010E94690880E20E9454085D
:10059000802F8F198E15A0F38BEB92E01FC0F2E035
:1005A000EF1679F4F60180810E94690883EB92E0EE
:1005B0000E945C08F60181810E9469088FEA92E03E
:1005C0000DC0F1E0EF1661F48EEB92E00E945C0842
:1005D000F60180810E94690882EC92E00E945C082A
:1005E000842D0E94690883EB92E00E945C08832DB1
:1005F0000E94690886EB92E00E945C08822D0E94AE
:10060000690889EC92E00E945C088FE092E00E9409
:100610005C08EE2059F010E004C08DE20E945408FE
:100620001F5F1B15D0F38BE20E9454088CE392E00D
:100630000E945C082B960FB6F894DEBF0FBECDBFAC
:10064000CF91DF911F910F91FF90EF90DF90CF90AE
:10065000BF90AF909F908F907F906F905F904F90E2
:100660003F902F900895CF92DF92EF92FF920F93D9
:100670001F93DF93CF93CDB7DEB79C01CDB6DEB627
:10068000DC0115968C9115978B5FE82EFF24EDB752
:10069000FEB7EE19FF090FB6F894FEBF0FBEEDBF0F
:1006A0000DB71EB70F5F1F4F11968C911197818365
:1006B00012968C91D80111968C931197F901838130
:1006C00012968C931297848113968C93139785813D
:1006D00014968C9340E010C0842F90E0B801680F0E
:1006E000791FD9011696ED91FC911797E80FF91F24
:1006F0008081FB0185834F5FD90115968C91481746
:1007000058F320E030E040E050E0A1EFBFEF16C02A
:10071000F801E40FF51FF081E0E02E273F2768E0A5
:10072000C901880F991F37FF04C09C012A273B2766
:1007300001C09C016150A1F74F5F5F4F4E155F05EF
:100740003CF3C9010FB6F894DEBE0FBECDBECF910B
:10075000DF911F910F91FF90EF90DF90CF90089560
:100760000F931F93FC01108500E08185080F111D78
:10077000CF010E94330320E00817190709F021E098
:10078000822F1F910F910895AF92BF92CF92DF9267
:10079000EF92FF920F931F93DF93CF9300D00F92AE
:1007A000CDB7DEB76C011B821A82E2E0EE2EF12C8F
:1007B000EC0EFD1EDC011D964C914250C7018E01CE
:1007C0000F5F1F4FB8010E945F074981F601238523
:1007D00034852F5F3F4F8A819B81B90150E00E9491
:1007E000300BBB24AE2CEF2CF02E012F1DC04B2D57
:1007F00050E0DF01A40FB51F8C918E37A1F430E0DB
:10080000241B350B4F5F5F4F4E0F5F1FCD01BA01A9
:10081000A9010E94300B498141508A2D9E2D6F2DD8
:10082000702F0E94B907B3942981EA81FB81B21627
:10083000F0F28081D60111968C93119781811296E6
:100840008C931297828113968C93139783811496BD
:100850008C93B6016B5F7F4FC601069644810E9460
:100860005F07F60145812A813B812B5F3F4F8681DF
:100870009781B90150E00E94300BEA81FB818981A8
:10088000E80FF11D32978191D60118968C93189735
:10089000808119968C93CE010296BE016F5F7F4FC7
:1008A0000E9412070F900F900F90CF91DF911F9130
:1008B0000F91FF90EF90DF90CF90BF90AF90089591
:1008C0002F923F924F925F926F927F928F929F9260
:1008D000AF92BF92CF92DF92EF92FF920F931F934E
:1008E000DF93CF9300D00F92CDB7DEB75C012DB66A
:1008F0003EB61B821A82DC0115964C91495FCE01EF
:100900000296BE016F5F7F4F0E945F07EA81FB8105
:10091000D50111968C9111978083EA81FB81129603
:100920008C9112978183EA81FB8113968C911397A6
:100930008283EA81FB8114968C9114978383EA81E8
:10094000FB8115968C91848320E00EC0822F90E06D
:10095000A80FB91FF50146815781480F591FFA01A9
:10096000808115968C932F5FD50115968C91AA8165
:10097000BB81281758F38981A80FB11D1297F50183
:1009800080858C938981EA81FB81E80FF11D319785
:10099000D50119968C9180839924A2E04A2E512C7E
:1009A0004C0E5D1E3E010894611C711CFEE78F2EEB
:1009B00050C0C92CDD24EA81FB81EC0DFD1D808136
:1009C0008D57823008F044C0FDB6EEB64F5FC201CD
:1009D000B3010E94B907E981F0E0CF018C199D09AC
:1009E0002DB73EB7281B390B0FB6F8943EBF0FBE8C
:1009F0002DBF0DB71EB70F5F1F4FFC012A813B8132
:100A00002C0D3D1DC801B901AF010E94300B0894A7
:100A1000C11CD11C4A815B814C0D5D1D0894C1082D
:100A2000D108298130E02C193D09CA01B801A9017A
:100A30000E94300BEA81FB81EC0DFD1D80829394B6
:100A40002F2D3E2DC9010FB6F8949EBF0FBE8DBF4E
:100A500093944981941608F4ACCFB501635F7F4F3E
:100A60004E5FC5010B960E945F07D5011B96ED9165
:100A7000FC911C971DE710831B962D913C911C97B0
:100A80002F5F3F4F49816A817B81C90150E00E94FD
:100A9000300BF50185850384F485E02DE80FF11D09
:100AA00031971083CE010296BE016F5F7F4F0E9487
:100AB00012070FB6F8943EBE0FBE2DBE0F900F90DA
:100AC0000F90CF91DF911F910F91FF90EF90DF90EA
:100AD000CF90BF90AF909F908F907F906F905F90DE
:100AE0004F903F902F900895EF92FF920F931F9396
:100AF000CF93DF93EC014D858B859C8550E00E9460
:100B0000300BCE010E94C403BE01635F7F4FCE0154
:100B10000B960E9412078C8181508E3F08F473C09F
:100B20008989882339F099818A81981709F06BC0E7
:100B3000198A69C0CE010E94B0039A81882331F0DE
:100B4000992309F460C081E0898B5DC0992371F419
:100B5000BE01675E7F4FCE0147964D810E945F07C1
:100B6000498D6E817F818F89988D15C089818E0115
:100B7000025F1F4FB0E1EB2EF12CEC0EFD1E88231F
:100B800071F4C801B7014D810E945F0748896E81E9
:100B90007F818E859F8550E00E94300B2EC04D8155
:100BA0008889480FC801B7010E94B9074D8188891B
:100BB00090E0841B91092E853F85280F391F6E8197
:100BC0007F81C90150E00E94300B99818A8198177A
:100BD000A1F4BE01675E7F4FCE01479648890E940F
:100BE0005F0748896E857F858F89988D50E00E94C8
:100BF000300BC801B7010E941207CE010696259658
:100C0000BE010E941207DF91CF911F910F91FF90BB
:100C1000EF9008952F923F924F925F926F927F9242
:100C20008F929F92AF92BF92CF92DF92EF92FF92FC
:100C30000F931F93DF93CF93CDB7DEB72D970FB6EA
:100C4000F894DEBF0FBECDBF7C012E838DB79EB75B
:100C50009C878B8720E0842F90E087709070892B91
:100C600009F021E0842E869486948694820E282DA5
:100C700030E0D9011197BD83AC83C901880F991F5A
:100C8000EDB7FEB7E81BF90B0FB6F894FEBF0FBE29
:100C9000EDBF8DB79EB7019698878F83ADB7BEB76E
:100CA000A21BB30B0FB6F894BEBF0FBEADBFEDB71E
:100CB000FEB73196FA87E98781E090E0821B930BBB
:100CC00053E0880F991F5A95E1F7480F498336E0A2
:100CD000432E512C4E0C5F1C25E0622E712C6E0CA5
:100CE0007F1CC7010B969B838A839DE0292E312CA4
:100CF0002E0C3F1C5B019924982D91509D8765C057
:100D0000C92CDD24AC81BD81CA16DB0611F4098132
:100D100001C008E0F70191828D85828313829E8154
:100D20009483C201B301402F0E945F07950190E0B8
:100D30000CC0D7011696ED91FC911797E90FF11DA4
:100D4000D9018D919D0180839F5F901790F3C7011A
:100D50000E943303F70190878187C7010E946004D6
:100D6000C201B3010E941207D7011B966D917C91BD
:100D70001C97C7011D964C910E9474058601000FB7
:100D8000111FEF81F8850E0F1F1F89859A85C80EE8
:100D9000D91EC801B601D7011D964C910E945F076C
:100DA000F701458563857485D8018C9111969C91D6
:100DB00050E00E94300B8A819B81B1010E94120792
:100DC0009394E8E0F0E0AE0EBF1E981408F498CFBC
:100DD0008B859C850FB6F8949EBF0FBE8DBF2D9658
:100DE0000FB6F894DEBF0FBECDBFCF91DF911F913C
:100DF0000F91FF90EF90DF90CF90BF90AF909F90BA
:100E00008F907F906F905F904F903F902F900895BC
:100E100020E08091F6029091F702892B09F021E001
:100E2000822F08950F931F93CF93DF938C01EB01D3
:100E3000FC0180819181009781F00E94770A2881CE
:100E40008091F6029091F702821B91099093F7022C
:100E50008093F602F801118210821882DF91CF91FF
:100E60001F910F910895EF92FF920F931F93CF93CD
:100E7000DF938C017B01EA01FC0180819181009765
:100E800011F4188215C00E94770A2881220F8091E0
:100E9000F6029091F702821B91099093F7028093DA
:100EA000F602F80111821082C701BE010E941207EA
:100EB000DF91CF911F910F91FF90EF900895DF92F6
:100EC000EF92FF920F931F93CF93DF938C017B01DF
:100ED000D42EC42FD0E0CE010E94CA09F80191831C
:100EE0008083009761F08091F6029091F7028C0F59
:100EF0009D1F9093F7028093F602F701D082DF9155
:100F0000CF911F910F91FF90EF90DF900895BF92C6
:100F1000CF92DF92EF92FF920F931F93CF93DF93C5
:100F20008C017B016A01B22EC22FD0E0CC0FDD1FF5
:100F3000CE010E94CA09F80191838083009779F05D
:100F40008091F6029091F7028C0F911D9093F70219
:100F50008093F602C701B6014B2D0E945F07DF9117
:100F6000CF911F910F91FF90EF90DF90CF90BF90A6
:100F700008957F928F929F92AF92BF92CF92DF920D
:100F8000EF92FF920F931F93DF93CF93CDB7DEB70E
:100F90007C015B01D42E8DB69EB67EB68DB79EB712
:100FA000841B91090FB6F8949EBF0FBE8DBF0DB77D
:100FB0001EB70F5F1F4FF70160817181C80150E0BC
:100FC0000E94300B8D2D90E00E94CA09F7018083AA
:100FD0009183B8014D2D50E00E94300BF7018081C4
:100FE0009181892BD9F0F50180812D2D281B332784
:100FF00027FD30958091F6029091F702820F931FA2
:101000009093F7028093F602D082282D372DC901E4
:101010000FB6F8949EBF0FBE8DBF08C0882D972DC8
:101020009C010FB6F8943EBF0FBE2DBF0FB6F894CB
:101030009EBE0FBE8DBECF91DF911F910F91FF908D
:10104000EF90DF90CF90BF90AF909F908F907F9068
:1010500008958091F6029091F70224E08030920783
:1010600048F0892F8695869590E00E94D6088FECEF
:1010700092E004C00E94D6088DED92E00E945C08C8
:1010800008951092C5008DE48093C40088E1809398
:10109000C10086E08093C20008958091C00087FF60
:1010A000FCCF8091C6000895982F8091C00085FFE5
:1010B000FCCF9093C6000895FC0107C08091C0004A
:1010C00085FFFCCF9093C600319690819923B1F7AC
:1010D00008951F93182F89EE92E00E945C08912FCB
:1010E00092959F701F709A3030F48091C00085FFF8
:1010F000FCCF905D05C08091C00085FFFCCF995C5E
:101100009093C6001A3030F48091C00085FFFCCF68
:10111000105D05C08091C00085FFFCCF195C109365
:10112000C6001F910895282F8A3040F48091C00096
:1011300085FFFCCF205D2093C6000895843680F49F
:101140008091C00085FFFCCF822F6AE00E94970942
:10115000805D8093C6008091C00085FFFCCF1EC0DB
:101160008091C00085FFFCCF822F64E60E94970922
:10117000805D8093C6008091C00085FFFCCF822FE8
:1011800064E60E949709892F6AE00E949709805DB2
:101190008093C6008091C00085FFFCCF822F6AE05B
:1011A0000E949709905D9093C60008959C018A3033
:1011B000910530F48091C00085FFFCCF822FB3C031
:1011C0008436910588F48091C00085FFFCCFC90169
:1011D0006AE070E00E94A309605D6093C6008091A0
:1011E000C00085FFFCCF9AC083E0283E380708F591
:1011F0008091C00085FFFCCFC90164E670E00E94C9
:10120000A309605D6093C6008091C00085FFFCCF9C
:10121000C90164E670E00E94A3096AE070E00E94E0
:10122000A309605D6093C6008091C00085FFFCCF7C
:1012300075C087E22031380788F58091C00085FFAE
:10124000FCCFC90168EE73E00E94A309605D609362
:10125000C6008091C00085FFFCCFC90168EE73E035
:101260000E94A30964E670E00E94A309605D609398
:10127000C6008091C00085FFFCCFC90164E670E024
:101280000E94A3096AE070E00E94A309605D609378
:10129000C6008091C00085FFFCCF40C08091C00097
:1012A00085FFFCCFC90160E177E20E94A309605D80
:1012B0006093C6008091C00085FFFCCFC90160E14A
:1012C00077E20E94A30968EE73E00E94A309605DC3
:1012D0006093C6008091C00085FFFCCFC90168EE15
:1012E00073E00E94A30964E670E00E94A309605DB8
:1012F0006093C6008091C00085FFFCCFC90164E601
:1013000070E00E94A3096AE070E00E94A309605D9A
:101310006093C6008091C00085FFFCCFC9016AE0E0
:1013200070E00E94A309805D8093C6000895991B18
:1013300079E004C0991F961708F0961B881F7A95CC
:10134000C9F780950895AA1BBB1B51E107C0AA1FCE
:10135000BB1FA617B70710F0A61BB70B881F991F56
:101360005A95A9F780959095BC01CD01089597FBFA
:10137000092E07260AD077FD04D0E5DF06D000202D
:101380001AF4709561957F4F0895F6F790958195C1
:101390009F4F0895CF93DF93BC018230910510F4E5
:1013A00062E070E0A091FA02B091FB02ED01E0E092
:1013B000F0E040E050E021C08881998186179707CE
:1013C00069F48A819B81309719F09383828304C0EA
:1013D0009093FB028093FA02FE0134C068177907EC
:1013E00038F44115510519F08417950708F4AC013C
:1013F000FE018A819B819C01E9012097E9F6411554
:101400005105A9F1CA01861B970B049708F4BA018C
:10141000E0E0F0E02AC08D919C9111978417950728
:10142000F9F46417750781F412968D919C911397C6
:10143000309719F09383828304C09093FB028093CA
:10144000FA02FD0132964FC0CA01861B970BFD01BF
:10145000E80FF91F6193719302978D939C9343C09A
:10146000FD01828193819C01D9011097A1F68091A1
:10147000F8029091F902892B41F48091EE0290914B
:10148000EF029093F9028093F8024091F00250919C
:10149000F1024115510541F44DB75EB78091EC0260
:1014A0009091ED02481B590B2091F8023091F902FE
:1014B00024173507B0F4CA01821B930B86179707D0
:1014C00080F0AB014E5F5F4F8417950750F0420FDD
:1014D000531F5093F9024093F802F90161937193FD
:1014E00002C0E0E0F0E0CF01DF91CF910895CF930B
:1014F000DF93009709F450C0EC0122971B821A82F7
:10150000A091FA02B091FB02109709F140E050E07F
:10151000AC17BD0708F1BB83AA83FE01219131916D
:10152000E20FF31FAE17BF0779F48D919C911197CD
:10153000280F391F2E5F3F4F3983288312968D91D4
:101540009C9113979B838A834115510571F4D09325
:10155000FB02C093FA0220C012968D919C911397C2
:10156000AD01009711F0DC01D3CFFA01D383C28320
:1015700021913191E20FF31FCE17DF0769F48881C3
:101580009981280F391F2E5F3F4FFA013183208345
:101590008A819B8193838283DF91CF910895A0E01C
:1015A000B0E0E5EDFAE00C947B0BEC01A880B9808B
:1015B000CA80DB80A114B104C104D10441F484E2E7
:1015C000A82E89EDB82E8BE5C82E87E0D82EC6014F
:1015D000B5012DE133EF41E050E00E94580B27EABE
:1015E00031E440E050E00E94390B7B018C01C601E0
:1015F000B5012DE133EF41E050E00E94580BCA01E4
:10160000B9012CEE34EF4FEF5FEF0E94390B6E0DF6
:101610007F1D801F911F97FF04C061507040804064
:101620009048688379838A839B839B013F77C901B4
:10163000CDB7DEB7EAE00C94970B0E94CF0A08956D
:1016400082EF92E00E94CF0A0895A0E0B0E080937C
:10165000F2029093F302A093F402B093F50208957E
:10166000FB01DC0102C001900D9241505040D8F7BF
:101670000895629FD001739FF001829FE00DF11DDC
:10168000649FE00DF11D929FF00D839FF00D749FFC
:10169000F00D659FF00D9927729FB00DE11DF91FA8
:1016A000639FB00DE11DF91FBD01CF011124089505
:1016B00097FB092E05260ED057FD04D04BD00AD03B
:1016C000001C38F450954095309521953F4F4F4F71
:1016D0005F4F0895F6F790958095709561957F4FCF
:1016E0008F4F9F4F08952F923F924F925F926F922C
:1016F0007F928F929F92AF92BF92CF92DF92EF92A2
:10170000FF920F931F93CF93DF93CDB7DEB7CA1B22
:10171000DB0B0FB6F894DEBF0FBECDBF09942A884D
:10172000398848885F846E847D848C849B84AA84F5
:10173000B984C884DF80EE80FD800C811B81AA8182
:10174000B981CE0FD11D0FB6F894DEBF0FBECDBF4D
:10175000ED010895A1E21A2EAA1BBB1BFD010DC0CD
:10176000AA1FBB1FEE1FFF1FA217B307E407F50751
:1017700020F0A21BB30BE40BF50B661F771F881F2D
:10178000991F1A9469F760957095809590959B01C3
:0C179000AC01BD01CF010895F894FFCF1B
:10179C004572726F723A206C656E67746873206460
:1017AC006F206E6F74206D617463680D0A00736531
:1017BC006E745F7061636B65745F6C656E67746883
:1017CC00203D20002C2072656365697665645F702E
:1017DC0061636B65745F6C656E677468203D200097
:1017EC000D0A004572726F723A205061636B65741A
:1017FC007320646F206E6F74206D617463680D0AC2
:10180C000073656E745F7061636B657420202020BB
:10181C00203D200072656365697665645F70616365
:10182C006B6574203D20004572726F723A204D65D5
:10183C006D6F7279206C65616B0D0A002D2D2D2D4D
:10184C002D2D2D2D2D2D2D2D2D2D2D2D2D2D2D2DBC
:10185C002D2D2D2D2D2D2D2D2D2D2D2D2D2D2D2DAC
:10186C002D2D2D2D2D2D2D2D2D2D2D2D2D2D2D2D9C
:10187C002D2D2D2D0D0A00546573742000206661EA
:10188C00696C65640D0A00416C6C200020746573F2
:10189C007473207061737365640D0A000D0A002B5C
:1018AC002D2D2D2D2D2D2D2D2B2D2D2D2D2D2D2D5E
:1018BC002D2D2D2D2B2D2D2D2D2D2D2D2D2D2D2D4E
:1018CC002D2B2D2D2D2D2D2D2D2D2B002D2D2D2D6D
:1018DC002D2D2D2D2D2D2D2D2B2D2D2D2D2D2D2D2E
:1018EC002D2B0D0A007C20486561646572207C20DC
:1018FC0020436F6E74726F6C20207C204164647284
:10190C00657373696E67207C204C656E6774682004
:10191C007C004E4554205061636B6574002020435D
:10192C006865636B73756D20207C20466F6F7465E2
:10193C0072207C0D0A007C20200020207C200020BE
:10194C007C2000202000207C2020007C20002020F7
:10195C002000202020207C200020207C0D0A00204C
:10196C004B694220696E207573650D0A0020422078
:10197C00696E207573650D0A003078002000FC023A
:06198C0000000100000054
:00000001FF
