:100000000C943E000C945B000C945B000C945B0021
:100010000C945B000C945B000C945B000C945B00F4
:100020000C945B000C945B000C945B000C945B00E4
:100030000C945B000C945B000C945B000C945B00D4
:100040000C945B000C945B000C945B000C945B00C4
:100050000C945B000C945B000C945B000C945B00B4
:100060000C945B000C945B000C945B000C945B00A4
:100070000C945B000C945B000C945B0011241FBE7D
:10008000CFEFD0E1DEBFCDBF14E0A0E0B1E0EAE009
:10009000F9E102C005900D92AA3DB107D9F714E02D
:1000A000AAEDB4E001C01D92A03EB107E1F70E94A5
:1000B000AD060C94830C0C940000FC018DE780834A
:1000C00015821782168282870895FC018DE780834E
:1000D00015821782168282870895FC018DE780833E
:1000E00015821782168282871486138615861786D4
:1000F0001686108A138A128A148A118A0895FC01BE
:100100008DE7808315821782168282871486138674
:10011000158617861686108A138A128A148A118AFF
:100120000895681708F4682F862F08950F931F937A
:10013000CF93DF93062FEC0110E007C089910E9456
:10014000130980E20E94FE081F5F1017B8F380E0D9
:1001500091E00E940609DF91CF911F910F910895C0
:100160002F923F924F925F926F927F928F929F92C7
:10017000AF92BF92CF92DF92EF92FF920F931F93B5
:10018000DF93CF93CDB7DEB72B970FB6F894DEBFD2
:100190000FBECDBFDE2CE982FA820B831C83E22FD7
:1001A0002D83932F3E834F83588769877A878B8768
:1001B000E92E9D2C8F2C702E612E5E2ECF80D88440
:1001C000462E372E282E85E0989FC0011124B82E88
:1001D000B3948BE08B1510F09CE0B92E86EFF82ECF
:1001E000FB0C0B2D017083E091E00E940609EE20CC
:1001F00059F010E004C08DE20E94FE081F5F1B153D
:10020000D0F38BE20E94FE0880E391E00E94060991
:1002100089E491E00E940609EE20F9F0AF2CA69443
:1002200010E00A0D111DFF2404C080E20E94FE08A8
:10023000F3948F2D90E080179107BCF386E791E04F
:100240000E94060910E004C080E20E94FE081F5FC1
:100250001A15D0F38CE70E94FE0881E891E00E9415
:10026000060983E091E00E940609EE2059F010E0B3
:1002700004C08DE20E94FE081F5F1B15D0F38BE2C5
:100280000E94FE0880E391E00E9406098AE991E05D
:100290000E940609892D0E9413098EE991E00E94AF
:1002A0000609882D0E94130980E20E94FE08872D0E
:1002B0000E94130983EA91E00E940609862D0E949C
:1002C000130987EA91E00E940609852D0E9413090F
:1002D0008AEA91E00E9406098E2D0E9413098EE998
:1002E00091E00E940609E2E0EE1590F4FC2CC601B4
:1002F0008C01F80181918F010E94130980E20E9414
:10030000FE08802F8F198E15A0F38FEA91E01FC091
:10031000F2E0EF1679F4F60180810E94130987EA72
:1003200091E00E940609F60181810E94130983EA87
:1003300091E00DC0F1E0EF1661F482EB91E00E94D4
:100340000609F60180810E94130986EB91E00E9464
:100350000609842D0E94130987EA91E00E9406098C
:10036000832D0E9413098AEA91E00E940609822DDA
:100370000E9413098DEB91E00E94060983E091E051
:100380000E940609EE2059F010E004C08DE20E94A0
:10039000FE081F5F1B15D0F38BE20E94FE0880E36E
:1003A00091E00E9406092B960FB6F894DEBF0FBEAF
:1003B000CDBFCF91DF911F910F91FF90EF90DF9014
:1003C000CF90BF90AF909F908F907F906F905F90F5
:1003D0004F903F902F900895CF92DF92EF92FF922F
:1003E0000F931F93DF93CF93CDB7DEB79C01CDB6AC
:1003F000DEB6DC0115968C9115978B5FE82EFF24F5
:10040000EDB7FEB7EE19FF090FB6F894FEBF0FBEA9
:10041000EDBF0DB71EB70F5F1F4F11968C9111974F
:10042000818312968C91D80111968C931197F901C2
:10043000838112968C931297848113968C931397D1
:10044000858114968C9340E010C0842F90E0B80111
:10045000680F791FD9011696ED91FC911797E80F57
:10046000F91F8081FB0185834F5FD90115968C911F
:10047000481758F320E030E040E050E0A1EFBFEF34
:1004800016C0F801E40FF51FF081E0E02E273F27AA
:1004900068E0C901880F991F37FF04C09C012A2713
:1004A0003B2701C09C016150A1F74F5F5F4F4E1584
:1004B0005F053CF3C9010FB6F894DEBE0FBECDBE9A
:1004C000CF91DF911F910F91FF90EF90DF90CF9030
:1004D0000895CF93DF93EC010E94EC01382F8885BB
:1004E000891719F420E08985831321E0822FDF9199
:1004F000CF9108958F929F92AF92BF92CF92DF9249
:10050000EF92FF920F931F93DF93CF9300D00F9240
:10051000CDB7DEB76C011B821A82F2E0EF2EF12C10
:10052000EC0EFD1EDC011D964C914250C7018E0160
:100530000F5F1F4FB8010E944F074981F6012385C5
:1005400034852F5F3F4F8A819B81B90150E00E9423
:10055000E70BBB24E0E28E2E9E2CAF2C780126C048
:100560000B2D10E0DF01A00FB11F8C918E37E9F445
:1005700030E0201B310B0F5F1F4FAF01400F511FA9
:1005800001501040CD01BA01A9010E94E70BEA8198
:10059000FB81E00FF11F80818825808349814150D4
:1005A000892D9A2DB7010E947707B3942981EA819A
:1005B000FB81B216A8F28081D60111968C93119717
:1005C000818112968C931297828113968C93139744
:1005D000838114968C93B6016B5F7F4FC60106969C
:1005E00044810E944F07F60145812A813B812B5FA0
:1005F0003F4F86819781B90150E00E94E70BEA8165
:10060000FB818981E80FF11D32978191D6011896FF
:100610008C931897808119968C93CE010296BE0117
:100620006F5F7F4F0E942E070F900F900F90CF911A
:10063000DF911F910F91FF90EF90DF90CF90BF90CF
:10064000AF909F908F9008952F923F924F925F921C
:100650006F927F928F929F92AF92BF92CF92DF92D2
:10066000EF92FF920F931F93DF93CF9300D000D0B0
:100670000F92CDB7DEB74C012DB73EB73D832C832B
:100680001B821A82DC0115964C91495FCE010296BD
:10069000BE016F5F7F4F0E944F07EA81FB81D4014B
:1006A00011968C9111978083EA81FB8112968C912F
:1006B00012978183EA81FB8113968C911397828331
:1006C000EA81FB8114968C9114978383EA81FB81E4
:1006D00015968C91848320E00EC0822F90E0A80FA5
:1006E000B91FF40146815781480F591FFA018081D3
:1006F00015968C932F5FD40115968C91AA81BB819E
:10070000281758F38981A80FB11D1297F40180852D
:100710008C938981EA81FB81E80FF11D3197D40127
:1007200019968C9180837724B2E02B2E312C2C0EDD
:100730003D1E2E010894411C511CA0E26A2E56C099
:10074000A72CBB24EA81FB81EA0DFB1D80818D571C
:10075000823008F04AC0DDB6CEB64F5FC101B201AB
:100760000E947707E981F0E0CF018A199B092DB734
:100770003EB7281B390B0FB6F8943EBF0FBE2DBFF6
:100780000DB71EB70F5F1F4FFC012A813B812A0D59
:100790003B1DC801B901AF010E94E70B7501089428
:1007A000E11CF11C4A815B814E0D5F1D298130E007
:1007B0002A193B09CA01B801A9010E94E70BEA8185
:1007C000FB81EA0DFB1D3EE73083EA81FB81EE0DE4
:1007D000FF1D80818625808373942D2D3C2DC901BA
:1007E0000FB6F8949EBF0FBE8DBF739449817416E7
:1007F00008F4A6CFB401635F7F4F4E5FC4010B9630
:100800000E944F07D4011B96ED91FC911C971DE7A8
:1008100010831B962D913C911C972F5F3F4F498170
:100820006A817B81C90150E00E94E70BF401858554
:100830000384F485E02DE80FF11D31971083CE017C
:100840000296BE016F5F7F4F0E942E072C813D8173
:100850000FB6F8943EBF0FBE2DBF0F900F900F90B4
:100860000F900F90CF91DF911F910F91FF90EF901C
:10087000DF90CF90BF90AF909F908F907F906F90C0
:100880005F904F903F902F900895BF92CF92DF924C
:10089000EF92FF920F931F93CF93DF93EC01C62E3D
:1008A000B72ED42E83EC91E00E9406098E01055FDD
:1008B0001F4F2DE0E22EF12CEC0EFD1EC801B701FA
:1008C0004D2D0E944F074D858B859C856C2D7B2D72
:1008D00050E00E94E70BCE010E947A02C801B701E6
:1008E0000E942E078C8181508E3F18F487ED91E095
:1008F0000CC08989882361F09A81992349F0898104
:10090000891709F4198A83E192E00E940609A0C0C0
:10091000CE010E9469029A81882361F0992339F0FF
:1009200083E592E00E94060981E0898B91C08AE804
:1009300092E0EBCF9923F1F484EB92E00E94060958
:100940008E819F816D810E949600BE016C5E7F4FFB
:10095000CE0142964D810E944F074C896E817F8166
:100960008A899B8950E00E94E70B80E091E00E9419
:10097000060968C089818E01025F1F4F90E1C92E70
:10098000D12CCC0EDD1E8823B9F4C801B6014D81EF
:100990000E944F0748896E817F818E859F8550E038
:1009A0000E94E70B86EC92E00E9406098E859F85E7
:1009B00068890E94960046C04D818889480FC80109
:1009C000B6010E9477074D81888990E0841B9109C8
:1009D0002E853F85280F391F6E817F81C90150E028
:1009E0000E94E70B99818A81981718F487EE92E0AC
:1009F00002C081EF92E00E94060987EF92E00E9418
:100A000006098E859F8568890E94960099818A8152
:100A10009817C1F4BE016C5E7F4FCE0142964889A3
:100A20000E944F0748896E857F858A899B8950E09F
:100A30000E94E70B80E091E00E940609C801B60120
:100A40000E942E07CE0106962596BE010E942E0713
:100A5000DF91CF911F910F91FF90EF90DF90CF909A
:100A6000BF9008953F924F925F926F927F928F92C4
:100A70009F92AF92BF92CF92DF92EF92FF920F932D
:100A80001F93CF93DF93EC012B01322E242F269559
:100A900026952695215030E0842F90E08770907045
:100AA000892B09F031E0F22EF30E8F2D90E0E3E078
:100AB000880F991FEA95E1F7E42EE81A76E0A72E51
:100AC000B12CAC0EBD1E65E0C62ED12CCC0EDD1EA9
:100AD0005BE0652E712C6C0E7D1E4DE0842E912CFA
:100AE0008C0E9D1E00E08FE093E00E9406090F151A
:100AF00011F41E2D01C018E00983FA821B823C828A
:100B0000C501B601412F0E944F07A02FB0E033E08E
:100B1000AA0FBB1F3A95E1F7A40DB51D90E007C0E1
:100B2000EE81FF81E90FF11D8D9180839F5F911709
:100B3000B8F3CE010E94EC0198878987CE010E940C
:100B40002403C501B6010E942E0781E293E00E94B2
:100B500006096B857C858D899E894D850E94960846
:100B6000C301B4010E942E070F5FF01608F0BBCF3F
:100B7000DF91CF911F910F91FF90EF90DF90CF9079
:100B8000BF90AF909F908F907F906F905F904F90AD
:100B90003F9008956F927F929F92AF92BF92CF92B3
:100BA000DF92EF92FF920F931F93DF93CF93CDB716
:100BB000DEB77C016DB67EB60E94D70B68E170E0AF
:100BC0000E946E0A982E9394892D90E02DB73EB71F
:100BD000281B390B0FB6F8943EBF0FBE2DBFCDB604
:100BE000DEB60894C11CD11C00E010E05C010DC011
:100BF0000E94D70BF601E00FF11F62E070E00E9447
:100C00006E0A835880830F5F1F4F0A151B0580F300
:100C1000C701B601492D2FEF0E943205F701348933
:100C2000391511F420E02EC088E393E00E940609F4
:100C30008DE593E00E940609892D0E944A0987E705
:100C400093E00E9406098AE793E00E940609F701F3
:100C500084890E944A0987E793E010C0A22FB0E080
:100C6000F701828993898A0F9B1FAC0DBD1DFC0182
:100C700090818C91981729F084E993E00E940609ED
:100C80001AC02F5F231750F38AEB93E00E940609E6
:100C9000C701429624E130E0E20EF31EB7010E9444
:100CA0002E070E942407882339F08EED93E00E94DE
:100CB00006090E94E70781E00FB6F8947EBE0FBEDA
:100CC0006DBECF91DF911F910F91FF90EF90DF905C
:100CD000CF90BF90AF909F907F906F9008950F93AB
:100CE0001F93DF93CF93CDB7DEB767970FB6F89416
:100CF000DEBF0FBECDBF8E010F5F1F4FC8010E9428
:100D00007F00C8010E94CA05882381F083EF93E029
:100D10000E94060981E090E00E948D0989EF93E02E
:100D20000E94060981E090E00E94830C83E094E039
:100D30000E94060981E090E00E948D0988E094E01D
:100D40000E94060967960FB6F894DEBF0FBECDBFAE
:100D5000CF91DF911F910F9108957F928F929F9273
:100D6000AF92BF92CF92DF92EF92FF920F931F93B9
:100D7000DF93CF93CDB7DEB769970FB6F894DEBF98
:100D80000FBECDBF0E94BE0888E194E00E94060914
:100D90008E010D5F1F4FC8010E947F007E010894E5
:100DA000E11CF11CC7010E94FF07F98EE88E1A832F
:100DB0000983702E812E9E2CCF2C8CE2A82E81E0F0
:100DC000B82EEDB6DEB60E94D70B68E070E00E9448
:100DD0006E0AF82EF3948DB79EB78F1991090FB64E
:100DE000F8949EBF0FBE8DBF0DB71EB70F5F1F4F8C
:100DF00080E005C0F801E80FF11D80838F5F8F153B
:100E0000C8F385E594E00E940609C8016F2D0E9491
:100E10009600872D982DB8014F2D2FEF0E94320597
:100E2000892D9C2D0E94170880E29EE4F5013197E0
:100E3000F1F70197D9F78E2D9D2D9C010FB6F894EF
:100E40003EBF0FBE2DBFBDCF20E08091DA04909150
:100E5000DB04892B09F021E0822F08950F931F9363
:100E6000CF93DF938C01EB01FC018081918100978E
:100E700081F00E942E0B28818091DA049091DB048E
:100E8000821B91099093DB048093DA04F8011182AC
:100E900010821882DF91CF911F910F910895DF92F8
:100EA000EF92FF920F931F93CF93DF938C017B01FF
:100EB000D42EC42FD0E0CE010E94810AF801918384
:100EC0008083009761F08091DA049091DB048C0FAD
:100ED0009D1F9093DB048093DA04F701D082DF91A9
:100EE000CF911F910F91FF90EF90DF9008957F9227
:100EF0008F929F92AF92BF92CF92DF92EF92FF922A
:100F00000F931F93DF93CF93CDB7DEB77C015B01C7
:100F1000D42E8DB69EB67EB68DB79EB7841B910932
:100F20000FB6F8949EBF0FBE8DBF0DB71EB70F5FF3
:100F30001F4FF70160817181C80150E00E94E70BEB
:100F40008D2D90E00E94810AF70180839183B80182
:100F50004D2D50E00E94E70BF70180819181892B94
:100F6000D9F0F50180812D2D281B332727FD3095E1
:100F70008091DA049091DB04820F931F9093DB043D
:100F80008093DA04D082282D372DC9010FB6F8944A
:100F90009EBF0FBE8DBF08C0882D972D9C010FB638
:100FA000F8943EBF0FBE2DBF0FB6F8949EBE0FBE85
:100FB0008DBECF91DF911F910F91FF90EF90DF9049
:100FC000CF90BF90AF909F908F907F900895809129
:100FD000DA049091DB0424E08030920748F0892FF6
:100FE0008695869590E00E948D0988E694E004C07D
:100FF0000E948D0986E794E00E94060908950E94E8
:10100000D30888EE93E02CE231E0F9013197F1F753
:101010000197D9F708950E94D30888EE93E02CE257
:1010200031E0F9013197F1F70197D9F70895AF92BF
:10103000BF92CF92DF92EF92FF920F931F93DF93B5
:10104000CF9300D00F92CDB7DEB75C0182E894E079
:101050000E9406091B821A821982CE010296BE01E5
:101060006F5F7F4F41E00E944F070A811B810E9402
:10107000E808F8018083EA81FB8180818D37A9F738
:101080000E94130980E20E94FE0882E0E82EF12C03
:10109000EC0EFD1E6E010894C11CD11C49814F5FEE
:1010A000C701B6010E947707898190E001970A8104
:1010B0001B81080F191F0E94E808F80180838981AD
:1010C000EA81FB81E80FF11D319780810E941309AD
:1010D00080E20E94FE088981EA81FB81E80FF11D10
:1010E000319780818D37D1F686E994E00E94060918
:1010F00089E994E00E9406096A817B81F50180817B
:10110000918149810E944504C701B6010E942E07C2
:101110000F900F900F90CF91DF911F910F91FF9043
:10112000EF90DF90CF90BF90AF900895FF920F9314
:101130001F93CF93DF93162F072FF42E80EB94E0AD
:101140000E940609212F302FC901EC0110E00AC0CE
:1011500088810E94130980E20E94FE0889910E9402
:10116000EF081F5F1F15A0F386E994E00E940609AF
:10117000DF91CF911F910F91FF9008951092C500BC
:101180008DE48093C40088E18093C10086E0809361
:10119000C20088EE93E02CE231E0F9013197F1F7DB
:1011A0000197D9F708951092CD008DE48093CC007B
:1011B00088E18093C90086E08093CA0088EE93E0BE
:1011C0002CE231E0F9013197F1F70197D9F7089551
:1011D0008091C80087FFFCCF8091CE000895982FA2
:1011E0008091C80085FFFCCF9093CE000895809138
:1011F000C00087FFFCCF8091C6000895982F809192
:10120000C00085FFFCCF9093C6000895FC0107C085
:101210008091C00085FFFCCF9093C60031969081ED
:101220009923B1F708951F93182F8D3719F482EC85
:1012300094E004C08E3729F487EC94E00E940609FC
:1012400027C08CEC94E00E940609912F92959F7024
:10125000212F2F709A3030F48091C00085FFFCCF91
:10126000905D05C08091C00085FFFCCF995C909394
:10127000C6002A3030F48091C00085FFFCCF205D8D
:1012800005C08091C00085FFFCCF295C2093C6007B
:101290001F910895282F8A3040F48091C00085FF67
:1012A000FCCF205D2093C6000895843680F48091A1
:1012B000C00085FFFCCF822F6AE00E944E0A805D4D
:1012C0008093C6008091C00085FFFCCF1EC0809136
:1012D000C00085FFFCCF822F64E60E944E0A805D2D
:1012E0008093C6008091C00085FFFCCF822F64E60A
:1012F0000E944E0A892F6AE00E944E0A805D809308
:10130000C6008091C00085FFFCCF822F6AE00E945A
:101310004E0A905D9093C60008959C018A30910515
:1013200030F48091C00085FFFCCF822FB3C084369B
:10133000910588F48091C00085FFFCCFC9016AE067
:1013400070E00E945A0A605D6093C6008091C00000
:1013500085FFFCCF9AC083E0283E380708F58091CE
:10136000C00085FFFCCFC90164E670E00E945A0A04
:10137000605D6093C6008091C00085FFFCCFC9010D
:1013800064E670E00E945A0A6AE070E00E945A0A1D
:10139000605D6093C6008091C00085FFFCCF75C082
:1013A00087E22031380788F58091C00085FFFCCFA7
:1013B000C90168EE73E00E945A0A605D6093C6003E
:1013C0008091C00085FFFCCFC90168EE73E00E94E8
:1013D0005A0A64E670E00E945A0A605D6093C60093
:1013E0008091C00085FFFCCFC90164E670E00E94D7
:1013F0005A0A6AE070E00E945A0A605D6093C60073
:101400008091C00085FFFCCF40C08091C00085FF67
:10141000FCCFC90160E177E20E945A0A605D6093E7
:10142000C6008091C00085FFFCCFC90160E177E272
:101430000E945A0A68EE73E00E945A0A605D609347
:10144000C6008091C00085FFFCCFC90168EE73E043
:101450000E945A0A64E670E00E945A0A605D609336
:10146000C6008091C00085FFFCCFC90164E670E032
:101470000E945A0A6AE070E00E945A0A605D609316
:10148000C6008091C00085FFFCCFC9016AE070E012
:101490000E945A0A805D8093C6000895991B79E0E6
:1014A00004C0991F961708F0961B881F7A95C9F7F4
:1014B00080950895AA1BBB1B51E107C0AA1FBB1F43
:1014C000A617B70710F0A61BB70B881F991F5A95D0
:1014D000A9F780959095BC01CD01089597FB092E41
:1014E00007260AD077FD04D0E5DF06D000201AF4E5
:1014F000709561957F4F0895F6F7909581959F4F70
:101500000895CF93DF93BC018230910510F462E01F
:1015100070E0A091DE04B091DF04ED01E0E0F0E0C6
:1015200040E050E021C0888199818617970769F4CF
:101530008A819B81309719F09383828304C09093B2
:10154000DF048093DE04FE0134C06817790738F4A5
:101550004115510519F08417950708F4AC01FE01F7
:101560008A819B819C01E9012097E9F6411551058B
:10157000A9F1CA01861B970B049708F4BA01E0E0B1
:10158000F0E02AC08D919C91119784179507F9F48A
:101590006417750781F412968D919C91139730977B
:1015A00019F09383828304C09093DF048093DE0458
:1015B000FD0132964FC0CA01861B970BFD01E80F53
:1015C000F91F6193719302978D939C9343C0FD0122
:1015D000828193819C01D9011097A1F68091DC044E
:1015E0009091DD04892B41F48091D1049091D20433
:1015F0009093DD048093DC044091D3045091D40493
:101600004115510541F44DB75EB78091CF049091DB
:10161000D004481B590B2091DC043091DD042417C1
:101620003507B0F4CA01821B930B8617970780F029
:10163000AB014E5F5F4F8417950750F0420F531F69
:101640005093DD044093DC04F9016193719302C06F
:10165000E0E0F0E0CF01DF91CF910895CF93DF93E9
:10166000009709F450C0EC0122971B821A82A091C6
:10167000DE04B091DF04109709F140E050E0AC17B0
:10168000BD0708F1BB83AA83FE0121913191E20FCE
:10169000F31FAE17BF0779F48D919C911197280F16
:1016A000391F2E5F3F4F3983288312968D919C916D
:1016B00013979B838A834115510571F4D093DF04FE
:1016C000C093DE0420C012968D919C911397AD01BA
:1016D000009711F0DC01D3CFFA01D383C2832191AB
:1016E0003191E20FF31FCE17DF0769F488819981EA
:1016F000280F391F2E5F3F4FFA01318320838A81E3
:101700009B8193838283DF91CF910895A0E0B0E025
:10171000ECE8FBE00C94320CEC01A880B980CA80A4
:10172000DB80A114B104C104D10441F484E2A82EE9
:1017300089EDB82E8BE5C82E87E0D82EC601B501FD
:101740002DE133EF41E050E00E940F0C27EA31E435
:1017500040E050E00E94F00B7B018C01C601B50116
:101760002DE133EF41E050E00E940F0CCA01B901B6
:101770002CEE34EF4FEF5FEF0E94F00B6E0D7F1DEC
:10178000801F911F97FF04C06150704080409048B7
:10179000688379838A839B839B013F77C901CDB797
:1017A000DEB7EAE00C944E0C0E94860B089585ED9E
:1017B00094E00E94860B0895A0E0B0E08093D504E9
:1017C0009093D604A093D704B093D8040895FB0156
:1017D000DC0102C001900D9241505040D8F70895AD
:1017E000629FD001739FF001829FE00DF11D649F05
:1017F000E00DF11D929FF00D839FF00D749FF00D91
:10180000659FF00D9927729FB00DE11DF91F639F31
:10181000B00DE11DF91FBD01CF011124089597FB03
:10182000092E05260ED057FD04D04BD00AD0001C3F
:1018300038F450954095309521953F4F4F4F5F4F6D
:101840000895F6F790958095709561957F4F8F4F2D
:101850009F4F08952F923F924F925F926F927F9287
:101860008F929F92AF92BF92CF92DF92EF92FF92B0
:101870000F931F93CF93DF93CDB7DEB7CA1BDB0B5C
:101880000FB6F894DEBF0FBECDBF09942A88398801
:1018900048885F846E847D848C849B84AA84B98408
:1018A000C884DF80EE80FD800C811B81AA81B98114
:1018B000CE0FD11D0FB6F894DEBF0FBECDBFED0128
:1018C0000895A1E21A2EAA1BBB1BFD010DC0AA1F81
:1018D000BB1FEE1FFF1FA217B307E407F50720F099
:1018E000A21BB30BE40BF50B661F771F881F991F14
:1018F0001A9469F760957095809590959B01AC015D
:0A190000BD01CF010895F894FFCF58
:10190A000D0A002B2D2D2D2D2D2D2D2D2B2D2D2D71
:10191A002D2D2D2D2D2D2D2D2B2D2D2D2D2D2D2DEF
:10192A002D2D2D2D2D2B2D2D2D2D2D2D2D2D2B000E
:10193A002D2D2D2D2D2D2D2D2D2D2D2D2B2D2D2DCF
:10194A002D2D2D2D2D2B0D0A007C204865616465F7
:10195A0072207C2020436F6E74726F6C20207C2072
:10196A0041646472657373696E67207C204C656E8E
:10197A00677468207C004E4554205061636B65741F
:10198A00002020436865636B73756D20207C2046B8
:10199A006F6F746572207C0D0A007C202000202065
:1019AA007C2000207C2000202000207C2020007C3D
:1019BA00200020202000202020207C200020207CC5
:1019CA000D0A000D0A524543454956494E472046DD
:1019DA0052414D450D0A0044726F7070696E67205E
:1019EA006672616D653A2044657374696E617469E3
:1019FA006F6E206164647265737320646F6573200F
:101A0A006E6F74206D6174636820646576696365BE
:101A1A000D0A0044726F7070696E67206672616D9C
:101A2A00653A204572726F722064657465637465E5
:101A3A006420696E2070726576696F7573207370A1
:101A4A006C6974207061636B6574206672616D6580
:101A5A000D0A0044726F7070696E67206672616D5C
:101A6A00653A204572726F722064657465637465A5
:101A7A006420696E2073706C6974207061636B6591
:101A8A0074206672616D650D0A0044726F70706928
:101A9A006E67206672616D653A204572726F7220B8
:101AAA00646574656374656420696E206672616D2D
:101ABA00650D0A0052656365697665642070616325
:101ACA006B65743A20005061727469616C6C79209C
:101ADA007265636F6E737472756374656420706186
:101AEA00636B65743A20005061727469616C6C7939
:101AFA000046756C6C7900207265636F6E73747240
:101B0A007563746564207061636B65743A20000DB7
:101B1A000A53454E44494E47204652414D450D0A07
:101B2A000050617373696E67206672616D65207417
:101B3A006F205048590D0A004572726F723A205050
:101B4A0061636B6574206C656E6774687320646F7B
:101B5A00206E6F74206D617463680D0A0053656EA0
:101B6A007420202020207061636B6574206C656E80
:101B7A00677468203D20000D0A0052656365697626
:101B8A006564207061636B6574206C656E67746848
:101B9A00203D20004572726F723A205061636B6576
:101BAA007420636F6E74656E747320646F206E6F39
:101BBA0074206D617463680D0A0053656E74206148
:101BCA006E64207265636569766564207061636B13
:101BDA00657473206D617463680D0A0D0A0045729D
:101BEA00726F723A204D656D6F7279206C65616B08
:101BFA000D0A00546573742000206661696C65647F
:101C0A000D0A00416C6C2000207465737473207097
:101C1A0061737365640D0A000D0A2D2D2D2D2D2D6E
:101C2A002D2D2D2D2D2D2D2D2D2D2D2D2D2D2D2DDA
:101C3A002D2D2D2D2D2D2D2D2D2D2D2D2D2D2D2DCA
:101C4A002D2D2D2D2D2D2D2D2D2D2D2D2D2D2D2DBA
:101C5A002D2D0D0A000D0A53454E44494E4720507A
:101C6A0041434B45540D0A00204B694220696E20BE
:101C7A007573650D0A00204220696E207573650D23
:101C8A000A000D0A524543454956494E47204259D2
:101C9A005445530D0A000D0A0050617373696E674B
:101CAA00206672616D6520746F20444C4C0D0A00E9
:101CBA000D0A53454E44494E472042595445530D47
:101CCA000A00464C41470020455343003078002023
:0A1CDA0000E004000001000000001B
:00000001FF
