:100000000C943E000C945B000C945B000C945B0021
:100010000C945B000C945B000C945B000C945B00F4
:100020000C945B000C945B000C945B000C945B00E4
:100030000C945B000C945B000C945B000C945B00D4
:100040000C945B000C945B000C945B000C945B00C4
:100050000C945B000C945B000C945B000C945B00B4
:100060000C945B000C945B000C945B000C945B00A4
:100070000C945B000C945B000C945B0011241FBE7D
:10008000CFEFD0E1DEBFCDBF12E0A0E0B1E0E4E809
:10009000F9E102C005900D92AC3EB107D9F712E02C
:1000A000ACEEB2E001C01D92A23FB107E1F70E94A1
:1000B00002020C94C00C0C940000AF92BF92CF923D
:1000C000DF92EF92FF920F931F93DF93CF93CDB701
:1000D000DEB7C854D0400FB6F894DEBF0FBECDBF18
:1000E000FE017996DE011196CF01C0961192119210
:1000F0001D92E817F907D1F700E010E079E1C72E6B
:10010000D12CCC0EDD1E7E010894E11CF11CC8012F
:10011000880F991FB701600F711F8C0D9D1D40E85E
:100120000E944B090F5F1F4F0831110581F780E0D6
:1001300091E00E948E07FF2459E1A52EB12CAC0E50
:10014000BD1E6E010894C11CD11C20C00E94460B2C
:100150009801220F331FF601E00FF11F60E870E0F5
:100160000E94DD09482FC501820F931FBF010E9425
:1001700020090F5F1F4F0831110541F780E091E022
:100180000E948E07F39483E0F81619F000E010E067
:10019000DDCF00E010E039E1C32ED12CCC0EDD1E06
:1001A0007E010894E11CF11CC801880F991FB7015A
:1001B000600F711F8C0D9D1D0E94D3080F5F1F4F94
:1001C0000831110589F7C85BDF4F0FB6F894DEBF21
:1001D0000FBECDBFCF91DF911F910F91FF90EF9098
:1001E000DF90CF90BF90AF9008952F923F924F92A3
:1001F0005F926F927F928F929F92AF92BF92CF92B7
:10020000DF92EF92FF920F931F93DF93CF93CDB7BF
:10021000DEB76E970FB6F894DEBF0FBECDBF8E016E
:100220000B5F1F4FC8010E944D025E010894A11C84
:10023000B11CCC24DD248EE7682E702E812E0CE1BB
:10024000202E312C2C0E3D1E1EE1412E512C4C0E29
:100250005D1E9EC0092D10E07801EE0CFF1CEF8999
:10026000F88DEE0DFF1D60817181E98DFA8DE00F33
:10027000F11F872D982D40810E94EC058F89988D64
:10028000698D7A8D600F711F8E0D9F1D0E94D3089E
:1002900093948B8D9816F0F2CE014796BE01675E5F
:1002A0007F4FAE01455E5F4F0E94F4088E8D823015
:1002B00099F083E091E00E948E0781E291E00E9434
:1002C0008E0782E00E94C50784E391E00E948E07BA
:1002D0008E8D0E94C50745C0EC8DFD8D9081D501A6
:1002E0008C91981731F0EE24AA24BB2400E010E092
:1002F0000CC09181F50181819817D9F1EE24E39426
:10030000A1E0AA2EB12C01E010E08DE491E00E9462
:100310008E078BE691E00E948E078E2D0E94C50706
:1003200088E791E00E948E07CC0CDD1CC00ED11E28
:10033000CC0EDD1ED60111968C910E949B078DE795
:1003400091E00E948E078E2D0E94C50788E791E0FC
:100350000E948E07EC8DFD8DEA0DFB1D80810E94B1
:100360009B0780E091E00E948E0781E090E00E9470
:10037000C00CC101B2010E94D3080894C11CD11C59
:10038000E2E0F0E0AE0EBF1EF2E0CF16D104A9F01D
:10039000D5016C9211966C92B601660F771FE1E061
:1003A000F0E0EC0FFD1F6E0F7F1F872D982D42E0B0
:1003B0002FEF0E94890699246CCF0E94C9088823D8
:1003C00039F080E991E00E948E070E94A509CDCF07
:1003D00080E06E960FB6F894DEBF0FBECDBFCF9112
:1003E000DF911F910F91FF90EF90DF90CF90BF9022
:1003F000AF909F908F907F906F905F904F903F90C5
:100400002F9008950E94730788EE93E02CE231E06C
:10041000F9013197F1F70197D9F786EA91E00E9447
:100420008E070E94F500882339F081EE91E00E944A
:100430008E0721E030E006C08DEE91E00E948E072D
:1004400020E030E0C901089580E00895FC018DE7C7
:10045000808315821782168282870895FC018DE7BA
:10046000808315821782168282870895FC018DE7AA
:1004700080831582178216828287148613861586DA
:1004800017861686108A138A128A158A148A168A83
:10049000108E178A118E118A0895FC018DE78083D2
:1004A0001582178216828287148613861586178610
:1004B0001686108A138A128A158A148A168A108E52
:1004C000178A118E118A0895681708F4682F862FED
:1004D00008950F931F93CF93DF93062FEC0110E045
:1004E00008C089910E949B078AEF91E00E948E07C5
:1004F0001F5F1017B0F38CEF91E00E948E07DF9121
:10050000CF911F910F9108952F923F924F925F923A
:100510006F927F928F929F92AF92BF92CF92DF9213
:10052000EF92FF920F931F93DF93CF93CDB7DEB778
:100530002B970FB6F894DEBF0FBECDBFDE2CE9823D
:10054000FA820B831C83E22F2D83932F3E834F83EC
:10055000588769877A878B87E92E9D2C8F2C702E80
:10056000612E5E2ECF80D884462E372E282E85E031
:10057000989FC0011124B82EB3948BE08B1510F016
:100580009CE0B92E86EFF82EFB0C0B2D01708FEF3F
:1005900091E00E948E07EE2069F010E005C08CE229
:1005A00092E00E948E071F5F1B15C8F38EE292E057
:1005B0000E948E0780E392E00E948E0789E492E019
:1005C0000E948E07EE2011F1AF2CA69410E00A0DC8
:1005D000111DFF2405C08AEF91E00E948E07F3945D
:1005E0008F2D90E080179107B4F386E792E00E9488
:1005F0008E0710E005C08AEF91E00E948E071F5F12
:100600001A15C8F381E892E00E948E0783E892E011
:100610000E948E078FEF91E00E948E07EE2069F016
:1006200010E005C08CE292E00E948E071F5F1B1550
:10063000C8F38EE292E00E948E0780E392E00E946F
:100640008E078CE992E00E948E07892D0E949B07FD
:1006500080EA92E00E948E07882D0E949B078AEF15
:1006600091E00E948E07872D0E949B0785EA92E009
:100670000E948E07862D0E949B0789EA92E00E94C5
:100680008E07852D0E949B078CEA92E00E948E07C0
:100690008E2D0E949B0780EA92E00E948E07E2E086
:1006A000EE1598F4FC2CC6018C01F80181918F01A4
:1006B0000E949B078AEF91E00E948E07802F8F197E
:1006C0008E1598F381EB92E01FC0F2E0EF1679F4FB
:1006D000F60180810E949B0789EA92E00E948E07C2
:1006E000F60181810E949B0785EA92E00DC0F1E04E
:1006F000EF1661F484EB92E00E948E07F601808190
:100700000E949B0788EB92E00E948E07842D0E9436
:100710009B0789EA92E00E948E07832D0E949B0727
:100720008CEA92E00E948E07822D0E949B078FEB3D
:1007300092E00E948E078FEF91E00E948E07EE20DC
:1007400069F010E005C08CE292E00E948E071F5F06
:100750001B15C8F38EE292E00E948E0780E392E0C0
:100760000E948E072B960FB6F894DEBF0FBECDBF4A
:10077000CF91DF911F910F91FF90EF90DF90CF907D
:10078000BF90AF909F908F907F906F905F904F90B1
:100790003F902F900895AF92BF92CF92DF92EF9249
:1007A000FF920F931F93DF93CF93CDB7DEB7AC01CA
:1007B000CDB6DEB6DC0115968C911597895F082FB2
:1007C00010E078010894E108F108EDB7FEB7E01BEE
:1007D000F10B0FB6F894FEBF0FBEEDBF2DB73EB7BD
:1007E0002F5F3F4F11968C911197818312968C91B8
:1007F000D90111968C931197FA01838112968C93EB
:100800001297848113968C931397858114968C93F9
:1008100060E010C0862F90E05901A80EB91EDA01E1
:100820001696ED91FC911797E80FF91F8081F5015D
:1008300085836F5FDA0115968C91681758F3D8019C
:100840001297F901EA0FFB1F1082F901EE0DFF1D4F
:100850001082F80163E0EE0FFF1F6A95E1F760E098
:1008600001C06F5F862F90E08E179F07D4F3A20F11
:10087000B31F8C91FA0180872E0D3F1DD9018C91F9
:1008800081870FB6F894DEBE0FBECDBECF91DF914B
:100890001F910F91FF90EF90DF90CF90BF90AF909E
:1008A00008958F929F92AF92BF92CF92DF92EF9274
:1008B000FF920F931F93DF93CF9300D00F92CDB78A
:1008C000DEB76C011B821A82E2E0EE2EF12CEC0EF8
:1008D000FD1EDC011D964C914250C7018E010F5F39
:1008E0001F4FB8010E944B094981F60123853485C9
:1008F0002F5F3F4F8A819B81B90150E00E94240CF9
:10090000BB249E2CAF2C780170E2872E2BC00B2DC0
:1009100010E0E00FF11F80818E3719F54150892DCD
:100920009A2DB7010E9420094A815B81BA01600FAC
:10093000711F298130E02F5F3F4F201B310B0F5F6C
:100940001F4F400F511F01501040CB01BA01A901A8
:100950000E94240CEA81FB81E00FF11F8081882531
:100960008083B3944981EA81FB81B41680F280814F
:10097000D60111968C931197818112968C931297C0
:10098000828113968C931397838114968C93B6016E
:100990006B5F7F4FC601069644810E944B09F601AA
:1009A00045812A813B812B5F3F4F86819781B90129
:1009B00050E00E94240CEA81FB818981E80FF11D3F
:1009C00032978191D60118968C9318978081199649
:1009D0008C93CE010296BE016F5F7F4F0E94D308B9
:1009E0000F900F900F90CF91DF911F910F91FF907B
:1009F000EF90DF90CF90BF90AF909F908F90089531
:100A00006F927F928F929F92AF92BF92CF92DF921E
:100A1000EF92FF920F931F93DF93CF9300D000D0FC
:100A20000F92CDB7DEB77C011B821A82DC011596CE
:100A30004C91495FCE010296BE016F5F7F4F0E94CD
:100A40004B09EA81FB81D70111968C911197808324
:100A5000EA81FB8112968C9112978183EA81FB8156
:100A600013968C9113978283EA81FB8114968C9163
:100A700014978383EA81FB8115968C91848320E00F
:100A80000EC0822F90E0A80FB91FF7014681578151
:100A9000480F591FFA01808115968C932F5FD7015B
:100AA00015968C91AA81BB81281758F38981A80FCC
:100AB000B11D1297F70180858C938981EA81FB81B2
:100AC000E80FF11D3197D70119968C91808300E0D2
:100AD000B2E08B2E912C8C0E9D1E5E010894A11C01
:100AE000B11CAEE76A2EF0E27F2E33C0C02EDD24AB
:100AF000EA81FB81EC0DFD1D80818D57823040F530
:100B00004F5FC401B5010E9420094A815B81F60153
:100B10003196FD83EC83BF01640F751F298130E09E
:100B20002C193D094C0D5D1DCB01BA01A9010E9494
:100B3000240CEA81FB81EC0DFD1D6082EA81FB81C2
:100B40008C819D81E80FF91F8081872580830F5F4D
:100B50000F5F4981041750F2B701635F7F4F4E5F0B
:100B6000C7010B960E944B09D7011B96ED91FC9192
:100B70001C971DE710831B962D913C911C972F5FAE
:100B80003F4F49816A817B81C90150E00E94240C5A
:100B9000F70185850384F485E02DE80FF11D319779
:100BA0001083CE010296BE016F5F7F4F0E94D30873
:100BB0000F900F900F900F900F90CF91DF911F919A
:100BC0000F91FF90EF90DF90CF90BF90AF909F90EC
:100BD0008F907F906F900895CF92DF92EF92FF9267
:100BE0000F931F93CF93DF93EC01D62EC72E8C016A
:100BF000055F1F4F2DE0E22EF12CE80EF91EC80113
:100C0000B7010E944B094D858B859C856D2D7C2DF0
:100C100050E00E94240CCE010E945104C801B7018B
:100C20000E94D3088C8181508E3F08F468C08A816D
:100C3000882321F08989882309F061C0198A8A8173
:100C4000882371F4BE01675E7F4FCE0147964D81C8
:100C50000E944B09498D6E817F818F89988D15C0C7
:100C600089818E01025F1F4F90E1C92ED12CCC0EDD
:100C7000DD1E882371F4C801B6014D810E944B0925
:100C800048896E817F818E859F8550E00E94240C6B
:100C90002EC04D818889480FC801B6010E942009E5
:100CA0004D81888990E0841B91092E853F85280F0E
:100CB000391F6E817F81C90150E00E94240C998107
:100CC0008A819817A1F4BE01675E7F4FCE014796D7
:100CD00048890E944B0948896E857F858F89988D48
:100CE00050E00E94240CC801B6010E94D308CE0136
:100CF00006962596BE010E94D30880E001C081E0DF
:100D0000DF91CF911F910F91FF90EF90DF90CF90E7
:100D100008952F923F924F925F926F927F928F929F
:100D20009F92AF92BF92CF92DF92EF92FF920F937A
:100D30001F93DF93CF9300D000D000D0CDB7DEB7A4
:100D40009E838D83062FF72E142F2C83442309F4C2
:100D5000B1C020E0842F90E087709070892B09F05B
:100D600021E0B12EB694B694B694B20E6D817E8118
:100D70006C5E7F4F4D815E814A5E5F4F8D819E81AB
:100D800042962B2D0E9473094B2D50E081E090E09C
:100D9000841B950BE3E0880F991FEA95E1F7180F84
:100DA000198376E0672E712C8D819E81680E791EE5
:100DB00065E0862E912C880E991E0B969B838A8364
:100DC0003DE0232E312CAD81BE812A0E3B1E202F0B
:100DD0003F2DC9016C0100E0EE24FF242A01089494
:100DE00041085108AB2CAA9462C0802F90E0841572
:100DF000950511F018E001C01981ED81FE81018394
:100E0000A28213828C818483C301B401412F0E948A
:100E10004B09960190E00DC0AD81BE811696ED9113
:100E2000FC911797E90FF11DD9018D919D018083E8
:100E30009F5F911788F38D819E810E94CB038D81E6
:100E40009E810E940005ED81FE81828993896489DB
:100E50007589600F711D8E0D9F1D45850E944B0980
:100E6000AD81BE815296ED91FC915397EE0DFF1D21
:100E70001D964C911D971B966C911B971C967C910F
:100E80008081918150E00E94240CC301B4010E9432
:100E9000D3088A819B81B1010E94D3080F5FE2E0F1
:100EA000F0E0EE0EFF1E88E090E0C80ED91E0B1594
:100EB00008F49BCF26960FB6F894DEBF0FBECDBFC9
:100EC000CF91DF911F910F91FF90EF90DF90CF9026
:100ED000BF90AF909F908F907F906F905F904F905A
:100EE0003F902F9008951092C5008DE48093C40028
:100EF00088E18093C10086E08093C20008958091CC
:100F0000C00087FFFCCF8091C6000895982F809184
:100F1000C00085FFFCCF9093C6000895FC0107C078
:100F20008091C00085FFFCCF9093C60031969081E0
:100F30009923B1F708951F93182F85EC92E00E9432
:100F40008E07912F92959F701F709A3030F4809188
:100F5000C00085FFFCCF905D05C08091C00085FF7B
:100F6000FCCF995C9093C6001A3030F48091C00099
:100F700085FFFCCF105D05C08091C00085FFFCCFD0
:100F8000195C1093C6001F910895282F8A3040F4F1
:100F90008091C00085FFFCCF205D2093C60008959E
:100FA000843680F48091C00085FFFCCF822F6AE0F8
:100FB0000E94BD09805D8093C6008091C00085FFBE
:100FC000FCCF1EC08091C00085FFFCCF822F64E65D
:100FD0000E94BD09805D8093C6008091C00085FF9E
:100FE000FCCF822F64E60E94BD09892F6AE00E942F
:100FF000BD09805D8093C6008091C00085FFFCCF55
:10100000822F6AE00E94BD09905D9093C60008950A
:101010009C018A30910530F48091C00085FFFCCF9F
:10102000822FB3C08436910588F48091C00085FF7B
:10103000FCCFC9016AE070E00E94C909605D60935D
:10104000C6008091C00085FFFCCF9AC083E0283E97
:10105000380708F58091C00085FFFCCFC90164E620
:1010600070E00E94C909605D6093C6008091C00075
:1010700085FFFCCFC90164E670E00E94C9096AE0FF
:1010800070E00E94C909605D6093C6008091C00055
:1010900085FFFCCF75C087E22031380788F5809145
:1010A000C00085FFFCCFC90168EE73E00E94C9094A
:1010B000605D6093C6008091C00085FFFCCFC901D0
:1010C00068EE73E00E94C90964E670E00E94C909F5
:1010D000605D6093C6008091C00085FFFCCFC901B0
:1010E00064E670E00E94C9096AE070E00E94C909E4
:1010F000605D6093C6008091C00085FFFCCF40C05A
:101100008091C00085FFFCCFC90160E177E20E94B9
:10111000C909605D6093C6008091C00085FFFCCF67
:10112000C90160E177E20E94C90968EE73E00E949C
:10113000C909605D6093C6008091C00085FFFCCF47
:10114000C90168EE73E00E94C90964E670E00E947C
:10115000C909605D6093C6008091C00085FFFCCF27
:10116000C90164E670E00E94C9096AE070E00E946B
:10117000C909605D6093C6008091C00085FFFCCF07
:10118000C9016AE070E00E94C909805D8093C600D1
:10119000089520E08091EC029091ED02892B09F0F6
:1011A00021E0822F08950F931F93CF93DF938C013B
:1011B000EB01FC0180819181009781F00E949D0AE2
:1011C00028818091EC029091ED02821B910990930D
:1011D000ED028093EC02F801118210821882DF91F7
:1011E000CF911F910F910895EF92FF920F931F934C
:1011F000CF93DF938C017B01EA01FC018081918117
:10120000009711F4188215C00E949D0A2881220FB0
:101210008091EC029091ED02821B91099093ED0276
:101220008093EC02F80111821082C701BE010E9476
:10123000D308DF91CF911F910F91FF90EF90089508
:10124000FF920F931F93CF93DF938C01EB01F42E4A
:10125000FC0180819181642F70E00E94560BF8019F
:1012600091838083009789F088812F2D281B332755
:1012700027FD30958091EC029091ED02820F931F33
:101280009093ED028093EC02F882DF91CF911F9151
:101290000F91FF900895DF92EF92FF920F931F93AB
:1012A000CF93DF938C017B01D42EC42FD0E0CE01ED
:1012B0000E94F009F80191838083009761F080918A
:1012C000EC029091ED028C0F9D1F9093ED028093A4
:1012D000EC02F701D082DF91CF911F910F91FF9027
:1012E000EF90DF900895BF92CF92DF92EF92FF923E
:1012F0000F931F93CF93DF938C017B016A01B22E72
:10130000C22FD0E0CC0FDD1FCE010E94F009F80102
:1013100091838083009779F08091EC029091ED02A7
:101320008C0F911D9093ED028093EC02C701B601E2
:101330004B2D0E944B09DF91CF911F910F91FF9090
:10134000EF90DF90CF90BF9008958091EC02909144
:10135000ED0224E08030920748F0892F869586952B
:1013600090E00E94080888EC92E004C00E940808FF
:1013700086ED92E00E948E070895991B79E004C0E3
:10138000991F961708F0961B881F7A95C9F78095C4
:101390000895AA1BBB1B51E107C0AA1FBB1FA617BC
:1013A000B70710F0A61BB70B881F991F5A95A9F70E
:1013B00080959095BC01CD01089597FB092E0726D5
:1013C0000AD077FD04D0E5DF06D000201AF470952E
:1013D00061957F4F0895F6F7909581959F4F0895F9
:1013E000CF93DF93BC018230910510F462E070E08E
:1013F000A091F002B091F102ED01E0E0F0E040E0F8
:1014000050E021C0888199818617970769F48A8105
:101410009B81309719F09383828304C09093F102EB
:101420008093F002FE0134C06817790738F4411543
:10143000510519F08417950708F4AC01FE018A8163
:101440009B819C01E9012097E9F641155105A9F11D
:10145000CA01861B970B049708F4BA01E0E0F0E09C
:101460002AC08D919C91119784179507F9F4641700
:10147000750781F412968D919C911397309719F00E
:101480009383828304C09093F1028093F002FD0164
:1014900032964FC0CA01861B970BFD01E80FF91F5A
:1014A0006193719302978D939C9343C0FD01828158
:1014B00093819C01D9011097A1F68091EE02909141
:1014C000EF02892B41F48091E4029091E502909320
:1014D000EF028093EE024091E6025091E70241153F
:1014E000510541F44DB75EB78091E2029091E3025D
:1014F000481B590B2091EE023091EF02241735075B
:10150000B0F4CA01821B930B8617970780F0AB01DA
:101510004E5F5F4F8417950750F0420F531F509353
:10152000EF024093EE02F9016193719302C0E0E093
:10153000F0E0CF01DF91CF910895CF93DF93009733
:1015400009F450C0EC0122971B821A82A091F0028C
:10155000B091F102109709F140E050E0AC17BD07DF
:1015600008F1BB83AA83FE0121913191E20FF31FA1
:10157000AE17BF0779F48D919C911197280F391FF1
:101580002E5F3F4F3983288312968D919C9113973C
:101590009B838A834115510571F4D093F102C09366
:1015A000F00220C012968D919C911397AD01009787
:1015B00011F0DC01D3CFFA01D383C28321913191A1
:1015C000E20FF31FCE17DF0769F488819981280F96
:1015D000391F2E5F3F4FFA01318320838A819B811F
:1015E00093838283DF91CF910895A0E0B0E0EBEF89
:1015F000FAE00C946F0CEC01A880B980CA80DB8003
:10160000A114B104C104D10441F484E2A82E89EDEF
:10161000B82E8BE5C82E87E0D82EC601B5012DE186
:1016200033EF41E050E00E944C0C27EA31E440E007
:1016300050E00E942D0C7B018C01C601B5012DE10B
:1016400033EF41E050E00E944C0CCA01B9012CEE8E
:1016500034EF4FEF5FEF0E942D0C6E0D7F1D801F4A
:10166000911F97FF04C0615070408040904868838C
:1016700079838A839B839B013F77C901CDB7DEB70E
:10168000EAE00C948B0C0E94F50A089588EE92E033
:101690000E94F50A0895A0E0B0E08093E8029093DC
:1016A000E902A093EA02B093EB020895A0E0B0E053
:1016B000ECE5FBE00C946D0C8C01009729F4CB0158
:1016C0000E94F0098C01BAC09EEFE92E9FEFF92E1F
:1016D000E00EF11E5801A60EB71EAE14BF0408F4AA
:1016E000ABC08EEF882E8FEF982E8A0C9B1CE701E3
:1016F0004881598146175707B8F04530510508F41D
:101700009DC0CA0104978617970708F497C04250F6
:101710005040461B570BF401518340837983688303
:10172000C5010E949D0A8AC06B01C41AD50AE091C6
:10173000F002F091F102A0E0B0E0C0E0D0E042C0E1
:10174000E815F905A1F5208131812C153D0578F1C9
:10175000C90102968C159D05A8F04E5F5F4F420FA0
:10176000531FE7015983488322813381109729F061
:1017700013963C932E93129761C03093F1022093FD
:10178000F0025CC0225030402C193D093183208387
:10179000109729F01396FC93EE93129704C0F093E0
:1017A000F102E093F002F7017183608347C080810A
:1017B0009181C817D90708F4EC01DF018281938178
:1017C0009C01F901309709F0BBCF400F511F809168
:1017D000EE029091EF0284179507E9F4C617D70738
:1017E000D0F42091E6023091E7022115310541F451
:1017F0002DB73EB78091E2029091E302281B390B8E
:10180000A216B306C8F4B092EF02A092EE02E7016E
:101810007983688313C0CB010E94F009EC01009723
:1018200059F0F70140815181B8010E94240CC80190
:101830000E949D0A8E0102C000E010E0C801CDB7F1
:10184000DEB7ECE00C94890CFB01DC0102C00190D6
:101850000D9241505040D8F70895629FD001739F78
:10186000F001829FE00DF11D649FE00DF11D929F3C
:10187000F00D839FF00D749FF00D659FF00D99277B
:10188000729FB00DE11DF91F639FB00DE11DF91F9F
:10189000BD01CF011124089597FB092E05260ED016
:1018A00057FD04D04BD00AD0001C38F45095409519
:1018B000309521953F4F4F4F5F4F0895F6F7909524
:1018C0008095709561957F4F8F4F9F4F08952F9210
:1018D0003F924F925F926F927F928F929F92AF92C0
:1018E000BF92CF92DF92EF92FF920F931F93CF930D
:1018F000DF93CDB7DEB7CA1BDB0B0FB6F894DEBFA4
:101900000FBECDBF09942A88398848885F846E84C9
:101910007D848C849B84AA84B984C884DF80EE8013
:10192000FD800C811B81AA81B981CE0FD11D0FB61C
:10193000F894DEBF0FBECDBFED010895A1E21A2ECF
:10194000AA1BBB1BFD010DC0AA1FBB1FEE1FFF1F63
:10195000A217B307E407F50720F0A21BB30BE40BB3
:10196000F50B661F771F881F991F1A9469F76095FA
:101970007095809590959B01AC01BD01CF010895B4
:04198000F894FFCF09
:101984000D0A004572726F723A204C656E67746876
:101994007320646F206E6F74206D617463680D0A28
:1019A4000073656E745F7061636B65745F6C656E04
:1019B400203D20002C2072656365697665645F7044
:1019C40061636B65745F6C656E203D2000457272C7
:1019D4006F723A205061636B65747320646F206E7C
:1019E4006F74206D617463680D0A0073656E745FB3
:1019F4007061636B65745B005D203D20002C207278
:101A0400656365697665645F7061636B65745B00CB
:101A14004572726F723A204D656D6F7279206C65F4
:101A2400616B210D0A002D2D2D2D2D2D2D2D2D2DEC
:101A34002D2D2D2D2D2D2D2D2D2D2D2D2D2D2D2DD2
:101A44002D2D2D2D2D2D2D2D2D2D2D2D2D2D2D2DC2
:101A54002D2D2D2D2D2D2D2D2D2D2D2D2D2D0D0AF5
:101A6400004661696C6564203A280D0A0053756369
:101A740063657373203A440D0A0020000D0A002B9D
:101A84002D2D2D2D2D2D2D2D2B2D2D2D2D2D2D2D84
:101A94002D2D2D2D2B2D2D2D2D2D2D2D2D2D2D2D74
:101AA4002D2B2D2D2D2D2D2D2D2D2B002D002B00EF
:101AB4002D2D2D2D2D2D2D2D2D2D2D2D2B2D2D2D54
:101AC4002D2D2D2D2D2B0D0A007C2048656164657C
:101AD40072207C2020436F6E74726F6C20207C20F7
:101AE40041646472657373696E67207C204C656E13
:101AF400677468207C004E4554205061636B6574A4
:101B0400007C002020436865636B73756D20207C26
:101B140020466F6F746572207C0D0A007C202000C3
:101B240020207C2000207C2000202000207C2020FD
:101B3400007C200020202000202020207C20002069
:101B4400207C0D0A00307800204B694220696E2009
:101B54007573650D0A00204220696E207573650D4A
:0C1B64000A002000F20200000100000056
:00000001FF
