:100000000C943E000C945B000C945B000C945B0021
:100010000C945B000C945B000C945B000C945B00F4
:100020000C945B000C945B000C945B000C945B00E4
:100030000C945B000C945B000C945B000C945B00D4
:100040000C945B000C945B000C945B000C945B00C4
:100050000C945B000C945B000C945B000C945B00B4
:100060000C945B000C945B000C945B000C945B00A4
:100070000C945B000C945B000C945B0011241FBE7D
:10008000CFEFD0E1DEBFCDBF15E0A0E0B1E0E6E00C
:10009000F9E102C005900D92A032B107D9F715E041
:1000A000A0E2B5E001C01D92A632B107E1F70E94BF
:1000B0003E010C94810C0C9400006F927F929F92F1
:1000C000AF92BF92CF92DF92EF92FF920F931F9366
:1000D000DF93CF93CDB7DEB77C016DB67EB60E94BD
:1000E000D50B68E170E00E946C0A982E9394892DDC
:1000F00090E02DB73EB7281B390B0FB6F8943EBFE2
:100100000FBE2DBFCDB6DEB60894C11CD11C00E0D9
:1001100010E05C010CC00E94D50BF601E00FF11F4E
:1001200060E071E00E946C0A80830F5F1F4F0A1528
:100130001B0588F380E091E00E9404090C2DBD2C82
:10014000C601692D0E94E901C701B601492D2FEFB3
:100150000E94740610E010C0212F30E0F701828960
:10016000938964897589620F731F220F331F820F71
:10017000931F0E94BA071F5FF7018689181760F363
:1001800082E191E00E940409F7018789908D618DD9
:100190000E94E90186E291E00E940409802F9B2DD4
:1001A000692D0E94E901B7016C5E7F4FA7014A5E8D
:1001B0005F4FC70142960E94DB07F701318D391569
:1001C00011F420E02EC088E391E00E9404098DE53F
:1001D00091E00E940409892D0E94480987E791E077
:1001E0000E9404098AE791E00E940409F701818DC9
:1001F0000E94480987E791E010C0A22FB0E0F70104
:100200008789908D8A0F9B1FAC0DBD1DFC019081CD
:100210008C91981729F084E991E00E9404091AC092
:100220002F5F231750F384EC91E00E940409C7016B
:10023000479629E130E0E20EF31EB7010E94BA07AB
:100240000E94B007882339F088EE91E00E940409EB
:100250000E94D10881E00FB6F8947EBE0FBE6DBE3D
:10026000CF91DF911F910F91FF90EF90DF90CF9092
:10027000BF90AF909F907F906F900895DF92EF9224
:10028000FF920F931F93DF93CF93CDB7DEB76A979B
:100290000FB6F894DEBF0FBECDBF0E94E90888EE0E
:1002A00093E02CE231E0F9013197F1F70197D9F7AA
:1002B0008DEF91E00E9404098E010F5F1F4FC8016E
:1002C0000E94CD01EE24FF24D02E012F8D2D902FE2
:1002D0000E945D00882379F088E392E00E9404097F
:1002E000C70101960E948B098EE392E00E940409E7
:1002F00021E030E01CC082E0E816F10421F488E43B
:1003000092E00E9404090894E11CF11CC7010E94BC
:100310008B098DE492E00E94040987E791E00E9436
:10032000040983E0E816F10489F620E030E0C90111
:100330006A960FB6F894DEBF0FBECDBFCF91DF91A6
:100340001F910F91FF90EF90DF900895FC018DE7D2
:10035000808315821782168282870895FC018DE7BB
:10036000808315821782168282870895FC018DE7AB
:1003700080831582178216828287148613861586DB
:1003800017861686108A138A128A158A148A168A84
:10039000108E178A118E118A0895FC018DE78083D3
:1003A0001582178216828287148613861586178611
:1003B0001686108A138A128A158A148A168A108E53
:1003C000178A118E118A0895681708F4682F862FEE
:1003D00008950F931F93CF93DF93062FEC0110E046
:1003E00007C089910E94110980E20E94FC081F5FEA
:1003F0001017B8F38DE592E00E940409DF91CF91C8
:100400001F910F9108952F923F924F925F926F929A
:100410007F928F929F92AF92BF92CF92DF92EF9294
:10042000FF920F931F93DF93CF93CDB7DEB72B9738
:100430000FB6F894DEBF0FBECDBFDE2CE982FA8284
:100440000B831C83E22F2D83932F3E834F8358878A
:1004500069877A878B87E92E9D2C8F2C702E612ED1
:100460005E2ECF80D884462E372E282E85E0989F8A
:10047000C0011124B82EB3948BE08B1510F09CE0D2
:10048000B92E86EFF82EFB0C0B2D017080E692E062
:100490000E940409EE2059F010E004C08DE20E9491
:1004A000FC081F5F1B15D0F38BE20E94FC088DE84F
:1004B00092E00E94040986EA92E00E940409EE207C
:1004C000F9F0AF2CA69410E00A0D111DFF2404C012
:1004D00080E20E94FC08F3948F2D90E08017910732
:1004E000BCF383ED92E00E94040910E004C080E2B6
:1004F0000E94FC081F5F1A15D0F38CE70E94FC08CD
:100500008EED92E00E94040980E692E00E940409C8
:10051000EE2059F010E004C08DE20E94FC081F5F3D
:100520001B15D0F38BE20E94FC088DE892E00E943C
:10053000040987EF92E00E940409892D0E941109A5
:100540008BEF92E00E940409882D0E94110980E23D
:100550000E94FC08872D0E94110980E093E00E9410
:100560000409862D0E94110984E093E00E94040989
:10057000852D0E94110987E093E00E9404098E2DC9
:100580000E9411098BEF92E00E940409E2E0EE154F
:1005900090F4FC2CC6018C01F80181918F010E941E
:1005A000110980E20E94FC08802F8F198E15A0F39C
:1005B0008CE093E01FC0F2E0EF1679F4F601808141
:1005C0000E94110984E093E00E940409F6018181F0
:1005D0000E94110980E093E00DC0F1E0EF1661F494
:1005E0008FE093E00E940409F60180810E941109C6
:1005F00083E193E00E940409842D0E94110984E0A4
:1006000093E00E940409832D0E94110987E093E082
:100610000E940409822D0E9411098AE193E00E9440
:10062000040980E692E00E940409EE2059F010E0EF
:1006300004C08DE20E94FC081F5F1B15D0F38BE203
:100640000E94FC088DE892E00E9404092B960FB6E8
:10065000F894DEBF0FBECDBFCF91DF911F910F91F8
:10066000FF90EF90DF90CF90BF90AF909F908F90D2
:100670007F906F905F904F903F902F900895CF9212
:10068000DF92EF92FF920F931F93DF93CF93CDB73B
:10069000DEB79C01CDB6DEB6DC0115968C911597C0
:1006A0008B5FE82EFF24EDB7FEB7EE19FF090FB6FA
:1006B000F894FEBF0FBEEDBF0DB71EB70F5F1F4F03
:1006C00011968C911197818312968C91D801119675
:1006D0008C931197F901838112968C9312978481E0
:1006E00013968C931397858114968C9340E010C0D9
:1006F000842F90E0B801680F791FD9011696ED910B
:10070000FC911797E80FF91F8081FB0185834F5FEC
:10071000D90115968C91481758F320E030E040E05D
:1007200050E0A1EFBFEF16C0F801E40FF51FF08114
:10073000E0E02E273F2768E0C901880F991F37FFA7
:1007400004C09C012A273B2701C09C016150A1F7EE
:100750004F5F5F4F4E155F053CF3C9010FB6F8942C
:10076000DEBE0FBECDBECF91DF911F910F91FF90E6
:10077000EF90DF90CF9008950F931F93FC011085A9
:1007800000E08185080F111DCF010E943F0320E08A
:100790000817190709F021E0822F1F910F91089582
:1007A000AF92BF92CF92DF92EF92FF920F931F937F
:1007B000DF93CF9300D00F92CDB7DEB76C011B82D1
:1007C0001A82E2E0EE2EF12CEC0EFD1EDC011D96ED
:1007D0004C914250C7018E010F5F1F4FB8010E941C
:1007E00007084981F601238534852F5F3F4F8A81B1
:1007F0009B81B90150E00E94E50BBB24AE2CEF2C8D
:10080000F02E012F1DC04B2D50E0DF01A40FB51FAE
:100810008C918E37A1F430E0241B350B4F5F5F4F76
:100820004E0F5F1FCD01BA01A9010E94E50B49815E
:1008300041508A2D9E2D6F2D702F0E946108B39418
:100840002981EA81FB81B216F0F28081D6011196EE
:100850008C931197818112968C93129782811396B3
:100860008C931397838114968C93B6016B5F7F4FA3
:10087000C601069644810E940708F60145812A8137
:100880003B812B5F3F4F86819781B90150E00E94E9
:10089000E50BEA81FB818981E80FF11D3297819197
:1008A000D60118968C931897808119968C93CE0157
:1008B0000296BE016F5F7F4F0E94BA070F900F90A4
:1008C0000F90CF91DF911F910F91FF90EF90DF90EC
:1008D000CF90BF90AF9008952F923F924F925F922A
:1008E0006F927F928F929F92AF92BF92CF92DF9240
:1008F000EF92FF920F931F93DF93CF9300D00F924D
:10090000CDB7DEB75C012DB63EB61B821A82DC0184
:1009100015964C91495FCE010296BE016F5F7F4FE5
:100920000E940708EA81FB81D50111968C911197ED
:100930008083EA81FB8112968C9112978183EA81F0
:10094000FB8113968C9113978283EA81FB81149625
:100950008C9114978383EA81FB8115968C91848313
:1009600020E00EC0822F90E0A80FB91FF50146814C
:100970005781480F591FFA01808115968C932F5F7C
:10098000D50115968C91AA81BB81281758F38981CE
:10099000A80FB11D1297F50180858C938981EA819A
:1009A000FB81E80FF11D3197D50119968C91808359
:1009B0009924A2E04A2E512C4C0E5D1E3E01089453
:1009C000611C711CFEE78F2E50C0C92CDD24EA810A
:1009D000FB81EC0DFD1D80818D57823008F044C0F5
:1009E000FDB6EEB64F5FC201B3010E946108E98116
:1009F000F0E0CF018C199D092DB73EB7281B390BAC
:100A00000FB6F8943EBF0FBE2DBF0DB71EB70F5FD8
:100A10001F4FFC012A813B812C0D3D1DC801B901EE
:100A2000AF010E94E50B0894C11CD11C4A815B8177
:100A30004C0D5D1D0894C108D108298130E02C19A6
:100A40003D09CA01B801A9010E94E50BEA81FB81B9
:100A5000EC0DFD1D808293942F2D3E2DC9010FB604
:100A6000F8949EBF0FBE8DBF93944981941608F4ED
:100A7000ACCFB501635F7F4F4E5FC5010B960E94FF
:100A80000708D5011B96ED91FC911C971DE710837B
:100A90001B962D913C911C972F5F3F4F49816A8196
:100AA0007B81C90150E00E94E50BF5018585038437
:100AB000F485E02DE80FF11D31971083CE010296E9
:100AC000BE016F5F7F4F0E94BA070FB6F8943EBE1B
:100AD0000FBE2DBE0F900F900F90CF91DF911F9101
:100AE0000F91FF90EF90DF90CF90BF90AF909F90CD
:100AF0008F907F906F905F904F903F902F900895D0
:100B0000EF92FF920F931F93CF93DF93EC01162F79
:100B1000072F80E293E00E9404094D858B859C8518
:100B2000612F702F50E00E94E50B84E393E00E9458
:100B300004098B859C856D850E94E901CE010E9488
:100B4000D00385E493E00E940409E880F9800A81DB
:100B50001B812C813D814E815F81688579858A85E5
:100B60000E940302BE01635F7F4FCE010B960E947D
:100B7000BA078C8181508E3F18F487E593E00AC054
:100B80008989882351F099818A81981709F4198AF3
:100B900084E993E00E940409A0C0CE010E94BC0336
:100BA0009A81882361F0992339F084ED93E00E94C3
:100BB000040981E0898B91C08BE094E0EBCF99230D
:100BC000F1F485E394E00E9404098E819F816D8198
:100BD0000E94E901BE01675E7F4FCE0147964D81BD
:100BE0000E940708498D6E817F818F89988D50E022
:100BF0000E94E50B8DE592E00E94040968C089819E
:100C00008E01025F1F4FB0E1EB2EF12CEC0EFD1EAA
:100C10008823B9F4C801B7014D810E9407084889AB
:100C20006E817F818E859F8550E00E94E50B87E471
:100C300094E00E9404098E859F8568890E94E901DD
:100C400046C04D818889480FC801B7010E946108DC
:100C50004D81888990E0841B91092E853F85280F5E
:100C6000391F6E817F81C90150E00E94E50B998197
:100C70008A81981718F488E694E002C082E794E02D
:100C80000E94040988E794E00E9404098E859F85EC
:100C900068890E94E90199818A819817C1F4BE018F
:100CA000675E7F4FCE01479648890E9407084889B2
:100CB0006E857F858F89988D50E00E94E50B8DE5CC
:100CC00092E00E940409C801B7010E94BA07CE0150
:100CD00006962596BE010E94BA07DF91CF911F911B
:100CE0000F91FF90EF9008952F923F924F925F9255
:100CF0006F927F928F929F92AF92BF92CF92DF922C
:100D0000EF92FF920F931F93DF93CF93CDB7DEB790
:100D10002F970FB6F894DEBF0FBECDBF6C012887AA
:100D20008DB79EB79E878D8720E0842F90E08770D7
:100D30009070892B09F021E0642E66946694669485
:100D4000620E262D30E0D9011197BF83AE83C90111
:100D5000880F991FEDB7FEB7E81BF90B0FB6F89493
:100D6000FEBF0FBEEDBF8DB79EB701969A878987EC
:100D7000ADB7BEB7A21BB30B0FB6F894BEBF0FBE84
:100D8000ADBFEDB7FEB73196FC87EB8781E090E011
:100D9000821B930B33E0880F991F3A95E1F7480FB8
:100DA000498326E0222E312C2C0C3D1C95E0492E47
:100DB000512C4C0C5D1CC6010B969D838C83D60177
:100DC0001D96BB83AA834B017724B62DB150BF87F4
:100DD000A4C080E994E00E940409A72CBB24EE8102
:100DE000FF81AE16BF0611F4198101C018E0D601CB
:100DF00011967C921197EF851296EC9312971396A9
:100E00001C921397F8851496FC93C101B201412FEF
:100E10000E940708940190E00CC0D6011696ED914F
:100E2000FC911797E90FF11DD9018D919D018083E8
:100E30009F5F911790F3C6010E943F03F6019087D0
:100E4000818782EA94E00E940409D601EC90119611
:100E5000FC90119712960C91129713961C91139770
:100E600014962C91149715963C91159716964C91C3
:100E7000169717965C91179718966C911897199674
:100E80007C9119971A968C910E940302C6010E94C8
:100E90006C0487EB94E00E940409F6018385948535
:100EA00065850E94E901C101B2010E94BA0787EC81
:100EB00094E00E940409D6011B966D917C911C97C9
:100EC000C6011D964C910E9480058501000F111FDF
:100ED000E985FA850E0F1F1F8B859C85A80EB91E0C
:100EE000C801B501D6011D964C910E940708F60174
:100EF000458563857485D8018C9111969C9150E04D
:100F00000E94E50B8C819D816A817B810E94BA07DA
:100F10007394E8E0F0E08E0E9F1E761408F459CF2B
:100F20008D859E850FB6F8949EBF0FBE8DBF2F9600
:100F30000FB6F894DEBF0FBECDBFCF91DF911F91EA
:100F40000F91FF90EF90DF90CF90BF90AF909F9068
:100F50008F907F906F905F904F903F902F9008956B
:100F600020E08091200590912105892B09F021E056
:100F7000822F08950F931F93CF93DF938C01EB0182
:100F8000FC0180819181009781F00E942C0B2881C7
:100F90008091200590912105821B91099093210554
:100FA00080932005F801118210821882DF91CF9181
:100FB0001F910F910895EF92FF920F931F93CF937C
:100FC000DF938C017B01EA01FC0180819181009714
:100FD00011F4188215C00E942C0B2881220F8091D9
:100FE000200590912105821B910990932105809302
:100FF0002005F80111821082C701BE010E94BA07C4
:10100000DF91CF911F910F91FF90EF900895DF92A4
:10101000EF92FF920F931F93CF93DF938C017B018D
:10102000D42EC42FD0E0CE010E947F0AF801918314
:101030008083009761F080912005909121058C0FAD
:101040009D1F9093210580932005F701D082DF91A9
:10105000CF911F910F91FF90EF90DF900895BF9275
:10106000CF92DF92EF92FF920F931F93CF93DF9374
:101070008C017B016A01B22EC22FD0E0CC0FDD1FA4
:10108000CE010E947F0AF80191838083009779F056
:1010900080912005909121058C0F911D9093210541
:1010A00080932005C701B6014B2D0E940708DF91F0
:1010B000CF911F910F91FF90EF90DF90CF90BF9055
:1010C00008957F928F929F92AF92BF92CF92DF92BC
:1010D000EF92FF920F931F93DF93CF93CDB7DEB7BD
:1010E0007C015B01D42E8DB69EB67EB68DB79EB7C1
:1010F000841B91090FB6F8949EBF0FBE8DBF0DB72C
:101100001EB70F5F1F4FF70160817181C80150E06A
:101110000E94E50B8D2D90E00E947F0AF7018083ED
:101120009183B8014D2D50E00E94E50BF7018081BD
:101130009181892BD9F0F50180812D2D281B332732
:1011400027FD30958091200590912105820F931FF6
:101150009093210580932005D082282D372DC90139
:101160000FB6F8949EBF0FBE8DBF08C0882D972D77
:101170009C010FB6F8943EBF0FBE2DBF0FB6F8947A
:101180009EBE0FBE8DBECF91DF911F910F91FF903C
:10119000EF90DF90CF90BF90AF909F908F907F9017
:1011A0000895809120059091210524E080309207D8
:1011B00048F0892F8695869590E00E948B098FEEE6
:1011C00094E004C00E948B098DEF94E00E94040912
:1011D00008951092C5008DE48093C40088E1809347
:1011E000C10086E08093C20008958091C00087FF0F
:1011F000FCCF8091C6000895982F8091C00085FF94
:10120000FCCF9093C6000895FC0107C08091C000F8
:1012100085FFFCCF9093C600319690819923B1F75A
:1012200008951F93182F8D3719F489E095E004C0B5
:101230008E3729F48EE095E00E94040927C083E1EF
:1012400095E00E940409912F92959F70212F2F7095
:101250009A3030F48091C00085FFFCCF905D05C0CE
:101260008091C00085FFFCCF995C9093C6002A3026
:1012700030F48091C00085FFFCCF205D05C08091D7
:10128000C00085FFFCCF295C2093C6001F91089504
:10129000282F8A3040F48091C00085FFFCCF205D6C
:1012A0002093C6000895843680F48091C00085FFA5
:1012B000FCCF822F6AE00E944C0A805D8093C600BA
:1012C0008091C00085FFFCCF1EC08091C00085FFCB
:1012D000FCCF822F64E60E944C0A805D8093C6009A
:1012E0008091C00085FFFCCF822F64E60E944C0AEB
:1012F000892F6AE00E944C0A805D8093C60080912D
:10130000C00085FFFCCF822F6AE00E944C0A905DEE
:101310009093C60008959C018A30910530F4809125
:10132000C00085FFFCCF822FB3C08436910588F4BE
:101330008091C00085FFFCCFC9016AE070E00E9487
:10134000580A605D6093C6008091C00085FFFCCFA5
:101350009AC083E0283E380708F58091C00085FFD9
:10136000FCCFC90164E670E00E94580A605D60939A
:10137000C6008091C00085FFFCCFC90164E670E023
:101380000E94580A6AE070E00E94580A605D60930B
:10139000C6008091C00085FFFCCF75C087E2203178
:1013A000380788F58091C00085FFFCCFC90168EE41
:1013B00073E00E94580A605D6093C6008091C0008F
:1013C00085FFFCCFC90168EE73E00E94580A64E60D
:1013D00070E00E94580A605D6093C6008091C00072
:1013E00085FFFCCFC90164E670E00E94580A6AE0FC
:1013F00070E00E94580A605D6093C6008091C00052
:1014000085FFFCCF40C08091C00085FFFCCFC901A3
:1014100060E177E20E94580A605D6093C6008091A7
:10142000C00085FFFCCFC90160E177E20E94580A45
:1014300068EE73E00E94580A605D6093C600809178
:10144000C00085FFFCCFC90168EE73E00E94580A16
:1014500064E670E00E94580A605D6093C600809167
:10146000C00085FFFCCFC90164E670E00E94580A05
:101470006AE070E00E94580A605D6093C600809147
:10148000C00085FFFCCFC9016AE070E00E94580AE5
:10149000805D8093C6000895991B79E004C0991F70
:1014A000961708F0961B881F7A95C9F780950895BE
:1014B000AA1BBB1B51E107C0AA1FBB1FA617B7077A
:1014C00010F0A61BB70B881F991F5A95A9F7809596
:1014D0009095BC01CD01089597FB092E07260AD0EF
:1014E00077FD04D0E5DF06D000201AF470956195F1
:1014F0007F4F0895F6F7909581959F4F0895CF936C
:10150000DF93BC018230910510F462E070E0A0919D
:101510002405B0912505ED01E0E0F0E040E050E069
:1015200021C0888199818617970769F48A819B81F8
:10153000309719F09383828304C09093250580939C
:101540002405FE0134C06817790738F441155105A8
:1015500019F08417950708F4AC01FE018A819B817C
:101560009C01E9012097E9F641155105A9F1CA014D
:10157000861B970B049708F4BA01E0E0F0E02AC05C
:101580008D919C91119784179507F9F4641775074D
:1015900081F412968D919C911397309719F0938353
:1015A000828304C09093250580932405FD01329623
:1015B0004FC0CA01861B970BFD01E80FF91F61930D
:1015C000719302978D939C9343C0FD018281938117
:1015D0009C01D9011097A1F68091220590912305D5
:1015E000892B41F48091180590911905909323055A
:1015F0008093220540911A0550911B054115510514
:1016000041F44DB75EB78091160590911705481BC0
:10161000590B209122053091230524173507B0F48A
:10162000CA01821B930B8617970780F0AB014E5FB0
:101630005F4F8417950750F0420F531F50932305B7
:1016400040932205F9016193719302C0E0E0F0E05C
:10165000CF01DF91CF910895CF93DF93009709F4E5
:1016600050C0EC0122971B821A82A0912405B091F0
:101670002505109709F140E050E0AC17BD0708F1CF
:10168000BB83AA83FE0121913191E20FF31FAE17B4
:10169000BF0779F48D919C911197280F391F2E5F08
:1016A0003F4F3983288312968D919C9113979B838A
:1016B0008A834115510571F4D0932505C093240503
:1016C00020C012968D919C911397AD01009711F057
:1016D000DC01D3CFFA01D383C28321913191E20F90
:1016E000F31FCE17DF0769F488819981280F391F0E
:1016F0002E5F3F4FFA01318320838A819B81938340
:101700008283DF91CF910895A0E0B0E0EAE8FBE0AA
:101710000C94300CEC01A880B980CA80DB80A11445
:10172000B104C104D10441F484E2A82E89EDB82E9D
:101730008BE5C82E87E0D82EC601B5012DE133EF29
:1017400041E050E00E940D0C27EA31E440E050E017
:101750000E94EE0B7B018C01C601B5012DE133EF38
:1017600041E050E00E940D0CCA01B9012CEE34EFAB
:101770004FEF5FEF0E94EE0B6E0D7F1D801F911FDC
:1017800097FF04C06150704080409048688379831F
:101790008A839B839B013F77C901CDB7DEB7EAE01F
:1017A0000C944C0C0E94840B08958CE195E00E94EF
:1017B000840B0895A0E0B0E080931C0590931D0574
:1017C000A0931E05B0931F050895FB01DC0102C024
:1017D00001900D9241505040D8F70895629FD0017A
:1017E000739FF001829FE00DF11D649FE00DF11DDC
:1017F000929FF00D839FF00D749FF00D659FF00D8B
:101800009927729FB00DE11DF91F639FB00DE11D77
:10181000F91FBD01CF011124089597FB092E05265C
:101820000ED057FD04D04BD00AD0001C38F4509590
:101830004095309521953F4F4F4F5F4F0895F6F7F4
:1018400090958095709561957F4F8F4F9F4F08952C
:101850002F923F924F925F926F927F928F929F92C0
:10186000AF92BF92CF92DF92EF92FF920F931F93AE
:10187000CF93DF93CDB7DEB7CA1BDB0B0FB6F8945F
:10188000DEBF0FBECDBF09942A88398848885F849F
:101890006E847D848C849B84AA84B984C884DF8010
:1018A000EE80FD800C811B81AA81B981CE0FD11DF4
:1018B0000FB6F894DEBF0FBECDBFED010895A1E2D3
:1018C0001A2EAA1BBB1BFD010DC0AA1FBB1FEE1FBA
:1018D000FF1FA217B307E407F50720F0A21BB30B05
:1018E000E40BF50B661F771F881F991F1A9469F781
:1018F00060957095809590959B01AC01BD01CF01DD
:061900000895F894FFCFEA
:1019060053656E64696E67207061636B65743A2017
:1019160020000D0A5265636569766564207061630F
:101926006B65743A200053656E7420202020207069
:1019360061636B65743A20004572726F723A20508B
:1019460061636B6574206C656E6774687320646F81
:10195600206E6F74206D617463680D0A0053656EA6
:101966007420202020207061636B6574206C656E86
:10197600677468203D20000D0A005265636569762C
:101986006564207061636B6574206C656E6774684E
:10199600203D20004572726F723A2053656E7420A6
:1019A600616E642072656365697665642070616343
:1019B6006B65747320646F206E6F74206D61746341
:1019C600680D0A0053656E7420616E64207265634B
:1019D6006569766564207061636B657473206D61FB
:1019E6007463680D0A0D0A004572726F723A204DD3
:1019F600656D6F7279206C65616B0D0A002D2D2D5A
:101A06002D2D2D2D2D2D2D2D2D2D2D2D2D2D2D2D00
:101A16002D2D2D2D2D2D2D2D2D2D2D2D2D2D2D2DF0
:101A26002D2D2D2D2D2D2D2D2D2D2D2D2D2D2D2DE0
:101A36002D2D2D2D2D0D0A00546573742000206662
:101A460061696C65640D0A00416C6C200020746548
:101A5600737473207061737365640D0A000D0A0058
:101A66002B2D2D2D2D2D2D2D2D2B2D2D2D2D2D2DA4
:101A76002D2D2D2D2D2B2D2D2D2D2D2D2D2D2D2D92
:101A86002D2D2B2D2D2D2D2D2D2D2D2B002D2D2DB1
:101A96002D2D2D2D2D2D2D2D2D2B2D2D2D2D2D2D72
:101AA6002D2D2B0D0A007C20486561646572207C13
:101AB6002020436F6E74726F6C20207C204164641A
:101AC60072657373696E67207C204C656E677468F7
:101AD600207C004E4554205061636B6574002020C5
:101AE600436865636B73756D20207C20466F6F7449
:101AF6006572207C0D0A007C20200020207C2000BE
:101B0600207C2000202000207C2020007C2000203B
:101B1600202000202020207C200020207C0D0A0090
:101B26000D0A524543454956494E47204652414DB6
:101B3600450D0A0053747566666564206672616DAC
:101B4600653A0D0A005265636569766564206672BA
:101B5600616D653A0D0A0044726F7070696E672098
:101B66006672616D653A2044657374696E61746965
:101B76006F6E206164647265737320646F65732091
:101B86006E6F74206D617463682064657669636541
:101B9600730D0A0044726F7070696E672066726119
:101BA6006D653A204572726F722064657465637460
:101BB600656420696E2070726576696F757320732F
:101BC600706C6974207061636B6574206672616DF8
:101BD600650D0A0044726F7070696E6720667261E7
:101BE6006D653A204572726F722064657465637420
:101BF600656420696E2073706C6974207061636B14
:101C06006574206672616D650D0A0044726F7070AE
:101C1600696E67206672616D653A204572726F72F1
:101C260020646574656374656420696E20667261FC
:101C36006D650D0A0052656365697665642070619D
:101C4600636B65743A20005061727469616C6C79DB
:101C5600207265636F6E7374727563746564207049
:101C660061636B65743A20005061727469616C6CD3
:101C7600790046756C6C7900207265636F6E7374BB
:101C8600727563746564207061636B65743A2000D5
:101C96000D0A53454E44494E47204652414D450D87
:101CA6000A00436F6E73747275637465642066729E
:101CB600616D653A0D0A0053747566666564206643
:101CC60072616D653A200050617373696E672066B4
:101CD60072616D6520746F207669727475616C200F
:101CE600444C4C2072656365697665720D0A002066
:101CF6004B694220696E207573650D0A00204220EB
:101D0600696E207573650D0A00464C4147002045F3
:101D16005343003078002000260500000100000033
:00000001FF
