:100000000C943E000C945B000C945B000C945B0021
:100010000C945B000C945B000C945B000C945B00F4
:100020000C945B000C945B000C945B000C945B00E4
:100030000C945B000C945B000C945B000C945B00D4
:100040000C945B000C945B000C945B000C945B00C4
:100050000C945B000C945B000C945B000C945B00B4
:100060000C945B000C945B000C945B000C945B00A4
:100070000C945B000C945B000C945B0011241FBE7D
:10008000CFEFD0E1DEBFCDBF14E0A0E0B1E0ECE304
:10009000FFE102C005900D92A636B107D9F714E032
:1000A000A6E6B4E001C01D92AC36B107E1F70E94AC
:1000B00049010C949C0F0C940000CF92DF92EF92B8
:1000C000FF920F931F93DF93CF93CDB7DEB7A09727
:1000D0000FB6F894DEBF0FBECDBF8E01075F1F4F76
:1000E000C8010E94A9016E010894C11CD11C7601AF
:1000F0008E2D8C19F70180830E94220E62E070E041
:100100000E94B90C8358F70181937F01E017F10732
:1001100079F7CF01BE016F5F7F4F48E02FEF0E945C
:10012000D206FF2493E0E92E89E0C82ED12CCC0E14
:10013000DD1E1CC0FE9C80011124EF89F88DE00FAC
:10014000F11F60817181C60142810E94D80580E063
:1001500091E00E9413088BE191E00E9413088F89BF
:10016000988D800F911F0E947009F394898DF81665
:1001700008F38EE191E00E9413088BE191E00E9468
:100180001308CE014796BE01675E7F4F0E94A50906
:100190008C8D883099F08EE291E00E9413088CE4F7
:1001A00091E00E94130888E00E944A0882E691E0EC
:1001B0000E9413088C8D0E944A0837C02A8D3B8DFF
:1001C00000E010E0AE014F5F5F4FF901E00FF11F5B
:1001D0007A01E00EF11E9081F7018081981769F194
:1001E00081E891E00E9413088FE991E00E941308D2
:1001F000802F0E944A0880EB91E00E941308F701CB
:1002000080810E94200885EB91E00E941308802FD6
:100210000E944A0880EB91E00E941308EA8DFB8D52
:10022000E00FF11F80810E9420088EE791E00E947C
:10023000130881E090E00E949C0F0F5F1F4F083071
:10024000110519F68CEC91E00E9413088BE191E006
:100250000E941308CE014A960E9470090E944E091E
:10026000882339F080EE91E00E9413080E9458091B
:10027000E0CF80E0A0960FB6F894DEBF0FBECDBFF2
:10028000CF91DF911F910F91FF90EF90DF90CF9072
:1002900008950E94F80788EE93E02CE231E0F9011E
:1002A0003197F1F70197D9F786EF91E00E94130893
:1002B0000E945D00882339F081E392E00E941308D8
:1002C00021E030E006C08DE392E00E94130820E0B8
:1002D00030E0C901089580E00895FC018DE7808336
:1002E00015821782168282870895FC018DE780832C
:1002F00015821782168282870895FC01118210826E
:1003000012820895FC011182108212820895DF93F7
:10031000CF9300D00F92CDB7DEB7FC018DE780837D
:100320001582178216828287148613861586128A92
:10033000118A138A158A148A168ACE010196978724
:100340008687108A178A0F900F900F90CF91DF91B8
:100350000895DF93CF9300D00F92CDB7DEB7FC01A5
:100360008DE7808315821782168282871486138612
:100370001586128A118A138A158A148A168ACE0162
:10038000019697878687108A178A0F900F900F9093
:10039000CF91DF910895681708F4682F862F08958C
:1003A0000F931F93CF93DF93062FEC0110E008C04B
:1003B00089910E9420088AE492E00E9413081F5F3E
:1003C0001017B0F38CE492E00E941308DF91CF91F4
:1003D0001F910F910895EF92FF920F931F93DF9358
:1003E000CF9300D00F92CDB7DEB769837A838B832A
:1003F000082FE980FA8010E00AC0F70181917F019F
:100400000E9420088AE492E00E9413081F5F1017E0
:10041000A0F38CE492E00E9413080F900F900F90CD
:10042000CF91DF911F910F91FF90EF9008952F9240
:100430003F924F925F926F927F928F929F92AF9274
:10044000BF92CF92DF92EF92FF920F931F93DF93B1
:10045000CF93CDB7DEB72B970FB6F894DEBF0FBEA4
:10046000CDBFDE2CE982FA820B831C83E22F2D8321
:10047000932F3E834F83588769877A878B87E92E2E
:100480009D2C8F2C702E612E5E2ECF80D884462E10
:10049000372E282E85E0989FC0011124B82EB394E2
:1004A0008BE08B1510F09CE0B92E86EFF82EFB0C3C
:1004B0000B2D01708FE492E00E941308EE2069F08A
:1004C00010E005C08CE792E00E9413081F5F1B1527
:1004D000C8F38EE792E00E94130880E892E00E9441
:1004E000130889E992E00E941308EE2011F1AF2C65
:1004F000A69410E00A0D111DFF2405C08AE492E0C5
:100500000E941308F3948F2D90E080179107B4F3A5
:1005100086EC92E00E94130810E005C08AE492E0A5
:100520000E9413081F5F1A15C8F381ED92E00E9424
:10053000130883ED92E00E9413088FE492E00E947A
:100540001308EE2069F010E005C08CE792E00E94ED
:1005500013081F5F1B15C8F38EE792E00E94130873
:1005600080E892E00E9413088CEE92E00E9413084B
:10057000892D0E94200880EF92E00E941308882DA8
:100580000E9420088AE492E00E941308872D0E94AE
:10059000200885EF92E00E941308862D0E94200813
:1005A00089EF92E00E941308852D0E9420088CEFAD
:1005B00092E00E9413088E2D0E94200880EF92E0A6
:1005C0000E941308E2E0EE1598F4FC2CC6018C01A1
:1005D000F80181918F010E9420088AE492E00E9434
:1005E0001308802F8F198E1598F381E093E01FC0B8
:1005F000F2E0EF1679F4F60180810E94200889EF7D
:1006000092E00E941308F60181810E94200885EF84
:1006100092E00DC0F1E0EF1661F484E093E00E94F7
:100620001308F60180810E94200888E093E00E9470
:100630001308842D0E94200889EF92E00E9413087D
:10064000832D0E9420088CEF92E00E941308822DD7
:100650000E9420088FE093E00E9413088FE492E04C
:100660000E941308EE2069F010E005C08CE792E0CC
:100670000E9413081F5F1B15C8F38EE792E00E94CB
:10068000130880E892E00E9413082B960FB6F894A6
:10069000DEBF0FBECDBFCF91DF911F910F91FF90B5
:1006A000EF90DF90CF90BF90AF909F908F907F9012
:1006B0006F905F904F903F902F900895AF92BF92B0
:1006C000CF92DF92EF92FF920F931F93DF93CF931E
:1006D000CDB7DEB7AC01CDB6DEB6DC0115968C9198
:1006E0001597895F082F10E078010894E108F10858
:1006F000EDB7FEB7E01BF10B0FB6F894FEBF0FBECF
:10070000EDBF2DB73EB72F5F3F4F11968C911197DC
:10071000818312968C91D90111968C931197FA01CD
:10072000838112968C931297848113968C931397DE
:10073000858114968C9360E010C0862F90E059015B
:10074000A80EB91EDA011696ED91FC911797E80FE5
:10075000F91F8081F50185836F5FDA0115968C9111
:10076000681758F3D8011297F901EA0FFB1F10829E
:10077000F901EE0DFF1D1082F80163E0EE0FFF1F7F
:100780006A95E1F760E001C06F5F862F90E08E17F9
:100790009F07D4F3A20FB31F8C91FA0180872E0D0F
:1007A0003F1DD9018C9181870FB6F894DEBE0FBE34
:1007B000CDBECF91DF911F910F91FF90EF90DF9011
:1007C000CF90BF90AF9008958F929F92AF92BF92BB
:1007D000CF92DF92EF92FF920F931F93DF93CF930D
:1007E00000D000D000D0CDB7DEB75C014C835D8374
:1007F0006E83962ECC80DD801B821A8285E193E089
:100800000E9413088DE193E00E9413088E010E5F91
:100810001F4F8EEF980EC8017E010894E11CF11C59
:10082000B701492D0E94C00B49810894C11CD11CFD
:100830008A819B81B60150E00E94000FCC24802E5B
:10084000D12E9E2CEF2C70E2F72E35C00C2D10E02F
:10085000E00FF11F80818E3769F585E193E00E94FA
:1008600013088DE193E00E94130849814150882DBF
:100870009D2D692D7E2D0E94E80A4A815B81BA0177
:10088000600F711F298130E02F5F3F4F201B310B1C
:100890000F5F1F4F400F511F01501040CB01BA0195
:1008A000A9010E94000FEA81FB81E00FF11F808106
:1008B0008F258083C3948981EA81FB81C81630F239
:1008C0008DE7D5018C9315961C92159717961C925F
:1008D0001E9216971A968C931A97808111968C9374
:1008E0001197818112968C931297828113968C9323
:1008F0001397838114968C9380E293E00E941308EF
:100900008DE193E00E941308B5016B5F7F4FEA8190
:10091000FB81C501069644810E94C00BF50145810B
:100920002A813B812B5F3F4F86819781B90150E03F
:100930000E94000FEA81FB818981E80FF11D329747
:100940008191D50118968C931897808119968C9374
:1009500085E193E00E9413088DE193E00E94130863
:10096000CE010296BE016F5F7F4F0E94E709C5016D
:1009700026960FB6F894DEBF0FBECDBFCF91DF91A4
:100980001F910F91FF90EF90DF90CF90BF90AF90AD
:100990009F908F9008957F928F929F92AF92BF9277
:1009A000CF92DF92EF92FF920F931F93DF93CF933B
:1009B000CDB7DEB764970FB6F894DEBF0FBECDBFDC
:1009C000EA86EF2CFB86F02E0C87012F1D87122F55
:1009D0002E87932F3F87488B598B6A8B7B8B8C8B11
:1009E000D92EA888B988C62E972E1B821A8285E137
:1009F00093E00E9413088DE193E00E9413084D2DAF
:100A0000495FCE010296BE016F5F7F4F0E94C00B0F
:100A1000EA81FB81E082EA81FB81F182EA81FB814C
:100A20000283EA81FB811383EA81FB81D48220E087
:100A300030E00AC0A20FB31FF501E20FF31F80815F
:100A400015968C932F5F3F4FAA81BB812D1590F394
:100A50008981A80FB11D1297CC928981EA81FB810F
:100A6000E80FF11D31979082DD2402E0802E912C59
:100A70008C0E9D1E5E010894A11CB11C1EE7712EF8
:100A8000B0E2CB2E39C0ED2CFF24EA81FB81EE0DC4
:100A9000FF1D80818D57823070F585E193E00E94C3
:100AA00013088DE193E00E94130849814F5FC40150
:100AB000B5010E94E80A4A815B8187010F5F1F4FE1
:100AC000BA01600F711F298130E02E193F094E0DC8
:100AD0005F1DCB01BA01A9010E94000FEA81FB81D1
:100AE000EE0DFF1D7082EA81FB81E00FF11F808116
:100AF0008C258083D394D3948981D81620F21D82CB
:100B00001C821E8281E393E00E9413088DE193E032
:100B10000E9413088E010C5F1F4F69816E5FC80130
:100B20000E94410BEC81FD81ADE7FA2EF0822C8111
:100B30003D812F5F3F4F49816A817B81C90150E030
:100B40000E94000F8E81EC81FD81E80FF11D31972D
:100B5000F08285E193E00E9413088DE193E00E940A
:100B60001308CE010296BE016F5F7F4F0E94E70916
:100B7000DE011796F80183E001900D928150E1F7B4
:100B80006F817885898590E064960FB6F894DEBF12
:100B90000FBECDBFCF91DF911F910F91FF90EF90CE
:100BA000DF90CF90BF90AF909F908F907F900895EF
:100BB000AF92BF92CF92DF92FF920F931F93DF937A
:100BC000CF93CDB7DEB72B970FB6F894DEBF0FBE2D
:100BD000CDBF6C01062FF72E142F81E393E00E9406
:100BE00013088DE193E00E9413088BE0A82EB12C2E
:100BF000AC0CBD1CC501612F0E94410BF60145855F
:100C000083859485602F7F2D50E00E94000F8E0118
:100C10000F5F1F4FC801F6014385548565850E940B
:100C2000E403D601F8018BE001900D928150E1F7C9
:100C300081E393E00E9413088DE193E00E94130882
:100C4000C5010E947009F601848181508E3F08F42D
:100C500098C08281882321F08789882309F091C078
:100C6000F601178A82818823A9F48FE393E00E941A
:100C700013088DE193E00E941308C6014196F60126
:100C800065810E94410BF6014389668177818189E4
:100C900092891AC0F601818186010C5E1F4F88235C
:100CA000B9F48FE493E00E9413088DE193E00E9471
:100CB0001308C801F60165810E94410BF6014689BF
:100CC000668177818489958950E00E94000F46C033
:100CD0008FE493E00E9413088DE193E00E941308D3
:100CE000F60165818689680FC8010E94230AF60112
:100CF0004581868990E0841B910924893589280FD4
:100D0000391F66817781C90150E00E94000FF6010A
:100D100091818281981711F58FE393E00E94130867
:100D20008DE193E00E941308C6014196F6016689A1
:100D30000E94410BF60146896489758981899289EF
:100D400050E00E94000F8FE493E00E9413088DE1B1
:100D500093E00E941308C8010E94700980E293E0AA
:100D60000E9413088DE193E00E941308C6010696C5
:100D700025E030E0C20ED31EB6010E94E70980E0F4
:100D800001C081E02B960FB6F894DEBF0FBECDBF39
:100D9000CF91DF911F910F91FF90DF90CF90BF9087
:100DA000AF9008952F923F924F925F926F927F92F1
:100DB0008F929F92AF92BF92CF92DF92EF92FF926B
:100DC0000F931F93DF93CF93CDB7DEB727970FB65F
:100DD000F894DEBF0FBECDBF9F838E83062FF72E04
:100DE000142F2C83442309F4EAC020E0842F90E0E0
:100DF00087709070892B09F021E0812E869486946B
:100E00008694820E84E693E00E9413088DE193E0BD
:100E10000E9413086E817F81605F7F4F8E819F816A
:100E20000E96482D0E947D0B482D50E081E090E009
:100E3000841B950B63E0880F991F6A95E1F7180FE3
:100E4000198336E0432E512C8E819F81480E591E06
:100E500025E0622E712C680E791E0B969B838A8387
:100E6000202F3F2DC9015C019924CC24DD241A01D7
:100E7000089421083108982D91509D839DC0892D9B
:100E800090E08215930511F018E001C01981AE8140
:100E9000BF8111969C921197ED811296EC93129757
:100EA00013961C921397FC811496FC9380E293E0B6
:100EB0000E9413088DE193E00E941308C201B30160
:100EC000412F0E94C00B950190E00DC0AE81BF8103
:100ED0001696ED91FC911797E90FF11DD9018D91AF
:100EE0009D0180839F5F911788F38E819F810E946F
:100EF0005E03EE81FF81E080F18002811381248115
:100F00003581468157816085718582850E94CB0439
:100F1000AE81BF811B966C931B971C967C931C978C
:100F20001D968C9380E793E00E9413088DE193E077
:100F30000E941308EE81FF81668577856C0D7D1D0B
:100F4000CB016E5F7F4F45850E94C00BAE81BF8194
:100F50001E96ED91FC911F97EC0DFD1D1D964C9179
:100F60001D971B966C911B971C967C91808191819B
:100F700050E00E94000F80E293E00E9413088DE190
:100F800093E00E941308C201B3010E94E70981E3C4
:100F900093E00E9413088DE193E00E9413088A8178
:100FA0009B810E9470099394E3E0F0E0CE0EDF1E77
:100FB00088E090E0A80EB91E981408F460CF279638
:100FC0000FB6F894DEBF0FBECDBFCF91DF911F915A
:100FD0000F91FF90EF90DF90CF90BF90AF909F90D8
:100FE0008F907F906F905F904F903F902F900895DB
:100FF0001092C5008DE48093C40088E18093C10005
:1010000086E08093C20008958091C00087FFFCCFE6
:101010008091C6000895982F8091C00085FFFCCF75
:101020009093C6000895FC0107C08091C00085FF21
:10103000FCCF9093C600319690819923B1F7089523
:101040001F93182F82E993E00E941308912F929525
:101050009F701F709A3030F48091C00085FFFCCFE4
:10106000905D05C08091C00085FFFCCF995C909396
:10107000C6001A3030F48091C00085FFFCCF105DAF
:1010800005C08091C00085FFFCCF195C1093C6009D
:101090001F910895282F8A3040F48091C00085FF69
:1010A000FCCF205D2093C6000895843680F48091A3
:1010B000C00085FFFCCF822F6AE00E94990C805D02
:1010C0008093C6008091C00085FFFCCF1EC0809138
:1010D000C00085FFFCCF822F64E60E94990C805DE2
:1010E0008093C6008091C00085FFFCCF822F64E60C
:1010F0000E94990C892F6AE00E94990C805D809370
:10110000C6008091C00085FFFCCF822F6AE00E945C
:10111000990C905D9093C60008959C018A309105CA
:1011200030F48091C00085FFFCCF822FB3C084369D
:10113000910588F48091C00085FFFCCFC9016AE069
:1011400070E00E94A50C605D6093C6008091C000B5
:1011500085FFFCCF9AC083E0283E380708F58091D0
:10116000C00085FFFCCFC90164E670E00E94A50CB9
:10117000605D6093C6008091C00085FFFCCFC9010F
:1011800064E670E00E94A50C6AE070E00E94A50C85
:10119000605D6093C6008091C00085FFFCCF75C084
:1011A00087E22031380788F58091C00085FFFCCFA9
:1011B000C90168EE73E00E94A50C605D6093C600F3
:1011C0008091C00085FFFCCFC90168EE73E00E94EA
:1011D000A50C64E670E00E94A50C605D6093C600FB
:1011E0008091C00085FFFCCFC90164E670E00E94D9
:1011F000A50C6AE070E00E94A50C605D6093C600DB
:101200008091C00085FFFCCF40C08091C00085FF69
:10121000FCCFC90160E177E20E94A50C605D60939C
:10122000C6008091C00085FFFCCFC90160E177E274
:101230000E94A50C68EE73E00E94A50C605D6093AF
:10124000C6008091C00085FFFCCFC90168EE73E045
:101250000E94A50C64E670E00E94A50C605D60939E
:10126000C6008091C00085FFFCCFC90164E670E034
:101270000E94A50C6AE070E00E94A50C605D60937E
:10128000C6008091C00085FFFCCFC9016AE070E014
:101290000E94A50C805D8093C600089520E0809197
:1012A000660490916704892B09F021E0822F08954C
:1012B000809166049091670424E08030920748F0A2
:1012C000892F8695869590E00E948D0885E993E0A8
:1012D00004C00E948D0883EA93E00E9413080895D9
:1012E0001F93CF93DF93EC0188819981009729F4B4
:1012F0008FEA93E00E94130823C00E94790D1A819F
:101300008091660490916704811B91099093670412
:101310008093660488ED93E00E9413088A810E94FE
:101320004A0885EE93E00E941308812F0E944A0824
:101330008FEE93E00E9413080E94580919821882C8
:101340001A82DF91CF911F910895EF92FF920F9330
:101350001F93CF93DF937C01EB01FC01808191818E
:10136000009729F48FEA93E00E94130828C00E9496
:10137000790D088183E0089F800111248091660423
:1013800090916704801B9109909367048093660491
:1013900088ED93E00E941308802F0E944A0885EE92
:1013A00093E00E941308802F0E944A088FEE93E07A
:1013B0000E9413080E945809F701118210821882B6
:1013C000DF91CF911F910F91FF90EF900895EF92D1
:1013D000FF921F93CF93DF937C01EB01FC0180818F
:1013E0009181009729F48FEA93E00E94130824C0AA
:1013F0000E94790D18818091660490916704811B89
:101400009109909367048093660488ED93E00E94AD
:101410001308812F0E944A0885EE93E00E9413086A
:10142000812F0E944A088FEE93E00E9413080E94C9
:101430005809F701118210821882DF91CF911F9114
:10144000FF90EF9008950F931F93CF93DF93EC01DC
:10145000062F8881998170E00E94320E99838883DB
:10146000009729F483EF93E00E94130831C08A812A
:10147000102F181B212F332727FD309580916604EC
:1014800090916704820F931F909367048093660482
:101490008AE094E00E9413088A810E944A088CE145
:1014A00094E00E941308802F0E944A0881E294E091
:1014B0000E9413088AE294E00E941308812F0E9480
:1014C0004A088FEE93E00E9413080E9458090A838D
:1014D000DF91CF911F910F910895AF92BF92CF925C
:1014E000DF92EF92FF920F931F93CF93DF938C01C4
:1014F000EB01B42E33E0A32E4A9D60011124FC01C0
:1015000080819181B6010E94320EF801918380831F
:10151000009729F483EF93E00E9413084EC0EB2C50
:10152000FF2488819701281B3109C9018901000F17
:10153000111F080F191F102F202F332727FD30955B
:101540008091660490916704820F931F90936704C3
:10155000809366048AE094E00E94130888818A9D43
:10156000802D11240E944A088CE194E00E94130807
:101570008C2D0E944A0881E294E00E94130807FF24
:101580000EC08CE294E00E941308888190E08E19CE
:101590009F099C01220F331F122F180F04C08AE2EB
:1015A00094E00E941308812F0E944A088FEE93E076
:1015B0000E9413080E945809B882DF91CF911F91B1
:1015C0000F91FF90EF90DF90CF90BF90AF90089574
:1015D000FF920F931F93CF93DF938C01EB01F42EB7
:1015E000FC0180819181642F70E00E94320EF8012D
:1015F00091838083009729F483EF93E00E9413087E
:101600003AC088810F2D081B202F332727FD3095E6
:101610008091660490916704820F931F90936704F2
:10162000809366048AE094E00E94130888810E94F7
:101630004A088CE194E00E9413088F2D0E944A080A
:1016400081E294E00E94130807FF07C08CE294E057
:101650000E94130808810F1904C08AE294E00E94D6
:101660001308802F0E944A088FEE93E00E9413080F
:101670000E945809F882DF91CF911F910F91FF903E
:101680000895EF92FF921F93CF93DF937C01162F63
:10169000C62FD0E0CE010E94CC0CF701918380834D
:1016A000009729F48EE294E00E94130820C08091F4
:1016B0006604909167048C0F9D1F9093670480933C
:1016C000660483E494E00E941308812F0E944A0874
:1016D0008EE494E00E941308812F0E944A088FEE46
:1016E00093E00E9413080E945809F7011283DF91CA
:1016F000CF911F91FF90EF900895DF92EF92FF92AC
:101700000F931F93CF93DF938C017B01D42E83E043
:10171000489FE0011124CE010E94CC0CF801918376
:101720008083009729F48EE294E00E94130820C081
:1017300080916604909167048C0F911D90936704CB
:101740008093660483E494E00E9413088C2F0E9427
:101750004A088EE494E00E9413088C2F0E944A08E5
:101760008FEE93E00E9413080E945809F701D0827F
:10177000DF91CF911F910F91FF90EF90DF9008952F
:10178000CF92DF92FF920F931F93CF93DF938C0141
:101790006B01F42EC42FD0E0CE010E94CC0CF801D6
:1017A00091838083009729F48EE294E00E941308CD
:1017B00020C080916604909167048C0F9D1F9093C8
:1017C00067048093660483E494E00E9413088F2DDD
:1017D0000E944A088EE494E00E9413088F2D0E9414
:1017E0004A088FEE93E00E9413080E945809F60100
:1017F000F082DF91CF911F910F91FF90DF90CF90FA
:101800000895AF92BF92CF92DF92EF92FF920F9323
:101810001F93DF93CF93CDB7DEB7C854D0400FB638
:10182000F894DEBF0FBECDBFFE017996DE011196A2
:10183000CF01C096119211921D92E817F907D1F7C6
:1018400000E010E0F9E1CF2ED12CCC0EDD1E7E01A0
:101850000894E11CF11CC801880F991FB701600FA3
:10186000711F8C0D9D1D40E80E94C00B0F5F1F4F24
:101870000831110581F788E594E00E941308FF24E0
:1018800079E1A72EB12CAC0EBD1E6E010894C11CCF
:10189000D11C20C00E94220E9801220F331FF60196
:1018A000E00FF11F60E870E00E94B90C482FC501FD
:1018B000820F931FBF010E94E80A0F5F1F4F08317C
:1018C000110541F788E594E00E941308F39483E042
:1018D000F81619F000E010E0DDCF00E010E059E16B
:1018E000C52ED12CCC0EDD1E7E010894E11CF11C0E
:1018F000C801880F991FB701600F711F8C0D9D1DC6
:101900000E94E7090F5F1F4F0831110589F7C85B77
:10191000DF4F0FB6F894DEBF0FBECDBFCF91DF9182
:101920001F910F91FF90EF90DF90CF90BF90AF90FD
:101930000895991B79E004C0991F961708F0961B2B
:10194000881F7A95C9F780950895AA1BBB1B51E1A2
:1019500007C0AA1FBB1FA617B70710F0A61BB70B1F
:10196000881F991F5A95A9F780959095BC01CD01C4
:10197000089597FB092E07260AD077FD04D0E5DFEE
:1019800006D000201AF4709561957F4F0895F6F700
:10199000909581959F4F0895CF93DF93BC0182303E
:1019A000910510F462E070E0A0916A04B0916B04BC
:1019B000ED01E0E0F0E040E050E021C08881998155
:1019C0008617970769F48A819B81309719F0938372
:1019D000828304C090936B0480936A04FE0134C038
:1019E0006817790738F44115510519F084179507E0
:1019F00008F4AC01FE018A819B819C01E9012097DA
:101A0000E9F641155105A9F1CA01861B970B049708
:101A100008F4BA01E0E0F0E02AC08D919C911197A2
:101A200084179507F9F46417750781F412968D9160
:101A30009C911397309719F09383828304C09093FD
:101A40006B0480936A04FD0132964FC0CA01861B65
:101A5000970BFD01E80FF91F6193719302978D9326
:101A60009C9343C0FD01828193819C01D901109711
:101A7000A1F68091680490916904892B41F48091CA
:101A80005D0490915E049093690480936804409192
:101A90005F04509160044115510541F44DB75EB7A4
:101AA00080915B0490915C04481B590B2091680461
:101AB0003091690424173507B0F4CA01821B930BD7
:101AC0008617970780F0AB014E5F5F4F841795072D
:101AD00050F0420F531F5093690440936804F9017A
:101AE0006193719302C0E0E0F0E0CF01DF91CF910C
:101AF0000895CF93DF93009709F450C0EC0122972B
:101B00001B821A82A0916A04B0916B04109709F1AC
:101B100040E050E0AC17BD0708F1BB83AA83FE018B
:101B200021913191E20FF31FAE17BF0779F48D9128
:101B30009C911197280F391F2E5F3F4F39832883BF
:101B400012968D919C9113979B838A834115510521
:101B500071F4D0936B04C0936A0420C012968D91E7
:101B60009C911397AD01009711F0DC01D3CFFA01DE
:101B7000D383C28321913191E20FF31FCE17DF0788
:101B800069F488819981280F391F2E5F3F4FFA0130
:101B9000318320838A819B8193838283DF91CF91DC
:101BA0000895A0E0B0E0E7EDFDE00C944B0FEC01F0
:101BB000A880B980CA80DB80A114B104C104D1041B
:101BC00041F484E2A82E89EDB82E8BE5C82E87E07B
:101BD000D82EC601B5012DE133EF41E050E00E945F
:101BE000280F27EA31E440E050E00E94090F7B0112
:101BF0008C01C601B5012DE133EF41E050E00E94B8
:101C0000280FCA01B9012CEE34EF4FEF5FEF0E94AD
:101C1000090F6E0D7F1D801F911F97FF04C061503B
:101C2000704080409048688379838A839B839B01BE
:101C30003F77C901CDB7DEB7EAE00C94670F0E9489
:101C4000D10D089581E694E00E94D10D0895A0E0A1
:101C5000B0E08093610490936204A0936304B09316
:101C600064040895A0E0B0E0E8E3FEE00C94490FBE
:101C70008C01009729F4CB010E94CC0C8C01BAC0D6
:101C80009EEFE92E9FEFF92EE00EF11E5801A60EF1
:101C9000B71EAE14BF0408F4ABC08EEF882E8FEFD2
:101CA000982E8A0C9B1CE7014881598146175707DB
:101CB000B8F04530510508F49DC0CA010497861755
:101CC000970708F497C042505040461B570BF40149
:101CD0005183408379836883C5010E94790D8AC04E
:101CE0006B01C41AD50AE0916A04F0916B04A0E07C
:101CF000B0E0C0E0D0E042C0E815F905A1F52081D0
:101D000031812C153D0578F1C90102968C159D0590
:101D1000A8F04E5F5F4F420F531FE701598348837E
:101D200022813381109729F013963C932E931297BA
:101D300061C030936B0420936A045CC02250304031
:101D40002C193D0931832083109729F01396FC93B9
:101D5000EE93129704C0F0936B04E0936A04F701CA
:101D60007183608347C080819181C817D90708F4C7
:101D7000EC01DF01828193819C01F901309709F028
:101D8000BBCF400F511F8091680490916904841764
:101D90009507E9F4C617D707D0F420915F04309176
:101DA00060042115310541F42DB73EB780915B04E5
:101DB00090915C04281B390BA216B306C8F4B092AC
:101DC0006904A0926804E7017983688313C0CB019A
:101DD0000E94CC0CEC01009759F0F7014081518131
:101DE000B8010E94000FC8010E94790D8E0102C047
:101DF00000E010E0C801CDB7DEB7ECE00C94650F51
:101E0000FB01DC0102C001900D9241505040D8F717
:101E10000895629FD001739FF001829FE00DF11D34
:101E2000649FE00DF11D929FF00D839FF00D749F54
:101E3000F00D659FF00D9927729FB00DE11DF91F00
:101E4000639FB00DE11DF91FBD01CF01112408955D
:101E500097FB092E05260ED057FD04D04BD00AD093
:101E6000001C38F450954095309521953F4F4F4FC9
:101E70005F4F0895F6F790958095709561957F4F27
:101E80008F4F9F4F08952F923F924F925F926F9284
:101E90007F928F929F92AF92BF92CF92DF92EF92FA
:101EA000FF920F931F93CF93DF93CDB7DEB7CA1B7B
:101EB000DB0B0FB6F894DEBF0FBECDBF09942A88A6
:101EC000398848885F846E847D848C849B84AA844E
:101ED000B984C884DF80EE80FD800C811B81AA81DB
:101EE000B981CE0FD11D0FB6F894DEBF0FBECDBFA6
:101EF000ED010895A1E21A2EAA1BBB1BFD010DC026
:101F0000AA1FBB1FEE1FFF1FA217B307E407F507A9
:101F100020F0A21BB30BE40BF50B661F771F881F85
:101F2000991F1A9469F760957095809590959B011B
:0C1F3000AC01BD01CF010895F894FFCF73
:101F3C00646C6C2E73656E745F6672616D65735B39
:101F4C006672616D655F6E756D5D003A2000646C44
:101F5C006C2E73656E745F6672616D65730045728D
:101F6C00726F723A204C656E6774687320646F20D0
:101F7C006E6F74206D617463680D0A0073656E7406
:101F8C005F7061636B65742E6C656E677468203D61
:101F9C0020002C2072656365697665645F706163EF
:101FAC006B65742E6C656E677468203D20000D0A9D
:101FBC00004572726F723A205061636B65747320C6
:101FCC00646F206E6F74206D617463680D0A00730A
:101FDC00656E745F7061636B65742E7074725B00F8
:101FEC005D203D20002C2072656365697665645F19
:101FFC007061636B65742E7074725B00646C6C2E14
:10200C0072656365697665645F7061636B657400A6
:10201C004572726F723A204D656D6F7279206C65E6
:10202C00616B210D0A002D2D2D2D2D2D2D2D2D2DDE
:10203C002D2D2D2D2D2D2D2D2D2D2D2D2D2D2D2DC4
:10204C002D2D2D2D2D2D2D2D2D2D2D2D2D2D2D2DB4
:10205C002D2D2D2D2D2D2D2D2D2D2D2D2D2D0D0AE7
:10206C00004661696C6564203A280D0A005375635B
:10207C0063657373203A440D0A0020000D0A002B8F
:10208C002D2D2D2D2D2D2D2D2B2D2D2D2D2D2D2D76
:10209C002D2D2D2D2B2D2D2D2D2D2D2D2D2D2D2D66
:1020AC002D2B2D2D2D2D2D2D2D2D2B002D002B00E1
:1020BC002D2D2D2D2D2D2D2D2D2D2D2D2B2D2D2D46
:1020CC002D2D2D2D2D2B0D0A007C2048656164656E
:1020DC0072207C2020436F6E74726F6C20207C20E9
:1020EC0041646472657373696E67207C204C656E05
:1020FC00677468207C004E4554205061636B657496
:10210C00007C002020436865636B73756D20207C18
:10211C0020466F6F746572207C0D0A007C202000B5
:10212C0020207C2000207C2000202000207C2020EF
:10213C00007C200020202000202020207C2000205B
:10214C00207C0D0A006D657373616765003A200091
:10215C006672616D652E6E65745F7061636B65741C
:10216C0000737475666665645F6672616D65007296
:10217C00656365697665645F7061636B6574007235
:10218C0065636F6E73747275637465645F7061639D
:10219C006B65740073656E745F6672616D65730058
:1021AC0073656E745F6672616D65735B73706C6979
:1021BC00745F7061636B65745F6E756D5D2E7074AA
:1021CC007200307800204B694220696E207573656F
:1021DC000D0A00204220696E207573650D0A0043BC
:1021EC00616E6E6F74206465616C6C6F6361746595
:1021FC003A20616C7265616479206465616C6C6F06
:10220C0063617465640D0A004465616C6C6F636195
:10221C00746564200020627974657320282D002970
:10222C000D0A004661696C656420746F20726561EB
:10223C006C6C6F636174650D0A005265616C6C6F38
:10224C0063617465642066726F6D200020746F206A
:10225C00002062797465732028002B002D004661E4
:10226C00696C656420746F20616C6C6F636174655C
:10227C000D0A00416C6C6F63617465642000206210
:10228C007974657320282B000D0A0020006C040063
:06229C000001000000003B
:00000001FF
