:100000000C943E000C945B000C945B000C945B0021
:100010000C945B000C945B000C945B000C945B00F4
:100020000C945B000C945B000C945B000C945B00E4
:100030000C945B000C945B000C945B000C945B00D4
:100040000C945B000C945B000C945B000C945B00C4
:100050000C945B000C945B000C945B000C945B00B4
:100060000C945B000C945B000C945B000C945B00A4
:100070000C945B000C945B000C945B0011241FBE7D
:10008000CFEFD0E1DEBFCDBF12E0A0E0B1E0E6E20D
:10009000F8E102C005900D92A03FB107D9F712E038
:1000A000A0EFB2E001C01D92A63FB107E1F70E94A8
:1000B00091010C94110C0C9400006F927F928F921E
:1000C0009F92AF92BF92CF92DF92EF92FF920F93E7
:1000D0001F93DF93CF93CDB7DEB76A970FB6F8942F
:1000E000DEBF0FBECDBF6DB67EB6CE0101960E94BB
:1000F00006020E94650B6CE070E00E94FC09C82EAD
:10010000C3948C2D90E02DB73EB7281B390B0FB64A
:10011000F8943EBF0FBE2DBFADB6BEB60894A11C6D
:10012000B11C20E030E006C0F501E20FF31F1082A1
:100130002F5F3F4F28173907B8F38E010F5F1F4F0E
:10014000C801B5014C2D2FEF0E946606DD24480141
:100150001EC00D2D10E07801EE0CFF1CEB89FC8910
:10016000EE0DFF1D60817181ED89FE89E00FF11FA9
:10017000C40140810E94C9058B899C896D897E8953
:10018000600F711F8E0D9F1D0E94AD08D3948F8943
:10019000D816F8F2CE014396BE016B5E7F4FAE01DA
:1001A000495E5F4F0E94CE089A8C9C1421F4E88D22
:1001B000F98D10E087C080E091E00E9468078EE131
:1001C00091E00E9468078C2D0E949F0781E391E0D7
:1001D0000E9468078A8D0E949F078AE491E00E942E
:1001E000680784C0C12EDD2491917501EC0CFD1CC3
:1001F000D7018C91012F0F5F981709F462C08DE42D
:1002000091E00E9468078BE691E00E946807812FC9
:100210000E949F0788E791E00E946807F7018081AC
:100220000E9475078DE791E00E946807812F0E9468
:100230009F0788E791E00E946807E88DF98DEC0D33
:10024000FD1D80810E9475078AE491E00E94680785
:10025000D02E34C00D2D10E0E88DF98DE00FF11F88
:100260007501E00EF11E9081D7018C91981729F14C
:100270008BE691E00E9468078D2D0E949F0788E71A
:1002800091E00E946807F70180810E9475078DE761
:1002900091E00E9468078D2D0E949F0788E791E0FA
:1002A0000E946807E88DF98DE00FF11F80810E94A0
:1002B00075078AE491E00E946807D394D91450F23C
:1002C00015C0102F191508F48DCFCE014896BE0128
:1002D000665E7F4F0E94AD080E94A308882339F014
:1002E00080E991E00E9468070E94C40981E00FB68E
:1002F000F8947EBE0FBE6DBE6A960FB6F894DEBF50
:100300000FBECDBFCF91DF911F910F91FF90EF9066
:10031000DF90CF90BF90AF909F908F907F906F9025
:1003200008950F931F93CF93DF930E944D0788EE9C
:1003300093E02CE231E0F9013197F1F70197D9F719
:1003400086EA91E00E946807C0E0D0E00E945D006C
:100350008E010F5F1F4F882371F081EE91E00E94A4
:100360006807C8010E94E20787EE91E00E946807D3
:1003700021E030E01CC0E801C80164EF71E00E9498
:10038000E809892B79F483EC0035180721F481EF13
:1003900091E00E946807C8010E94E20786EF91E0A1
:1003A0000E9468070055134C89F620E030E0C9012F
:1003B000DF91CF911F910F91089580E00895FC0186
:1003C0008DE7808315821782168282870895FC014B
:1003D0008DE7808315821782168282870895FC013B
:1003E0008DE7808315821782168282871486138692
:1003F000158617861686108A138A128A158A148A19
:10040000168A108E178A118E118A0895FC018DE7C5
:10041000808315821782168282871486138615863A
:1004200017861686108A138A128A158A148A168AE3
:10043000108E178A118E118A0895681708F4682F94
:10044000862F08950F931F93CF93DF93062FEC0110
:1004500010E007C089910E94750780E20E94600742
:100460001F5F1017B8F386E092E00E946807DF91E3
:10047000CF911F910F9108952F923F924F925F92CB
:100480006F927F928F929F92AF92BF92CF92DF92A4
:10049000EF92FF920F931F93DF93CF93CDB7DEB709
:1004A0002B970FB6F894DEBF0FBECDBFDE2CE982CE
:1004B000FA820B831C83E22F2D83932F3E834F837D
:1004C000588769877A878B87E92E9D2C8F2C702E11
:1004D000612E5E2ECF80D884462E372E282E85E0C2
:1004E000989FC0011124B82EB3948BE08B1510F0A7
:1004F0009CE0B92E86EFF82EFB0C0B2D017089E0E5
:1005000092E00E946807EE2059F010E004C08DE2EE
:100510000E9460071F5F1B15D0F38BE20E946007EB
:1005200086E392E00E9468078FE492E00E946807E9
:10053000EE20F9F0AF2CA69410E00A0D111DFF2457
:1005400004C080E20E946007F3948F2D90E0801732
:100550009107BCF38CE792E00E94680710E004C0AA
:1005600080E20E9460071F5F1A15D0F38CE70E949B
:10057000600787E892E00E94680789E092E00E94A5
:100580006807EE2059F010E004C08DE20E94600779
:100590001F5F1B15D0F38BE20E94600786E392E099
:1005A0000E94680780EA92E00E946807892D0E94F5
:1005B000750784EA92E00E946807882D0E947507FB
:1005C00080E20E946007872D0E94750789EA92E009
:1005D0000E946807862D0E9475078DEA92E00E94AE
:1005E0006807852D0E94750780EB92E00E946807DE
:1005F0008E2D0E94750784EA92E00E946807E2E06F
:10060000EE1590F4FC2CC6018C01F80181918F014C
:100610000E94750780E20E946007802F8F198E1557
:10062000A0F385EB92E01FC0F2E0EF1679F4F6013B
:1006300080810E9475078DEA92E00E946807F601AA
:1006400081810E94750789EA92E00DC0F1E0EF1602
:1006500061F488EB92E00E946807F60180810E94B5
:1006600075078CEB92E00E946807842D0E94750745
:100670008DEA92E00E946807832D0E94750780EB47
:1006800092E00E946807822D0E94750783EC92E039
:100690000E94680789E092E00E946807EE2059F006
:1006A00010E004C08DE20E9460071F5F1B15D0F3AD
:1006B0008BE20E94600786E392E00E9468072B9617
:1006C0000FB6F894DEBF0FBECDBFCF91DF911F9163
:1006D0000F91FF90EF90DF90CF90BF90AF909F90E1
:1006E0008F907F906F905F904F903F902F900895E4
:1006F000AF92BF92CF92DF92EF92FF920F931F9330
:10070000DF93CF93CDB7DEB7AC01CDB6DEB6DC015B
:1007100015968C911597895F082F10E07801089441
:10072000E108F108EDB7FEB7E01BF10B0FB6F89446
:10073000FEBF0FBEEDBF2DB73EB72F5F3F4F1196E7
:100740008C911197818312968C91D90111968C937B
:100750001197FA01838112968C93129784811396D4
:100760008C931397858114968C9360E010C0862F2C
:1007700090E05901A80EB91EDA011696ED91FC9190
:100780001797E80FF91F8081F50185836F5FDA0104
:1007900015968C91681758F3D8011297F901EA0F52
:1007A000FB1F1082F901EE0DFF1D1082F80163E0BE
:1007B000EE0FFF1F6A95E1F760E001C06F5F862FC3
:1007C00090E08E179F07D4F3A20FB31F8C91FA010C
:1007D00080872E0D3F1DD9018C9181870FB6F8942B
:1007E000DEBE0FBECDBECF91DF911F910F91FF9066
:1007F000EF90DF90CF90BF90AF9008958F929F922F
:10080000AF92BF92CF92DF92EF92FF920F931F931E
:10081000DF93CF9300D00F92CDB7DEB76C011B8270
:100820001A82E2E0EE2EF12CEC0EFD1EDC011D968C
:100830004C914250C7018E010F5F1F4FB8010E94BB
:10084000FA084981F601238534852F5F3F4F8A815D
:100850009B81B90150E00E94750BBB2470E2872E8A
:100860009E2CAF2C780126C00B2D10E0DF01A00FCD
:10087000B11F8C918E37E9F430E0201B310B0F5FF4
:100880001F4FAF01400F511F01501040CD01BA0161
:10089000A9010E94750BEA81FB81E00FF11F8081A5
:1008A0008825808349814150892D9A2DB7010E9466
:1008B0005409B3942981EA81FB81B216A8F28081A0
:1008C000D60111968C931197818112968C93129771
:1008D000828113968C931397838114968C93B6011F
:1008E0006B5F7F4FC601069644810E94FA08F601AD
:1008F00045812A813B812B5F3F4F86819781B901DA
:1009000050E00E94750BEA81FB818981E80FF11D9F
:1009100032978191D60118968C93189780811996F9
:100920008C93CE010296BE016F5F7F4F0E94AD088F
:100930000F900F900F90CF91DF911F910F91FF902B
:10094000EF90DF90CF90BF90AF909F908F900895E1
:100950002F923F924F925F926F927F928F929F92CF
:10096000AF92BF92CF92DF92EF92FF920F931F93BD
:10097000DF93CF9300D000D00F92CDB7DEB74C01FC
:100980002DB73EB73D832C831B821A82DC0115965E
:100990004C91495FCE010296BE016F5F7F4F0E946E
:1009A000FA08EA81FB81D40111968C91119780831A
:1009B000EA81FB8112968C9112978183EA81FB81F7
:1009C00013968C9113978283EA81FB8114968C9104
:1009D00014978383EA81FB8115968C91848320E0B0
:1009E0000EC0822F90E0A80FB91FF40146815781F5
:1009F000480F591FFA01808115968C932F5FD401FF
:100A000015968C91AA81BB81281758F38981A80F6C
:100A1000B11D1297F40180858C938981EA81FB8155
:100A2000E80FF11D3197D40119968C9180837724BA
:100A3000A2E02A2E312C2C0E3D1E2E010894411CC2
:100A4000511CF0E26F2E56C0A72CBB24EA81FB811B
:100A5000EA0DFB1D80818D57823008F04AC0DDB65B
:100A6000CEB64F5FC101B2010E945409E981F0E0A6
:100A7000CF018A199B092DB73EB7281B390B0FB63A
:100A8000F8943EBF0FBE2DBF0DB71EB70F5F1F4FAF
:100A9000FC012A813B812A0D3B1DC801B901AF0130
:100AA0000E94750B75010894E11CF11C4A815B8161
:100AB0004E0D5F1D298130E02A193B09CA01B8019A
:100AC000A9010E94750BEA81FB81EA0DFB1D3EE73F
:100AD0003083EA81FB81EE0DFF1D808186258083B6
:100AE00073942D2D3C2DC9010FB6F8949EBF0FBEF7
:100AF0008DBF73944981741608F4A6CFB401635F67
:100B00007F4F4E5FC4010B960E94FA08D4011B96DA
:100B1000ED91FC911C971DE710831B962D913C9144
:100B20001C972F5F3F4F49816A817B81C90150E04B
:100B30000E94750BF40185850384F485E02DE80F90
:100B4000F11D31971083CE010296BE016F5F7F4F7A
:100B50000E94AD082C813D810FB6F8943EBF0FBEB8
:100B60002DBF0F900F900F900F900F90CF91DF91AE
:100B70001F910F91FF90EF90DF90CF90BF90AF90BB
:100B80009F908F907F906F905F904F903F902F90AD
:100B90000895CF92DF92EF92FF920F931F93CF931E
:100BA000DF93EC01D62EC72E8C01055F1F4F8DE021
:100BB000E82EF12CEC0EFD1EC801B7010E94FA08C8
:100BC0004D858B859C856D2D7C2D50E00E94750B8D
:100BD000CE010E94FE03C801B7010E94AD088C81BE
:100BE00081508E3F08F468C08A81882321F089896A
:100BF000882309F061C0198A8A81882371F4BE01B3
:100C0000675E7F4FCE0147964D810E94FA08498D5D
:100C10006E817F818F89988D15C089818E01025FD9
:100C20001F4FB0E1CB2ED12CCC0EDD1E882371F4EA
:100C3000C801B6014D810E94FA0848896E817F8102
:100C40008E859F8550E00E94750B2EC04D8188894E
:100C5000480FC801B6010E9454094D81888990E06F
:100C6000841B91092E853F85280F391F6E817F8156
:100C7000C90150E00E94750B99818A819817A1F4EF
:100C8000BE01675E7F4FCE01479648890E94FA08F1
:100C900048896E857F858F89988D50E00E94750BFD
:100CA000C801B6010E94AD08CE0106962596BE0188
:100CB0000E94AD0880E001C081E0DF91CF911F91DB
:100CC0000F91FF90EF90DF90CF9008952F923F9279
:100CD0004F925F926F927F928F929F92AF92BF924C
:100CE000CF92DF92EF92FF920F931F93DF93CF93F8
:100CF00000D000D000D0CDB7DEB79E838D83062F05
:100D0000F72E142F2C8320E0842F90E087709070B2
:100D1000892B09F021E0B12EB694B694B694B20EA8
:100D20006D817E816C5E7F4F4D815E814A5E5F4F3B
:100D30008D819E8142962B2D0E9422094B2D50E0E1
:100D400081E090E0841B950B63E0880F991F6A9502
:100D5000E1F7180F198336E0632E712C8D819E8187
:100D6000680E791E25E0822E912C880E991E0B9616
:100D70009B838A839DE0292E312CAD81BE812A0E72
:100D80003B1E202F3F2DC9016C0100E0EE24FF2403
:100D90002A01089441085108AB2CAA9462C0802F04
:100DA00090E08415950511F018E001C01981ED81DE
:100DB000FE810183A28213828C818483C301B401EA
:100DC000412F0E94FA08960190E00DC0AD81BE81CE
:100DD0001696ED91FC911797E90FF11DD9018D91B0
:100DE0009D0180839F5F911788F38D819E810E9472
:100DF00078038D819E810E94A804ED81FE81828905
:100E0000938964897589600F711D8E0D9F1D4585BD
:100E10000E94FA08AD81BE815296ED91FC915397E4
:100E2000EE0DFF1D1D964C911D971B966C911B9707
:100E30001C967C918081918150E00E94750BC301CA
:100E4000B4010E94AD088A819B81B1010E94AD0866
:100E50000F5FE2E0F0E0EE0EFF1E88E090E0C80ECB
:100E6000D91E0B1508F49BCF26960FB6F894DEBF5B
:100E70000FBECDBFCF91DF911F910F91FF90EF90EB
:100E8000DF90CF90BF90AF909F908F907F906F90AA
:100E90005F904F903F902F9008951092C5008DE481
:100EA0008093C40088E18093C10086E08093C200F3
:100EB00008958091C00087FFFCCF8091C6000895FF
:100EC000982F8091C00085FFFCCF9093C6000895B5
:100ED000FC0107C08091C00085FFFCCF9093C60045
:100EE000319690819923B1F708951F93182F89ECBB
:100EF00092E00E946807912F92959F701F709A3020
:100F000030F48091C00085FFFCCF905D05C08091DA
:100F1000C00085FFFCCF995C9093C6001A3030F476
:100F20008091C00085FFFCCF105D05C08091C0009E
:100F300085FFFCCF195C1093C6001F910895282FE0
:100F40008A3040F48091C00085FFFCCF205D209363
:100F5000C6000895843680F48091C00085FFFCCFE0
:100F6000822F6AE00E94DC09805D8093C600809138
:100F7000C00085FFFCCF1EC08091C00085FFFCCF64
:100F8000822F64E60E94DC09805D8093C600809118
:100F9000C00085FFFCCF822F64E60E94DC09892F08
:100FA0006AE00E94DC09805D8093C6008091C000E9
:100FB00085FFFCCF822F6AE00E94DC09905D909350
:100FC000C60008959C018A30910530F48091C000DC
:100FD00085FFFCCF822FB3C08436910588F48091C1
:100FE000C00085FFFCCFC9016AE070E00E94E809FB
:100FF000605D6093C6008091C00085FFFCCF9AC001
:1010000083E0283E380708F58091C00085FFFCCFBB
:10101000C90164E670E00E94E809605D6093C60063
:101020008091C00085FFFCCFC90164E670E00E949A
:10103000E8096AE070E00E94E809605D6093C6001C
:101040008091C00085FFFCCF75C087E22031380752
:1010500088F58091C00085FFFCCFC90168EE73E080
:101060000E94E809605D6093C6008091C00085FF22
:10107000FCCFC90168EE73E00E94E80964E670E005
:101080000E94E809605D6093C6008091C00085FF02
:10109000FCCFC90164E670E00E94E8096AE070E0F4
:1010A0000E94E809605D6093C6008091C00085FFE2
:1010B000FCCF40C08091C00085FFFCCFC90160E13A
:1010C00077E20E94E809605D6093C6008091C000ED
:1010D00085FFFCCFC90160E177E20E94E80968EE74
:1010E00073E00E94E809605D6093C6008091C000D3
:1010F00085FFFCCFC90168EE73E00E94E80964E651
:1011000070E00E94E809605D6093C6008091C000B5
:1011100085FFFCCFC90164E670E00E94E8096AE03F
:1011200070E00E94E809605D6093C6008091C00095
:1011300085FFFCCFC9016AE070E00E94E809805D8C
:101140008093C600089520E08091F0029091F10212
:10115000892B09F021E0822F08950F931F93CF93DD
:10116000DF938C01EB01FC0180819181009781F07C
:101170000E94BC0A28818091F0029091F102821BAA
:1011800091099093F1028093F002F801118210828C
:101190001882DF91CF911F910F910895EF92FF92E6
:1011A0000F931F93CF93DF938C017B01EA01FC0126
:1011B00080819181009711F4188215C00E94BC0AA9
:1011C0002881220F8091F0029091F102821B9109F7
:1011D0009093F1028093F002F80111821082C7010E
:1011E000BE010E94AD08DF91CF911F910F91FF903A
:1011F000EF900895DF92EF92FF920F931F93CF939A
:10120000DF938C017B01D42EC42FD0E0CE010E944D
:101210000F0AF80191838083009761F08091F002BA
:101220009091F1028C0F9D1F9093F1028093F00238
:10123000F701D082DF91CF911F910F91FF90EF9036
:10124000DF900895BF92CF92DF92EF92FF920F93BB
:101250001F93CF93DF938C017B016A01B22EC22FC3
:10126000D0E0CC0FDD1FCE010E940F0AF801918360
:101270008083009779F08091F0029091F1028C0FB9
:10128000911D9093F1028093F002C701B6014B2D9E
:101290000E94FA08DF91CF911F910F91FF90EF907C
:1012A000DF90CF90BF9008957F928F929F92AF92E0
:1012B000BF92CF92DF92EF92FF920F931F93DF9333
:1012C000CF93CDB7DEB77C015B01D42E8DB69EB631
:1012D0007EB68DB79EB7841B91090FB6F8949EBF5A
:1012E0000FBE8DBF0DB71EB70F5F1F4FF701608197
:1012F0007181C80150E00E94750B8D2D90E00E9415
:101300000F0AF70180839183B8014D2D50E00E94B0
:10131000750BF70180819181892BD9F0F5018081CE
:101320002D2D281B332727FD30958091F0029091B9
:10133000F102820F931F9093F1028093F002D0820A
:10134000282D372DC9010FB6F8949EBF0FBE8DBF53
:1013500008C0882D972D9C010FB6F8943EBF0FBE94
:101360002DBF0FB6F8949EBE0FBE8DBECF91DF91FC
:101370001F910F91FF90EF90DF90CF90BF90AF90B3
:101380009F908F907F9008958091F0029091F1024C
:1013900024E08030920748F0892F8695869590E06A
:1013A0000E94E2078CEC92E004C00E94E2078AED02
:1013B00092E00E9468070895991B79E004C0991F84
:1013C000961708F0961B881F7A95C9F7809508959F
:1013D000AA1BBB1B51E107C0AA1FBB1FA617B7075B
:1013E00010F0A61BB70B881F991F5A95A9F7809577
:1013F0009095BC01CD01089597FB092E07260AD0D0
:1014000077FD04D0E5DF06D000201AF470956195D1
:101410007F4F0895F6F7909581959F4F0895CF934C
:10142000DF93BC018230910510F462E070E0A0917E
:10143000F402B091F502ED01E0E0F0E040E050E0B0
:1014400021C0888199818617970769F48A819B81D9
:10145000309719F09383828304C09093F5028093B0
:10146000F402FE0134C06817790738F441155105BC
:1014700019F08417950708F4AC01FE018A819B815D
:101480009C01E9012097E9F641155105A9F1CA012E
:10149000861B970B049708F4BA01E0E0F0E02AC03D
:1014A0008D919C91119784179507F9F4641775072E
:1014B00081F412968D919C911397309719F0938334
:1014C000828304C09093F5028093F402FD0132966A
:1014D0004FC0CA01861B970BFD01E80FF91F6193EE
:1014E000719302978D939C9343C0FD0182819381F8
:1014F0009C01D9011097A1F68091F2029091F3021C
:10150000892B41F48091E8029091E9029093F302D3
:101510008093F2024091EA025091EB02411551058D
:1015200041F44DB75EB78091E6029091E702481B07
:10153000590B2091F2023091F30224173507B0F4D1
:10154000CA01821B930B8617970780F0AB014E5F91
:101550005F4F8417950750F0420F531F5093F302CB
:101560004093F202F9016193719302C0E0E0F0E070
:10157000CF01DF91CF910895CF93DF93009709F4C6
:1015800050C0EC0122971B821A82A091F402B09104
:10159000F502109709F140E050E0AC17BD0708F1E3
:1015A000BB83AA83FE0121913191E20FF31FAE1795
:1015B000BF0779F48D919C911197280F391F2E5FE9
:1015C0003F4F3983288312968D919C9113979B836B
:1015D0008A834115510571F4D093F502C093F4024A
:1015E00020C012968D919C911397AD01009711F038
:1015F000DC01D3CFFA01D383C28321913191E20F71
:10160000F31FCE17DF0769F488819981280F391FEE
:101610002E5F3F4FFA01318320838A819B81938320
:101620008283DF91CF910895A0E0B0E0EAE1FBE092
:101630000C94C00BEC01A880B980CA80DB80A11497
:10164000B104C104D10441F484E2A82E89EDB82E7E
:101650008BE5C82E87E0D82EC601B5012DE133EF0A
:1016600041E050E00E949D0B27EA31E440E050E069
:101670000E947E0B7B018C01C601B5012DE133EF89
:1016800041E050E00E949D0BCA01B9012CEE34EFFD
:101690004FEF5FEF0E947E0B6E0D7F1D801F911F2D
:1016A00097FF04C061507040804090486883798300
:1016B0008A839B839B013F77C901CDB7DEB7EAE000
:1016C0000C94DC0B0E94140B08958CEE92E00E94A7
:1016D000140B0895A0E0B0E08093EC029093ED022B
:1016E000A093EE02B093EF020895FB01DC0102C06B
:1016F00001900D9241505040D8F70895629FD0015B
:10170000739FF001829FE00DF11D649FE00DF11DBC
:10171000929FF00D839FF00D749FF00D659FF00D6B
:101720009927729FB00DE11DF91F639FB00DE11D58
:10173000F91FBD01CF011124089597FB092E05263D
:101740000ED057FD04D04BD00AD0001C38F4509571
:101750004095309521953F4F4F4F5F4F0895F6F7D5
:1017600090958095709561957F4F8F4F9F4F08950D
:101770002F923F924F925F926F927F928F929F92A1
:10178000AF92BF92CF92DF92EF92FF920F931F938F
:10179000CF93DF93CDB7DEB7CA1BDB0B0FB6F89440
:1017A000DEBF0FBECDBF09942A88398848885F8480
:1017B0006E847D848C849B84AA84B984C884DF80F1
:1017C000EE80FD800C811B81AA81B981CE0FD11DD5
:1017D0000FB6F894DEBF0FBECDBFED010895A1E2B4
:1017E0001A2EAA1BBB1BFD010DC0AA1FBB1FEE1F9B
:1017F000FF1FA217B307E407F50720F0A21BB30BE6
:10180000E40BF50B661F771F881F991F1A9469F761
:1018100060957095809590959B01AC01BD01CF01BD
:061820000895F894FFCFCB
:101826004572726F723A204C656E677468732064F5
:101836006F206E6F74206D617463680D0A007365A6
:101846006E745F7061636B65745F6C656E203D20BE
:10185600002C2072656365697665645F7061636BF1
:1018660065745F6C656E203D20000D0A004572723E
:101876006F723A205061636B65747320646F206EDB
:101886006F74206D617463680D0A0073656E745F12
:101896007061636B65745B005D203D20002C2072D7
:1018A600656365697665645F7061636B65745B002B
:1018B6004572726F723A204D656D6F7279206C6554
:1018C600616B210D0A002D2D2D2D2D2D2D2D2D2D4C
:1018D6002D2D2D2D2D2D2D2D2D2D2D2D2D2D2D2D32
:1018E6002D2D2D2D2D2D2D2D2D2D2D2D2D2D2D2D22
:1018F6002D2D2D2D2D2D2D2D2D2D2D2D2D2D0D0A55
:1019060000546573742000206661696C65640D0A75
:1019160000416C6C200020746573747320706173D1
:101926007365640D0A000D0A002B2D2D2D2D2D2D0E
:101936002D2D2B2D2D2D2D2D2D2D2D2D2D2D2B2DD5
:101946002D2D2D2D2D2D2D2D2D2D2D2B2D2D2D2DC3
:101956002D2D2D2D2B002D2D2D2D2D2D2D2D2D2DE0
:101966002D2D2B2D2D2D2D2D2D2D2D2B0D0A007CC6
:1019760020486561646572207C2020436F6E747216
:101986006F6C20207C2041646472657373696E6796
:10199600207C204C656E677468207C004E45542080
:1019A6005061636B6574002020436865636B7375D3
:1019B6006D20207C20466F6F746572207C0D0A00B6
:1019C6007C20200020207C2000207C20002020007D
:1019D600207C2020007C20002020200020202020A9
:1019E6007C200020207C0D0A00307800204B6942C4
:1019F60020696E207573650D0A00204220696E20ED
:101A06007573650D0A002000F60200000100000053
:00000001FF
