:100000000C943E000C945B000C945B000C945B0021
:100010000C945B000C945B000C945B000C945B00F4
:100020000C945B000C945B000C945B000C945B00E4
:100030000C945B000C945B000C945B000C945B00D4
:100040000C945B000C945B000C945B000C945B00C4
:100050000C945B000C945B000C945B000C945B00B4
:100060000C945B000C945B000C945B000C945B00A4
:100070000C945B000C945B000C945B0011241FBE7D
:10008000CFEFD0E1DEBFCDBF13E0A0E0B1E0E8EFFD
:10009000F8E102C005900D92A435B107D9F713E03D
:1000A000A4E5B3E001C01D92AA35B107E1F70E94B3
:1000B000A5010C947A0C0C9400006F927F928F92A1
:1000C0009F92AF92BF92CF92DF92EF92FF920F93E7
:1000D0001F93DF93CF93CDB7DEB76A970FB6F8942F
:1000E000DEBF0FBECDBF6DB67EB6CE0101960E94BB
:1000F00019020E94CE0B68E170E00E94650AC82ECA
:10010000C3948C2D90E02DB73EB7281B390B0FB64A
:10011000F8943EBF0FBE2DBFADB6BEB60894A11C6D
:10012000B11C00E010E07C010DC00E94CE0BF50177
:10013000E00FF11F62E070E00E94650A835880833F
:100140000F5F1F4F0E151F0580F380E091E00E94A6
:10015000D107C5016C2D0E9435028E010F5F1F4F24
:10016000C801B5014C2D2FEF0E94AA06DD244801DD
:100170001EC00D2D10E07801EE0CFF1CEB89FC89F0
:10018000EE0DFF1D60817181ED89FE89E00FF11F89
:10019000C40140810E94DC058B899C896D897E8920
:1001A000600F711F8E0D9F1D0E941609D3948F89B9
:1001B000D816F8F280E091E00E94D107CE01439674
:1001C000BE016B5E7F4FAE01495E5F4F0E943709F3
:1001D0009A8C9C1421F4E88DF98D10E087C087E09B
:1001E00091E00E94D10785E291E00E94D1078C2D19
:1001F0000E94080888E391E00E94D1078A8D0E943E
:10020000080881E591E00E94D10784C0C12EDD2459
:1002100091917501EC0CFD1CD7018C91012F0F5FA2
:10022000981709F462C084E591E00E94D10782E743
:1002300091E00E94D107812F0E9408088FE791E08A
:100240000E94D107F70180810E94DE0784E891E0D7
:100250000E94D107812F0E9408088FE791E00E9439
:10026000D107E88DF98DEC0DFD1D80810E94DE0720
:1002700081E591E00E94D107D02E34C00D2D10E011
:10028000E88DF98DE00FF11F7501E00EF11E9081F0
:10029000D7018C91981729F182E791E00E94D1074C
:1002A0008D2D0E9408088FE791E00E94D107F70189
:1002B00080810E94DE0784E891E00E94D1078D2DA5
:1002C0000E9408088FE791E00E94D107E88DF98D20
:1002D000E00FF11F80810E94DE0781E591E00E941E
:1002E000D107D394D91450F215C0102F191508F462
:1002F0008DCFCE014896BE01665E7F4F0E941609E3
:100300000E940C09882339F087E991E00E94D10707
:100310000E942D0A81E00FB6F8947EBE0FBE6DBE1E
:100320006A960FB6F894DEBF0FBECDBFCF91DF91B6
:100330001F910F91FF90EF90DF90CF90BF90AF9003
:100340009F908F907F906F9008950F931F93CF93FE
:10035000DF930E94B60788EE93E02CE231E0F901CA
:100360003197F1F70197D9F78DEA91E00E94D10713
:10037000C0E0D0E00E945D008E010F5F1F4F882318
:1003800071F088EE91E00E94D107C8010E944B08ED
:100390008EEE91E00E94D10721E030E01BC0E80121
:1003A000C80164E170E00E94510A892B71F4083C95
:1003B000110521F488EF91E00E94D107C8010E9445
:1003C0004B088DEF91E00E94D107083C110591F692
:1003D00020E030E0C901DF91CF911F910F91089586
:1003E00080E00895FC018DE78083158217821682D4
:1003F00082870895FC018DE780831582178216821B
:1004000082870895FC018DE780831582178216820A
:10041000828714861386158617861686108A138A95
:10042000128A158A148A168A108E178A118E118ADA
:100430000895FC018DE780831582178216828287DA
:1004400014861386158617861686108A138A128AD2
:10045000158A148A168A108E178A118E118A0895A9
:10046000681708F4682F862F08950F931F93CF9372
:10047000DF93062FEC0110E007C089910E94DE0790
:1004800080E20E94C9071F5F1017B8F38DE092E069
:100490000E94D107DF91CF911F910F9108952F9264
:1004A0003F924F925F926F927F928F929F92AF9204
:1004B000BF92CF92DF92EF92FF920F931F93DF9341
:1004C000CF93CDB7DEB72B970FB6F894DEBF0FBE34
:1004D000CDBFDE2CE982FA820B831C83E22F2D83B1
:1004E000932F3E834F83588769877A878B87E92EBE
:1004F0009D2C8F2C702E612E5E2ECF80D884462EA0
:10050000372E282E85E0989FC0011124B82EB39471
:100510008BE08B1510F09CE0B92E86EFF82EFB0CCB
:100520000B2D017080E192E00E94D107EE2059F07E
:1005300010E004C08DE20E94C9071F5F1B15D0F3B5
:100540008BE20E94C9078DE392E00E94D10786E505
:1005500092E00E94D107EE20F9F0AF2CA69410E0B3
:100560000A0D111DFF2404C080E20E94C907F39404
:100570008F2D90E080179107BCF383E892E00E94F2
:10058000D10710E004C080E20E94C9071F5F1A155E
:10059000D0F38CE70E94C9078EE892E00E94D10751
:1005A00080E192E00E94D107EE2059F010E004C0F3
:1005B0008DE20E94C9071F5F1B15D0F38BE20E94DA
:1005C000C9078DE392E00E94D10787EA92E00E947A
:1005D000D107892D0E94DE078BEA92E00E94D107A5
:1005E000882D0E94DE0780E20E94C907872D0E94A5
:1005F000DE0780EB92E00E94D107862D0E94DE0785
:1006000084EB92E00E94D107852D0E94DE0787EBE4
:1006100092E00E94D1078E2D0E94DE078BEA92E0C5
:100620000E94D107E2E0EE1590F4FC2CC6018C018B
:10063000F80181918F010E94DE0780E20E94C907C4
:10064000802F8F198E15A0F38CEB92E01FC0F2E083
:10065000EF1679F4F60180810E94DE0784EB92E0C8
:100660000E94D107F60181810E94DE0780EB92E0B3
:100670000DC0F1E0EF1661F48FEB92E00E94D1071C
:10068000F60180810E94DE0783EC92E00E94D10790
:10069000842D0E94DE0784EB92E00E94D107832D17
:1006A0000E94DE0787EB92E00E94D107822D0E9414
:1006B000DE078AEC92E00E94D10780E192E00E947E
:1006C000D107EE2059F010E004C08DE20E94C90766
:1006D0001F5F1B15D0F38BE20E94C9078DE392E0E8
:1006E0000E94D1072B960FB6F894DEBF0FBECDBF88
:1006F000CF91DF911F910F91FF90EF90DF90CF90FE
:10070000BF90AF909F908F907F906F905F904F9031
:100710003F902F900895AF92BF92CF92DF92EF92C9
:10072000FF920F931F93DF93CF93CDB7DEB7AC014A
:10073000CDB6DEB6DC0115968C911597895F082F32
:1007400010E078010894E108F108EDB7FEB7E01B6E
:10075000F10B0FB6F894FEBF0FBEEDBF2DB73EB73D
:100760002F5F3F4F11968C911197818312968C9138
:10077000D90111968C931197FA01838112968C936B
:100780001297848113968C931397858114968C937A
:1007900060E010C0862F90E05901A80EB91EDA0162
:1007A0001696ED91FC911797E80FF91F8081F501DE
:1007B00085836F5FDA0115968C91681758F3D8011D
:1007C0001297F901EA0FFB1F1082F901EE0DFF1DD0
:1007D0001082F80163E0EE0FFF1F6A95E1F760E019
:1007E00001C06F5F862F90E08E179F07D4F3A20F92
:1007F000B31F8C91FA0180872E0D3F1DD9018C917A
:1008000081870FB6F894DEBE0FBECDBECF91DF91CB
:100810001F910F91FF90EF90DF90CF90BF90AF901E
:1008200008958F929F92AF92BF92CF92DF92EF92F4
:10083000FF920F931F93DF93CF9300D00F92CDB70A
:10084000DEB76C011B821A82E2E0EE2EF12CEC0E78
:10085000FD1EDC011D964C914250C7018E010F5FB9
:100860001F4FB8010E9463094981F6012385348531
:100870002F5F3F4F8A819B81B90150E00E94DE0BC0
:10088000BB2470E2872E9E2CAF2C780126C00B2D46
:1008900010E0DF01A00FB11F8C918E37E9F430E03A
:1008A000201B310B0F5F1F4FAF01400F511F015035
:1008B0001040CD01BA01A9010E94DE0BEA81FB8143
:1008C000E00FF11F80818825808349814150892D67
:1008D0009A2DB7010E94BD09B3942981EA81FB8159
:1008E000B216A8F28081D60111968C93119781815E
:1008F00012968C931297828113968C93139783810F
:1009000014968C93B6016B5F7F4FC60106964481A7
:100910000E946309F60145812A813B812B5F3F4F8D
:1009200086819781B90150E00E94DE0BEA81FB814C
:100930008981E80FF11D32978191D60118968C9329
:100940001897808119968C93CE010296BE016F5F35
:100950007F4F0E9416090F900F900F90CF91DF915B
:100960001F910F91FF90EF90DF90CF90BF90AF90CD
:100970009F908F9008952F923F924F925F926F9227
:100980007F928F929F92AF92BF92CF92DF92EF921F
:10099000FF920F931F93DF93CF9300D000D00F925D
:1009A000CDB7DEB74C012DB73EB73D832C831B82FC
:1009B0001A82DC0115964C91495FCE010296BE0168
:1009C0006F5F7F4F0E946309EA81FB81D40111961A
:1009D0008C9111978083EA81FB8112968C911297FA
:1009E0008183EA81FB8113968C9113978283EA813C
:1009F000FB8114968C9114978383EA81FB81159671
:100A00008C91848320E00EC0822F90E0A80FB91F44
:100A1000F40146815781480F591FFA0180811596CC
:100A20008C932F5FD40115968C91AA81BB812817D6
:100A300058F38981A80FB11D1297F40180858C931A
:100A40008981EA81FB81E80FF11D3197D401199664
:100A50008C9180837724A2E02A2E312C2C0E3D1E0F
:100A60002E010894411C511CF0E26F2E56C0A72C99
:100A7000BB24EA81FB81EA0DFB1D80818D5782300A
:100A800008F04AC0DDB6CEB64F5FC101B2010E9488
:100A9000BD09E981F0E0CF018A199B092DB73EB766
:100AA000281B390B0FB6F8943EBF0FBE2DBF0DB7F4
:100AB0001EB70F5F1F4FFC012A813B812A0D3B1D92
:100AC000C801B901AF010E94DE0B75010894E11C59
:100AD000F11C4A815B814E0D5F1D298130E02A198E
:100AE0003B09CA01B801A9010E94DE0BEA81FB8122
:100AF000EA0DFB1D3EE73083EA81FB81EE0DFF1D11
:100B000080818625808373942D2D3C2DC9010FB6DD
:100B1000F8949EBF0FBE8DBF73944981741608F47C
:100B2000A6CFB401635F7F4F4E5FC4010B960E9456
:100B30006309D4011B96ED91FC911C971DE710836E
:100B40001B962D913C911C972F5F3F4F49816A81E5
:100B50007B81C90150E00E94DE0BF401858503848E
:100B6000F485E02DE80FF11D31971083CE01029638
:100B7000BE016F5F7F4F0E9416092C813D810FB629
:100B8000F8943EBF0FBE2DBF0F900F900F900F90A7
:100B90000F90CF91DF911F910F91FF90EF90DF9019
:100BA000CF90BF90AF909F908F907F906F905F900D
:100BB0004F903F902F900895AF92BF92CF92DF92C7
:100BC000EF92FF920F931F93CF93DF93EC01162FB9
:100BD000072F9BE0C92ED12CCC0EDD1E8DE0A82E58
:100BE000B12CAC0EBD1EC601B5010E9463094D8536
:100BF0008B859C85612F702F50E00E94DE0BCE010B
:100C00000E94110480ED92E00E94D1078B859C85A3
:100C10006D850E943502E880F9800A811B812C8154
:100C20003D814E815F81688579858A850E944F026A
:100C3000C601B5010E9416098C8181508E3F28F4AF
:100C400080EE92E00E94D10706C08A81882329F0B5
:100C50008989882311F081E072C0198A8A818823EA
:100C6000B9F48DE193E00E94D1078E819F816D815F
:100C70000E943502BE01675E7F4FCE0147964D81CF
:100C80000E946309498D6E817F818F89988D15C07F
:100C900089818E01025F1F4FB0E1EB2EF12CEC0E2B
:100CA000FD1E882371F4C801B7014D810E946309BC
:100CB00048896E817F818E859F8550E00E94DE0B82
:100CC00037C04D818889480FC801B7010E94BD090E
:100CD0004D81888990E0841B91092E853F85280FDE
:100CE000391F6E817F81C90150E00E94DE0B99811E
:100CF0008A819817E9F48DE193E00E94D1078E85EF
:100D00009F8568890E943502BE01675E7F4FCE01D4
:100D1000479648890E94630948896E857F858F8937
:100D2000988D50E00E94DE0BC801B7010E941609A1
:100D3000CE0106962596BE010E94160980E0DF913D
:100D4000CF911F910F91FF90EF90DF90CF90BF90C8
:100D5000AF9008952F923F924F925F926F927F9241
:100D60008F929F92AF92BF92CF92DF92EF92FF92BB
:100D70000F931F93DF93CF93CDB7DEB729970FB6AD
:100D8000F894DEBF0FBECDBF99878887062FF72E58
:100D9000142F2E8386E293E00E94D10720E0812F5A
:100DA00090E087709070892B09F021E0812E869465
:100DB00086948694820E688579856C5E7F4F48851F
:100DC00059854A5E5F4F888599854296282D0E94F5
:100DD0008B09482D50E081E090E0841B950B63E087
:100DE000880F991F6A95E1F7180F198336E0432E93
:100DF000512C88859985480E591E25E0622E712C4C
:100E0000680E791E0B969D838C83A885B9851D96E7
:100E1000BB83AA83202F3F2DC9015C019924CC24D8
:100E2000DD241A01089421083108B82DB150BF8380
:100E300081C0892D90E08215930511F018E001C062
:100E40001981E885F98591828F81828313829E8141
:100E50009483C201B301412F0E946309950190E080
:100E60000DC0A885B9851696ED91FC911797E90FED
:100E7000F11DD9018D919D0180839F5F911788F3AA
:100E8000888599850E948B03888599850E94BB047B
:100E9000E885F985E080F180028113812481358124
:100EA000468157816085718582850E944F0280ED61
:100EB00092E00E94D107A885B9851B968D919C91DF
:100EC0001C971D966C910E943502E885F9858289F0
:100ED000938964897589690D711D8C0D9D1D4585EA
:100EE0000E946309A885B9855296ED91FC915397AC
:100EF000EC0DFD1D1D964C911D971B966C911B973B
:100F00001C967C918081918150E00E94DE0BC20191
:100F1000B3010E9416098C819D816A817B810E94A8
:100F200016099394E2E0F0E0CE0EDF1E88E090E038
:100F3000A80EB91E981408F47CCF29960FB6F89421
:100F4000DEBF0FBECDBFCF91DF911F910F91FF90FC
:100F5000EF90DF90CF90BF90AF909F908F907F9059
:100F60006F905F904F903F902F9008951092C50022
:100F70008DE48093C40088E18093C10086E0809373
:100F8000C20008958091C00087FFFCCF8091C60009
:100F90000895982F8091C00085FFFCCF9093C600E4
:100FA0000895FC0107C08091C00085FFFCCF90939D
:100FB000C600319690819923B1F708951F93182F99
:100FC0008DE293E00E94D107912F92959F701F7040
:100FD0009A3030F48091C00085FFFCCF905D05C051
:100FE0008091C00085FFFCCF995C9093C6001A30B9
:100FF00030F48091C00085FFFCCF105D05C080916A
:10100000C00085FFFCCF195C1093C6001F910895A6
:10101000282F8A3040F48091C00085FFFCCF205DEE
:101020002093C6000895843680F48091C00085FF27
:10103000FCCF822F6AE00E94450A805D8093C60043
:101040008091C00085FFFCCF1EC08091C00085FF4D
:10105000FCCF822F64E60E94450A805D8093C60023
:101060008091C00085FFFCCF822F64E60E94450A74
:10107000892F6AE00E94450A805D8093C6008091B6
:10108000C00085FFFCCF822F6AE00E94450A905D78
:101090009093C60008959C018A30910530F48091A8
:1010A000C00085FFFCCF822FB3C08436910588F441
:1010B0008091C00085FFFCCFC9016AE070E00E940A
:1010C000510A605D6093C6008091C00085FFFCCF2F
:1010D0009AC083E0283E380708F58091C00085FF5C
:1010E000FCCFC90164E670E00E94510A605D609324
:1010F000C6008091C00085FFFCCFC90164E670E0A6
:101100000E94510A6AE070E00E94510A605D60939B
:10111000C6008091C00085FFFCCF75C087E22031FA
:10112000380788F58091C00085FFFCCFC90168EEC3
:1011300073E00E94510A605D6093C6008091C00018
:1011400085FFFCCFC90168EE73E00E94510A64E696
:1011500070E00E94510A605D6093C6008091C000FB
:1011600085FFFCCFC90164E670E00E94510A6AE085
:1011700070E00E94510A605D6093C6008091C000DB
:1011800085FFFCCF40C08091C00085FFFCCFC90126
:1011900060E177E20E94510A605D6093C600809131
:1011A000C00085FFFCCFC90160E177E20E94510ACF
:1011B00068EE73E00E94510A605D6093C600809102
:1011C000C00085FFFCCFC90168EE73E00E94510AA0
:1011D00064E670E00E94510A605D6093C6008091F1
:1011E000C00085FFFCCFC90164E670E00E94510A8F
:1011F0006AE070E00E94510A605D6093C6008091D1
:10120000C00085FFFCCFC9016AE070E00E94510A6E
:10121000805D8093C600089520E0809154039091F2
:101220005503892B09F021E0822F08950F931F9316
:10123000CF93DF938C01EB01FC01808191810097BA
:1012400081F00E94250B28818091540390915503D1
:10125000821B91099093550380935403F8011182E6
:1012600010821882DF91CF911F910F910895EF9214
:10127000FF920F931F93CF93DF938C017B01EA01C1
:10128000FC0180819181009711F4188215C00E94A1
:10129000250B2881220F8091540390915503821BC6
:1012A00091099093550380935403F80111821082A1
:1012B000C701BE010E941609DF91CF911F910F91C6
:1012C000FF90EF900895DF92EF92FF920F931F939C
:1012D000CF93DF938C017B01D42EC42FD0E0CE01BD
:1012E0000E94780AF80191838083009761F08091D1
:1012F0005403909155038C0F9D1F90935503809339
:101300005403F701D082DF91CF911F910F91FF908D
:10131000EF90DF900895BF92CF92DF92EF92FF920D
:101320000F931F93CF93DF938C017B016A01B22E41
:10133000C22FD0E0CC0FDD1FCE010E94780AF80149
:1013400091838083009779F08091540390915503A5
:101350008C0F911D9093550380935403C701B601E0
:101360004B2D0E946309DF91CF911F910F91FF9048
:10137000EF90DF90CF90BF9008957F928F929F92D1
:10138000AF92BF92CF92DF92EF92FF920F931F9393
:10139000DF93CF93CDB7DEB77C015B01D42E8DB642
:1013A0009EB67EB68DB79EB7841B91090FB6F89492
:1013B0009EBF0FBE8DBF0DB71EB70F5F1F4FF7014A
:1013C00060817181C80150E00E94DE0B8D2D90E09C
:1013D0000E94780AF70180839183B8014D2D50E077
:1013E0000E94DE0BF70180819181892BD9F0F501F4
:1013F00080812D2D281B332727FD309580915403A4
:1014000090915503820F931F90935503809354033B
:10141000D082282D372DC9010FB6F8949EBF0FBE7C
:101420008DBF08C0882D972D9C010FB6F8943EBF44
:101430000FBE2DBF0FB6F8949EBE0FBE8DBECF91CE
:10144000DF911F910F91FF90EF90DF90CF90BF90B1
:10145000AF909F908F907F900895809154039091CA
:10146000550324E08030920748F0892F86958695B1
:1014700090E00E944B0880E393E004C00E944B0878
:101480008EE393E00E94D1070895991B79E004C090
:10149000991F961708F0961B881F7A95C9F78095B3
:1014A0000895AA1BBB1B51E107C0AA1FBB1FA617AB
:1014B000B70710F0A61BB70B881F991F5A95A9F7FD
:1014C00080959095BC01CD01089597FB092E0726C4
:1014D0000AD077FD04D0E5DF06D000201AF470951D
:1014E00061957F4F0895F6F7909581959F4F0895E8
:1014F000CF93DF93BC018230910510F462E070E07D
:10150000A0915803B0915903ED01E0E0F0E040E014
:1015100050E021C0888199818617970769F48A81F4
:101520009B81309719F09383828304C09093590371
:1015300080935803FE0134C06817790738F44115C9
:10154000510519F08417950708F4AC01FE018A8152
:101550009B819C01E9012097E9F641155105A9F10C
:10156000CA01861B970B049708F4BA01E0E0F0E08B
:101570002AC08D919C91119784179507F9F46417EF
:10158000750781F412968D919C911397309719F0FD
:101590009383828304C09093590380935803FD0181
:1015A00032964FC0CA01861B970BFD01E80FF91F49
:1015B0006193719302978D939C9343C0FD01828147
:1015C00093819C01D9011097A1F6809156039091C7
:1015D0005703892B41F480914C0390914D039093D4
:1015E00057038093560340914E0350914F0341158A
:1015F000510541F44DB75EB780914A0390914B037A
:10160000481B590B20915603309157032417350777
:10161000B0F4CA01821B930B8617970780F0AB01C9
:101620004E5F5F4F8417950750F0420F531F509342
:10163000570340935603F9016193719302C0E0E0B0
:10164000F0E0CF01DF91CF910895CF93DF93009722
:1016500009F450C0EC0122971B821A82A091580312
:10166000B0915903109709F140E050E0AC17BD0765
:1016700008F1BB83AA83FE0121913191E20FF31F90
:10168000AE17BF0779F48D919C911197280F391FE0
:101690002E5F3F4F3983288312968D919C9113972B
:1016A0009B838A834115510571F4D0935903C093EC
:1016B000580320C012968D919C911397AD0100970D
:1016C00011F0DC01D3CFFA01D383C2832191319190
:1016D000E20FF31FCE17DF0769F488819981280F85
:1016E000391F2E5F3F4FFA01318320838A819B810E
:1016F00093838283DF91CF910895A0E0B0E0E3E887
:10170000FBE00C94290CEC01A880B980CA80DB8036
:10171000A114B104C104D10441F484E2A82E89EDDE
:10172000B82E8BE5C82E87E0D82EC601B5012DE175
:1017300033EF41E050E00E94060C27EA31E440E03C
:1017400050E00E94E70B7B018C01C601B5012DE141
:1017500033EF41E050E00E94060CCA01B9012CEEC3
:1017600034EF4FEF5FEF0E94E70B6E0D7F1D801F80
:10177000911F97FF04C0615070408040904868837B
:1017800079838A839B839B013F77C901CDB7DEB7FD
:10179000EAE00C94450C0E947D0B089580E593E0EF
:1017A0000E947D0B0895A0E0B0E0809350039093D9
:1017B0005103A0935203B09353030895FB01DC013E
:1017C00002C001900D9241505040D8F70895629F99
:1017D000D001739FF001829FE00DF11D649FE00D29
:1017E000F11D929FF00D839FF00D749FF00D659F8A
:1017F000F00D9927729FB00DE11DF91F639FB00D89
:10180000E11DF91FBD01CF011124089597FB092E99
:1018100005260ED057FD04D04BD00AD0001C38F45A
:1018200050954095309521953F4F4F4F5F4F08950C
:10183000F6F790958095709561957F4F8F4F9F4FEC
:1018400008952F923F924F925F926F927F928F9264
:101850009F92AF92BF92CF92DF92EF92FF920F933F
:101860001F93CF93DF93CDB7DEB7CA1BDB0B0FB649
:10187000F894DEBF0FBECDBF09942A883988488806
:101880005F846E847D848C849B84AA84B984C8849C
:10189000DF80EE80FD800C811B81AA81B981CE0F93
:1018A000D11D0FB6F894DEBF0FBECDBFED01089578
:1018B000A1E21A2EAA1BBB1BFD010DC0AA1FBB1F54
:1018C000EE1FFF1FA217B307E407F50720F0A21BC6
:1018D000B30BE40BF50B661F771F881F991F1A9433
:1018E00069F760957095809590959B01AC01BD015D
:0818F000CF010895F894FFCF29
:1018F80052583A200D0A004572726F723A204C65B0
:101908006E6774687320646F206E6F74206D6174E5
:1019180063680D0A0073656E745F7061636B65744C
:101928005F6C656E203D20002C20726563656976CA
:1019380065645F7061636B65745F6C656E203D20E4
:10194800000D0A004572726F723A205061636B6530
:10195800747320646F206E6F74206D617463680DFA
:101968000A0073656E745F7061636B65745B005D1C
:10197800203D20002C2072656365697665645F7080
:1019880061636B65745B004572726F723A204D65D6
:101998006D6F7279206C65616B210D0A002D2D2DFC
:1019A8002D2D2D2D2D2D2D2D2D2D2D2D2D2D2D2D5F
:1019B8002D2D2D2D2D2D2D2D2D2D2D2D2D2D2D2D4F
:1019C8002D2D2D2D2D2D2D2D2D2D2D2D2D2D2D2D3F
:1019D8002D2D2D2D2D0D0A005465737420002066C1
:1019E80061696C65640D0A00416C6C2000207465A7
:1019F800737473207061737365640D0A000D0A00B7
:101A08002B2D2D2D2D2D2D2D2D2B2D2D2D2D2D2D02
:101A18002D2D2D2D2D2B2D2D2D2D2D2D2D2D2D2DF0
:101A28002D2D2B2D2D2D2D2D2D2D2D2B002D2D2D0F
:101A38002D2D2D2D2D2D2D2D2D2B2D2D2D2D2D2DD0
:101A48002D2D2B0D0A007C20486561646572207C71
:101A58002020436F6E74726F6C20207C2041646478
:101A680072657373696E67207C204C656E67746855
:101A7800207C004E4554205061636B657400202023
:101A8800436865636B73756D20207C20466F6F74A7
:101A98006572207C0D0A007C20200020207C20001C
:101AA800207C2000202000207C2020007C2000209A
:101AB800202000202020207C200020207C0D0A00EF
:101AC80053747566666564206672616D653A2000B8
:101AD80044726F7070696E67206672616D653A2036
:101AE80044657374696E6174696F6E2061646472B1
:101AF80065737320646F6573206E6F74206D6174F5
:101B0800636820646576696365730D0A00506163D4
:101B18006B65743A200054583A200D0A003078005A
:101B2800204B694220696E207573650D0A002042BA
:101B380020696E207573650D0A0020005A030000A5
:041B48000100000098
:00000001FF
