:100000000C943E000C945B000C945B000C945B0021
:100010000C945B000C945B000C945B000C945B00F4
:100020000C945B000C945B000C945B000C945B00E4
:100030000C945B000C945B000C945B000C945B00D4
:100040000C945B000C945B000C945B000C945B00C4
:100050000C945B000C945B000C945B000C945B00B4
:100060000C945B000C945B000C945B000C945B00A4
:100070000C945B000C945B000C945B0011241FBE7D
:10008000CFEFD0E1DEBFCDBF13E0A0E0B1E0E2E70B
:10009000FCE102C005900D92A032B107D9F713E040
:1000A000A0E2B3E001C01D92A832B107E1F70E94BF
:1000B0005D000C94370E0C9400000F931F93CF93A8
:1000C000DF930E94800688EE93E02CE231E0F90194
:1000D0003197F1F70197D9F780E091E00E949B06F4
:1000E000C0E0D0E00E94CD0A8E010F5F1F4F882331
:1000F00071F08BE391E00E949B06C8010E941507F6
:1001000088E491E00E949B0621E030E018C0E801FD
:10011000C80168E873E10E94400B892B39F4C801DB
:100120000E94150785E591E00E949B060055134C3F
:10013000C9F685E691E00E949B0620E030E0C90107
:10014000DF91CF911F910F91089580E00895FC01F8
:100150008DE7808315821782168282870895FC01BD
:100160008DE7808315821782168282870895FC01AD
:100170001182108212820895FC0111821082128273
:100180000895DF93CF9300D00F92CDB7DEB7FC0177
:100190008DE78083158217821682828714861386E4
:1001A0001586128A118A138A158A148A168ACE0134
:1001B000019697878687108A178A0F900F900F9065
:1001C000CF91DF910895DF93CF9300D00F92CDB7F9
:1001D000DEB7FC018DE78083158217821682828745
:1001E000148613861586128A118A138A158A148A30
:1001F000168ACE01019697878687108A178A0F90F4
:100200000F900F90CF91DF910895681708F4682F31
:10021000862F08950F931F93CF93DF93062FEC0142
:1002200010E008C089910E94A80688E791E00E942A
:100230009B061F5F1017B0F38AE791E00E949B06B0
:10024000DF91CF911F910F910895EF92FF920F933D
:100250001F93DF93CF9300D00F92CDB7DEB76983A2
:100260007A838B83082FE980FA8010E00AC0F701B7
:1002700081917F010E94A80688E791E00E949B0679
:100280001F5F1017A0F38AE791E00E949B060F9072
:100290000F900F90CF91DF911F910F91FF90EF90F2
:1002A00008952F923F924F925F926F927F928F921A
:1002B0009F92AF92BF92CF92DF92EF92FF920F93F5
:1002C0001F93DF93CF93CDB7DEB72B970FB6F8947C
:1002D000DEBF0FBECDBFDE2CE982FA820B831C830A
:1002E000E22F2D83932F3E834F83588769877A8728
:1002F0008B87E92E9D2C8F2C702E612E5E2ECF8049
:10030000D884462E372E282E85E0989FC0011124D0
:10031000B82EB3948BE08B1510F09CE0B92E86EFCD
:10032000F82EFB0C0B2D01708DE791E00E949B06CF
:10033000EE2069F010E005C08AEA91E00E949B0679
:100340001F5F1B15C8F38CEA91E00E949B068EEAA2
:1003500091E00E949B0687EC91E00E949B06EE20B4
:1003600011F1AF2CA69410E00A0D111DFF2405C059
:1003700088E791E00E949B06F3948F2D90E0801710
:100380009107B4F384EF91E00E949B0610E005C052
:1003900088E791E00E949B061F5F1A15C8F38FEF54
:1003A00091E00E949B0681E092E00E949B068DE70F
:1003B00091E00E949B06EE2069F010E005C08AEAF9
:1003C00091E00E949B061F5F1B15C8F38CEA91E029
:1003D0000E949B068EEA91E00E949B068AE192E0D1
:1003E0000E949B06892D0E94A8068EE192E00E9441
:1003F0009B06882D0E94A80688E791E00E949B0634
:10040000872D0E94A80683E292E00E949B06862D1B
:100410000E94A80687E292E00E949B06852D0E941A
:10042000A8068AE292E00E949B068E2D0E94A806F2
:100430008EE192E00E949B06E2E0EE1598F4FC2C1F
:10044000C6018C01F80181918F010E94A80688E7FE
:1004500091E00E949B06802F8F198E1598F38FE2F2
:1004600092E01FC0F2E0EF1679F4F60180810E945D
:10047000A80687E292E00E949B06F60181810E9415
:10048000A80683E292E00DC0F1E0EF1661F482E38A
:1004900092E00E949B06F60180810E94A80686E3F6
:1004A00092E00E949B06842D0E94A80687E292E0BB
:1004B0000E949B06832D0E94A8068AE292E00E9479
:1004C0009B06822D0E94A8068DE392E00E949B0667
:1004D0008DE791E00E949B06EE2069F010E005C0D8
:1004E0008AEA91E00E949B061F5F1B15C8F38CEA05
:1004F00091E00E949B068EEA91E00E949B062B965B
:100500000FB6F894DEBF0FBECDBFCF91DF911F9124
:100510000F91FF90EF90DF90CF90BF90AF909F90A2
:100520008F907F906F905F904F903F902F900895A5
:10053000AF92BF92CF92DF92EF92FF920F931F93F1
:10054000DF93CF93CDB7DEB7AC01CDB6DEB6DC011D
:1005500015968C911597895F082F10E07801089403
:10056000E108F108EDB7FEB7E01BF10B0FB6F89408
:10057000FEBF0FBEEDBF2DB73EB72F5F3F4F1196A9
:100580008C911197818312968C91D90111968C933D
:100590001197FA01838112968C9312978481139696
:1005A0008C931397858114968C9360E010C0862FEE
:1005B00090E05901A80EB91EDA011696ED91FC9152
:1005C0001797E80FF91F8081F50185836F5FDA01C6
:1005D00015968C91681758F3D8011297F901EA0F14
:1005E000FB1F1082F901EE0DFF1D1082F80163E080
:1005F000EE0FFF1F6A95E1F760E001C06F5F862F85
:1006000090E08E179F07D4F3A20FB31F8C91FA01CD
:1006100080872E0D3F1DD9018C9181870FB6F894EC
:10062000DEBE0FBECDBECF91DF911F910F91FF9027
:10063000EF90DF90CF90BF90AF9008958F929F92F0
:10064000AF92BF92CF92DF92EF92FF920F931F93E0
:10065000DF93CF9300D000D000D0CDB7DEB75C01E0
:100660004C835D83462F6E830C811D811B821A8211
:10067000E2E0EE2EF12CEC0EFD1E4250C7016E01A1
:100680000894C11CD11CB6010E94040949810F5F66
:100690001F4F8A819B81B80150E00E949B0D9924D5
:1006A0008E2CEF2CFC2CCD2C70E2D72E2CC0092DDB
:1006B00010E0E00FF11F80818E3721F54150882D29
:1006C0009E2D6F2D7C2D0E948D084A815B81BA0181
:1006D000600F711F298130E02F5F3F4F201B310BCE
:1006E0000F5F1F4F400F511F01501040CB01BA0147
:1006F000A9010E949B0DEA81FB81E00FF11F80811F
:100700008D25808393944981EA81FB81941678F248
:100710008DE7D5018C9315961C92159717961C9210
:100720001E9216971A968C931A97808111968C9325
:100730001197818112968C931297828113968C93D4
:100740001397838114968C93B5016B5F7F4FC5011E
:10075000069644810E940409F50145812A813B8166
:100760002B5F3F4F86819781B90150E00E949B0D1E
:10077000EA81FB818981E80FF11D32978191D501D2
:1007800018968C931897808119968C93CE010296B7
:10079000BE016F5F7F4F0E941508C50126960FB6F8
:1007A000F894DEBF0FBECDBFCF91DF911F910F91A7
:1007B000FF90EF90DF90CF90BF90AF909F908F9081
:1007C00008957F928F929F92AF92BF92CF92DF92C5
:1007D000EF92FF920F931F93DF93CF93CDB7DEB7C6
:1007E00064970FB6F894DEBF0FBECDBFEA86EF2C3C
:1007F000FB86F02E0C87012F1D87122F2E87932F3B
:100800003F87488B598B6A8B7B8B8C8BD92EA88822
:10081000B988C62E972E1B821A82492F495FCE01B6
:100820000296BE016F5F7F4F0E940409EA81FB813F
:10083000E082EA81FB81F182EA81FB810283EA8125
:10084000FB811383EA81FB81D48220E030E00AC07F
:10085000A20FB31FF501E20FF31F808115968C9351
:100860002F5F3F4FAA81BB812D1590F38981A80F7F
:10087000B11D1297CC928981EA81FB81E80FF11DAD
:1008800031979082DD2402E0802E912C8C0E9D1EEB
:100890005E010894A11CB11C1EE7712EB0E2CB2EA4
:1008A00030C0ED2CFF24EA81FB81EE0DFF1D80811D
:1008B0008D57823028F54F5FC401B5010E948D0825
:1008C0004A815B8187010F5F1F4FBA01600F711F63
:1008D000298130E02E193F094E0D5F1DCB01BA0171
:1008E000A9010E949B0DEA81FB81EE0DFF1D708224
:1008F000EA81FB81E00FF11F80818C258083D394F6
:10090000D3944981D41668F21D821C821E828E0106
:100910000C5F1F4F4E5FC801642F0E94B808EC8126
:10092000FD81ADE7FA2EF0822C813D812F5F3F4F94
:1009300049816A817B81C90150E00E949B0D8E81B3
:10094000EC81FD81E80FF11D3197F082CE01029616
:10095000BE016F5F7F4F0E941508DE011796F801F8
:1009600083E001900D928150E1F76F817885898550
:1009700090E064960FB6F894DEBF0FBECDBFCF9166
:10098000DF911F910F91FF90EF90DF90CF90BF907C
:10099000AF909F908F907F900895CF92DF92EF92CB
:1009A000FF920F931F93DF93CF93CDB7DEB72B97B3
:1009B0000FB6F894DEBF0FBECDBF7C01162F072FF8
:1009C0008BE0C82ED12CCE0CDF1CC601642F0E94F8
:1009D000B808F701458583859485612F702F50E015
:1009E0000E949B0D8E010F5F1F4FC801F7014385C9
:1009F000548565850E941E03D701F8018BE00190A4
:100A00000D928150E1F7C6010E94D607F70184815B
:100A100081508E3F08F465C08281882321F0878948
:100A2000882309F05EC0F701178A8281882361F468
:100A3000C701419665810E94B808F7014389668124
:100A400077818189928911C0F701818187010C5ECC
:100A50001F4F882371F4C80165810E94B808F7010F
:100A60004689668177818489958950E00E949B0D33
:100A70002DC0F70165818689680FC8010E9436087C
:100A8000F7014581868990E0841B91092489358985
:100A9000280F391F66817781C90150E00E949B0DA4
:100AA000F70191818281981789F4C701419666897F
:100AB0000E94B808F70146896489758981899289FD
:100AC00050E00E949B0DC8010E94D607C701069600
:100AD00025E030E0E20EF31EB7010E94150880E029
:100AE00001C081E02B960FB6F894DEBF0FBECDBFDC
:100AF000CF91DF911F910F91FF90EF90DF90CF90FA
:100B000008952F923F924F925F926F927F928F92B1
:100B10009F92AF92BF92CF92DF92EF92FF920F938C
:100B20001F93DF93CF93CDB7DEB727970FB6F89417
:100B3000DEBF0FBECDBF9F838E83062FF72E142FEF
:100B40002C83442309F4C3C020E0842F90E08770F5
:100B50009070892B09F021E0812E869486948694EA
:100B6000820E6E817F81605F7F4F8E819F810E96A6
:100B7000482D0E94DA08482D50E081E090E0841B67
:100B8000950B63E0880F991F6A95E1F7180F198399
:100B900036E0432E512C8E819F81480E591E25E050
:100BA000622E712C680E791E0B969B838A83202FF0
:100BB0003F2DC9015C019924CC24DD241A0108943D
:100BC00021083108982D91509D837EC0892D90E099
:100BD0008215930511F018E001C01981AE81BF8123
:100BE00011969C921197ED811296EC9312971396A1
:100BF0001C921397FC811496FC93C201B301412F00
:100C00000E940409950190E00DC0AE81BF81169647
:100C1000ED91FC911797E90FF11DD9018D919D017F
:100C200080839F5F911788F38E819F810E94980235
:100C3000EE81FF81E080F180028113812481358182
:100C4000468157816085718582850E94E103AE816E
:100C5000BF811B966C931B971C967C931C97482F07
:100C60001D968C931D971E966D917C911F976C0D10
:100C70007D1DCB016E5F7F4F0E940409AE81BF8155
:100C80001E96ED91FC911F97EC0DFD1D1D964C914C
:100C90001D971B966C911B971C967C91808191816E
:100CA00050E00E949B0DC201B3010E9415088A8189
:100CB0009B810E94D6079394E3E0F0E0CE0EDF1E06
:100CC00088E090E0A80EB91E981408F47FCF27960C
:100CD0000FB6F894DEBF0FBECDBFCF91DF911F914D
:100CE0000F91FF90EF90DF90CF90BF90AF909F90CB
:100CF0008F907F906F905F904F903F902F900895CE
:100D00001092C5008DE48093C40088E18093C100F7
:100D100086E08093C20008958091C00087FFFCCFD9
:100D20008091C6000895982F8091C00085FFFCCF68
:100D30009093C6000895FC0107C08091C00085FF14
:100D4000FCCF9093C600319690819923B1F7089516
:100D50001F93182F83E492E00E949B06912F929597
:100D60009F701F709A3030F48091C00085FFFCCFD7
:100D7000905D05C08091C00085FFFCCF995C909389
:100D8000C6001A3030F48091C00085FFFCCF105DA2
:100D900005C08091C00085FFFCCF195C1093C60090
:100DA0001F910895282F8A3040F48091C00085FF5C
:100DB000FCCF205D2093C6000895843680F4809196
:100DC000C00085FFFCCF822F6AE00E94340B805D5B
:100DD0008093C6008091C00085FFFCCF1EC080912B
:100DE000C00085FFFCCF822F64E60E94340B805D3B
:100DF0008093C6008091C00085FFFCCF822F64E6FF
:100E00000E94340B892F6AE00E94340B805D80932E
:100E1000C6008091C00085FFFCCF822F6AE00E944F
:100E2000340B905D9093C60008959C018A30910523
:100E300030F48091C00085FFFCCF822FB3C0843690
:100E4000910588F48091C00085FFFCCFC9016AE05C
:100E500070E00E94400B605D6093C6008091C0000E
:100E600085FFFCCF9AC083E0283E380708F58091C3
:100E7000C00085FFFCCFC90164E670E00E94400B12
:100E8000605D6093C6008091C00085FFFCCFC90102
:100E900064E670E00E94400B6AE070E00E94400B44
:100EA000605D6093C6008091C00085FFFCCF75C077
:100EB00087E22031380788F58091C00085FFFCCF9C
:100EC000C90168EE73E00E94400B605D6093C6004C
:100ED0008091C00085FFFCCFC90168EE73E00E94DD
:100EE000400B64E670E00E94400B605D6093C600BA
:100EF0008091C00085FFFCCFC90164E670E00E94CC
:100F0000400B6AE070E00E94400B605D6093C60099
:100F10008091C00085FFFCCF40C08091C00085FF5C
:100F2000FCCFC90160E177E20E94400B605D6093F5
:100F3000C6008091C00085FFFCCFC90160E177E267
:100F40000E94400B68EE73E00E94400B605D60936E
:100F5000C6008091C00085FFFCCFC90168EE73E038
:100F60000E94400B64E670E00E94400B605D60935D
:100F7000C6008091C00085FFFCCFC90164E670E027
:100F80000E94400B6AE070E00E94400B605D60933D
:100F9000C6008091C00085FFFCCFC9016AE070E007
:100FA0000E94400B805D8093C6000895CF93DF932D
:100FB000EC0188819981009779F00E94140C2A81B4
:100FC0008091200390912103821B9109909321032A
:100FD00080932003198218821A82DF91CF9108959D
:100FE0000F931F93CF93DF938C01EB01FC01808162
:100FF00091810097A1F00E94140C888193E0899F51
:10100000802D11242091200330912103281B3109C8
:101010003093210320932003F8011182108218825B
:10102000DF91CF911F910F9108950F931F93CF934D
:10103000DF938C01EB01FC0180819181009781F0AD
:101040000E94140C28818091200390912103821B1F
:1010500091099093210380932003F801118210825B
:101060001882DF91CF911F910F9108951F93CF9315
:10107000DF93EC01162F8881998170E00E94CD0CDE
:1010800099838883009789F08A81212F281B332731
:1010900027FD30958091200390912103820F931FAB
:1010A00090932103809320031A83DF91CF911F91A6
:1010B0000895FF920F931F93CF93DF938C01EB0161
:1010C000F42E63E0469FB0011124FC0180819181E0
:1010D0000E94CD0CF801918380830097C1F02F2DE1
:1010E00030E08881281B3109C901880F991F820FC0
:1010F000282F332727FD30958091200390912103DD
:10110000820F931F9093210380932003F882DF9135
:10111000CF911F910F91FF900895FF920F931F930E
:10112000CF93DF938C01EB01F42EFC018081918140
:10113000642F70E00E94CD0CF801918380830097AA
:1011400089F088812F2D281B332727FD309580912A
:10115000200390912103820F931F9093210380938A
:101160002003F882DF91CF911F910F91FF90089596
:10117000FF920F931F93CF93DF938C01F62EC62F10
:10118000D0E0CE010E94670BF80191838083009725
:1011900059F080912003909121038C0F9D1F909313
:1011A000210380932003F282DF91CF911F910F9151
:1011B000FF900895DF92EF92FF920F931F93CF93CA
:1011C000DF938C017B01D42E83E0489FE001112442
:1011D000CE010E94670BF80191838083009761F034
:1011E00080912003909121038C0F911D90932103F6
:1011F00080932003F701D082DF91CF911F910F914F
:10120000FF90EF90DF900895DF92EF92FF920F939F
:101210001F93CF93DF938C017B01D42EC42FD0E09A
:10122000CE010E94670BF80191838083009761F0E3
:1012300080912003909121038C0F9D1F9093210397
:1012400080932003F701D082DF91CF911F910F91FE
:10125000FF90EF90DF9008958091200390912103FB
:1012600024E08030920748F0892F8695869590E09B
:101270000E94150786E492E004C00E94150784E5E9
:1012800092E00E949B060895AF92BF92CF92DF92A8
:10129000EF92FF920F931F93DF93CF93CDB7DEB7FB
:1012A000C854D0400FB6F894DEBF0FBECDBFFE01CC
:1012B0007996DE011196CF01C096119211921D927E
:1012C000E817F907D1F700E010E0F9E1CF2ED12CB3
:1012D000CC0EDD1E7E010894E11CF11CC801880FB4
:1012E000991FB701600F711F8C0D9D1D40E80E9472
:1012F00004090F5F1F4F0831110581F780E692E066
:101300000E949B06FF2479E1A72EB12CAC0EBD1ED6
:101310006E010894C11CD11C20C00E94BD0C980114
:10132000220F331FF601E00FF11F60E870E00E940A
:10133000540B482FC501820F931FBF010E948D08D7
:101340000F5F1F4F0831110541F780E692E00E94C0
:101350009B06F39483E0F81619F000E010E0DDCF6F
:1013600000E010E059E1C52ED12CCC0EDD1E7E012F
:101370000894E11CF11CC801880F991FB701600F88
:10138000711F8C0D9D1D0E9415080F5F1F4F0831A6
:10139000110589F7C85BDF4F0FB6F894DEBF0FBEAB
:1013A000CDBFCF91DF911F910F91FF90EF90DF9014
:1013B000CF90BF90AF900895CF92DF92EF92FF92BF
:1013C0000F931F93DF93CF9300D000D000D0CDB701
:1013D000DEB7E62F69837A838B83522F2C833D837C
:1013E000942F4E838C01011749F4252FC901DC018C
:1013F0002E2F372FC901FC0110E044C083E692E094
:101400000E949B0681E892E00E949B06802F0E942A
:10141000D20687E992E00E949B06812F0E94D206A5
:1014200028C07F0191916D018D91981751F186EB44
:1014300092E00E949B0684ED92E00E949B06812F21
:101440000E94D20685EE92E00E949B06F701808101
:101450000E94A8068AEE92E00E949B06812F0E94BD
:10146000D20685EE92E00E949B06F60180810E94E2
:10147000A80683EB92E00E949B0681E090E00E9428
:10148000370E1F5F101768F280E026960FB6F894AB
:10149000DEBF0FBECDBFCF91DF911F910F91FF90A7
:1014A000EF90DF90CF900895DF92EF92FF920F932D
:1014B000DF93CF9300D000D00F92CDB7DEB77C0181
:1014C00000E083E0D82E1CC00D9D900111243D83C7
:1014D0002C83D7011E96ED91FC911F97E20FF31F0D
:1014E00060817181C70142810E94CD04F701868528
:1014F00097852C813D81820F931F0E94D6070F5F35
:10150000D70150968C910817F8F2C7010E96E0E1CA
:10151000F0E0EE0EFF1EB7010E94F007DE0111960B
:10152000F701319683E001900D928150E1F76981D6
:101530007A818B8190E00F900F900F900F900F9019
:10154000CF91DF910F91FF90EF90DF9008950F936F
:101550001F93CF93DF938C01EB010E94BD0C60E2DF
:1015600070E00E94540B682F6F5FCE010E94B80894
:1015700080E004C0E80FF11D80838F5F4A81E8811D
:10158000F9818417B8F3C801BF0120E00E948105EA
:10159000DF91CF911F910F910895CF92DF92EF923B
:1015A000FF920F931F93DF93CF93CDB7DEB7A19731
:1015B0000FB6F894DEBF0FBECDBF8E01095F1F4F7F
:1015C000C8010E94E3007E010894E11CF11CC701E0
:1015D0000E94BC0094E0C92ED12CCC0EDD1EC601A9
:1015E0000E94BC00C801B7010E94A70AC8010E945E
:1015F000540A6F8F78A389A3D601FE017F9683E0FA
:1016000001900D928150E1F769817A818B812C8163
:101610003D814E810E94DC09CE0101960E94D607D1
:10162000CE0104960E94D607809122039091230355
:10163000892B51F081E093E00E949B060E942C09C7
:1016400081E090E00E94370E80E0A1960FB6F894FA
:10165000DEBF0FBECDBFCF91DF911F910F91FF90E5
:10166000EF90DF90CF900895991B79E004C0991F07
:10167000961708F0961B881F7A95C9F780950895EC
:10168000AA1BBB1B51E107C0AA1FBB1FA617B707A8
:1016900010F0A61BB70B881F991F5A95A9F78095C4
:1016A0009095BC01CD01089597FB092E07260AD01D
:1016B00077FD04D0E5DF06D000201AF4709561951F
:1016C0007F4F0895F6F7909581959F4F0895CF939A
:1016D000DF93BC018230910510F462E070E0A091CC
:1016E0002603B0912703ED01E0E0F0E040E050E098
:1016F00021C0888199818617970769F48A819B8127
:10170000309719F09383828304C0909327038093CA
:101710002603FE0134C06817790738F441155105D6
:1017200019F08417950708F4AC01FE018A819B81AA
:101730009C01E9012097E9F641155105A9F1CA017B
:10174000861B970B049708F4BA01E0E0F0E02AC08A
:101750008D919C91119784179507F9F4641775077B
:1017600081F412968D919C911397309719F0938381
:10177000828304C09093270380932603FD01329651
:101780004FC0CA01861B970BFD01E80FF91F61933B
:10179000719302978D939C9343C0FD018281938145
:1017A0009C01D9011097A1F6809124039091250303
:1017B000892B41F48091180390911903909325038C
:1017C0008093240340911A0350911B034115510546
:1017D00041F44DB75EB78091160390911703481BF3
:1017E000590B209124033091250324173507B0F4B9
:1017F000CA01821B930B8617970780F0AB014E5FDF
:101800005F4F8417950750F0420F531F50932503E5
:1018100040932403F9016193719302C0E0E0F0E08A
:10182000CF01DF91CF910895CF93DF93009709F413
:1018300050C0EC0122971B821A82A0912603B0911E
:101840002703109709F140E050E0AC17BD0708F1FD
:10185000BB83AA83FE0121913191E20FF31FAE17E2
:10186000BF0779F48D919C911197280F391F2E5F36
:101870003F4F3983288312968D919C9113979B83B8
:101880008A834115510571F4D0932703C093260331
:1018900020C012968D919C911397AD01009711F085
:1018A000DC01D3CFFA01D383C28321913191E20FBE
:1018B000F31FCE17DF0769F488819981280F391F3C
:1018C0002E5F3F4FFA01318320838A819B8193836E
:1018D0008283DF91CF910895A0E0B0E0E2E7FCE0E1
:1018E0000C94E60DEC01A880B980CA80DB80A114BD
:1018F000B104C104D10441F484E2A82E89EDB82ECC
:101900008BE5C82E87E0D82EC601B5012DE133EF57
:1019100041E050E00E94C30D27EA31E440E050E08E
:101920000E94A40D7B018C01C601B5012DE133EFAE
:1019300041E050E00E94C30DCA01B9012CEE34EF22
:101940004FEF5FEF0E94A40D6E0D7F1D801F911F52
:1019500097FF04C06150704080409048688379834D
:101960008A839B839B013F77C901CDB7DEB7EAE04D
:101970000C94020E0E946C0C08958CE193E00E947E
:101980006C0C0895A0E0B0E080931C0390931D03BD
:10199000A0931E03B0931F030895A0E0B0E0E3ED11
:1019A000FCE00C94E40D8C01009729F4CB010E941B
:1019B000670B8C01BAC09EEFE92E9FEFF92EE00E67
:1019C000F11E5801A60EB71EAE14BF0408F4ABC03A
:1019D0008EEF882E8FEF982E8A0C9B1CE701488192
:1019E000598146175707B8F04530510508F49DC096
:1019F000CA0104978617970708F497C042505040D1
:101A0000461B570BF4015183408379836883C501DA
:101A10000E94140C8AC06B01C41AD50AE0912603F7
:101A2000F0912703A0E0B0E0C0E0D0E042C0E815AC
:101A3000F905A1F5208131812C153D0578F1C90109
:101A400002968C159D05A8F04E5F5F4F420F531F05
:101A5000E7015983488322813381109729F0139637
:101A60003C932E93129761C0309327032093260353
:101A70005CC0225030402C193D09318320831097DF
:101A800029F01396FC93EE93129704C0F09327036A
:101A9000E0932603F7017183608347C080819181C1
:101AA000C817D90708F4EC01DF01828193819C01FA
:101AB000F901309709F0BBCF400F511F80912403EB
:101AC0009091250384179507E9F4C617D707D0F43A
:101AD00020911A0330911B032115310541F42DB7D4
:101AE0003EB78091160390911703281B390BA2165D
:101AF000B306C8F4B0922503A0922403E7017983CA
:101B0000688313C0CB010E94670BEC01009759F06A
:101B1000F70140815181B8010E949B0DC8010E94CC
:101B2000140C8E0102C000E010E0C801CDB7DEB792
:101B3000ECE00C94000EFB01DC0102C001900D9260
:101B400041505040D8F70895629FD001739FF00133
:101B5000829FE00DF11D649FE00DF11D929FF00D3D
:101B6000839FF00D749FF00D659FF00D9927729F74
:101B7000B00DE11DF91F639FB00DE11DF91FBD01FF
:101B8000CF011124089597FB092E05260ED057FD8D
:101B900004D04BD00AD0001C38F4509540953095B5
:101BA00021953F4F4F4F5F4F0895F6F790958095E1
:101BB000709561957F4F8F4F9F4F08952F923F9261
:101BC0004F925F926F927F928F929F92AF92BF924D
:101BD000CF92DF92EF92FF920F931F93CF93DF93F9
:101BE000CDB7DEB7CA1BDB0B0FB6F894DEBF0FBE56
:101BF000CDBF09942A88398848885F846E847D84A3
:101C00008C849B84AA84B984C884DF80EE80FD80A4
:101C10000C811B81AA81B981CE0FD11D0FB6F8941A
:101C2000DEBF0FBECDBFED010895A1E21A2EAA1BA3
:101C3000BB1BFD010DC0AA1FBB1FEE1FFF1FA2177C
:101C4000B307E407F50720F0A21BB30BE40BF50B79
:101C5000661F771F881F991F1A9469F76095709502
:101C6000809590959B01AC01BD01CF010895F8943A
:021C7000FFCFA4
:101C72002D2D2D2D2D2D2D2D2D2D2D2D2D2D2D2D92
:101C82002D2D2D2D2D2D2D2D2D2D2D2D2D2D2D2D82
:101C92002D2D2D2D2D2D2D2D2D2D2D2D2D2D2D2D72
:101CA2002D2D2D2D2D2D2D2D0D0A004572726F72A9
:101CB2003A20546573742000206661696C65642063
:101CC2003A280D0A0020746573747320706173736F
:101CD20065640D0A00416C6C207465737420706138
:101CE20073736564210D0A0020000D0A002B2D2D4F
:101CF2002D2D2D2D2D2D2B2D2D2D2D2D2D2D2D2D14
:101D02002D2D2B2D2D2D2D2D2D2D2D2D2D2D2D2B05
:101D12002D2D2D2D2D2D2D2D2B002D002B002D2D7C
:101D22002D2D2D2D2D2D2D2D2D2D2B2D2D2D2D2DE3
:101D32002D2D2D2B0D0A007C2048656164657220D3
:101D42007C2020436F6E74726F6C20207C20416473
:101D52006472657373696E67207C204C656E67746C
:101D620068207C004E4554205061636B6574007C92
:101D7200002020436865636B73756D20207C2046CC
:101D82006F6F746572207C0D0A007C202000202079
:101D92007C2000207C2000202000207C2020007C51
:101DA200200020202000202020207C200020207CD9
:101DB2000D0A00307800204B694220696E2075734D
:101DC200650D0A00204220696E207573650D0A00B8
:101DD2000D0A004572726F723A204C656E67746824
:101DE2007320646F206E6F74206D617463680D0AD6
:101DF2000073656E745F7061636B65742E6C656EE3
:101E0200677468203D20002C2072656365697665E1
:101E1200645F7061636B65742E6C656E67746820B5
:101E22003D20000D0A004572726F723A20506163C4
:101E32006B65747320646F206E6F74206D617463C0
:101E4200680D0A0073656E745F7061636B65742E52
:101E52007074725B005D203D20002C20726563650A
:101E6200697665645F7061636B65742E7074725B12
:101E7200004572726F723A204D656D6F7279206CF7
:101E820065616B0D0A0020002803000001000000BC
:00000001FF
