:100000000C943E000C945B000C945B000C945B0021
:100010000C945B000C945B000C945B000C945B00F4
:100020000C945B000C945B000C945B000C945B00E4
:100030000C945B000C945B000C945B000C945B00D4
:100040000C945B000C945B000C945B000C945B00C4
:100050000C945B000C945B000C945B000C945B00B4
:100060000C945B000C945B000C945B000C945B00A4
:100070000C945B000C945B000C945B0011241FBE7D
:10008000CFEFD0E1DEBFCDBF14E0A0E0B1E0ECEAFD
:10009000F8E102C005900D92A23EB107D9F714E035
:1000A000A2EEB4E001C01D92A83EB107E1F70E94A4
:1000B0007E060C94540C0C940000FC018DE78083A8
:1000C00015821782168282870895FC018DE780834E
:1000D00015821782168282870895FC018DE780833E
:1000E00015821782168282871486138615861786D4
:1000F0001686108A138A128A148A118A0895FC01BE
:100100008DE7808315821782168282871486138674
:10011000158617861686108A138A128A148A118AFF
:100120000895681708F4682F862F08950F931F937A
:10013000CF93DF93062FEC0110E007C089910E9456
:10014000E40880E20E94CF081F5F1017B8F380E038
:1001500091E00E94D708DF91CF911F910F910895F0
:100160002F923F924F925F926F927F928F929F92C7
:10017000AF92BF92CF92DF92EF92FF920F931F93B5
:10018000DF93CF93CDB7DEB72B970FB6F894DEBFD2
:100190000FBECDBFDE2CE982FA820B831C83E22FD7
:1001A0002D83932F3E834F83588769877A878B8768
:1001B000E92E9D2C8F2C702E612E5E2ECF80D88440
:1001C000462E372E282E85E0989FC0011124B82E88
:1001D000B3948BE08B1510F09CE0B92E86EFF82ECF
:1001E000FB0C0B2D017083E091E00E94D708EE20FC
:1001F00059F010E004C08DE20E94CF081F5F1B156C
:10020000D0F38BE20E94CF0880E391E00E94D708F0
:1002100089E491E00E94D708EE20F9F0AF2CA69473
:1002200010E00A0D111DFF2404C080E20E94CF08D7
:10023000F3948F2D90E080179107BCF386E791E04F
:100240000E94D70810E004C080E20E94CF081F5F20
:100250001A15D0F38CE70E94CF0881E891E00E9444
:10026000D70883E091E00E94D708EE2059F010E013
:1002700004C08DE20E94CF081F5F1B15D0F38BE2F4
:100280000E94CF0880E391E00E94D7088AE991E0BC
:100290000E94D708892D0E94E4088EE991E00E940F
:1002A000D708882D0E94E40880E20E94CF08872D9D
:1002B0000E94E40883EA91E00E94D708862D0E94FC
:1002C000E40887EA91E00E94D708852D0E94E4089F
:1002D0008AEA91E00E94D7088E2D0E94E4088EE9F8
:1002E00091E00E94D708E2E0EE1590F4FC2CC601E4
:1002F0008C01F80181918F010E94E40880E20E9444
:10030000CF08802F8F198E15A0F38FEA91E01FC0C0
:10031000F2E0EF1679F4F60180810E94E40887EAA2
:1003200091E00E94D708F60181810E94E40883EAE7
:1003300091E00DC0F1E0EF1661F482EB91E00E94D4
:10034000D708F60180810E94E40886EB91E00E94C4
:10035000D708842D0E94E40887EA91E00E94D7081C
:10036000832D0E94E4088AEA91E00E94D708822D3A
:100370000E94E4088DEB91E00E94D70883E091E0B1
:100380000E94D708EE2059F010E004C08DE20E94D0
:10039000CF081F5F1B15D0F38BE20E94CF0880E3CC
:1003A00091E00E94D7082B960FB6F894DEBF0FBEDF
:1003B000CDBFCF91DF911F910F91FF90EF90DF9014
:1003C000CF90BF90AF909F908F907F906F905F90F5
:1003D0004F903F902F900895CF92DF92EF92FF922F
:1003E0000F931F93DF93CF93CDB7DEB79C01CDB6AC
:1003F000DEB6DC0115968C9115978B5FE82EFF24F5
:10040000EDB7FEB7EE19FF090FB6F894FEBF0FBEA9
:10041000EDBF0DB71EB70F5F1F4F11968C9111974F
:10042000818312968C91D80111968C931197F901C2
:10043000838112968C931297848113968C931397D1
:10044000858114968C9340E010C0842F90E0B80111
:10045000680F791FD9011696ED91FC911797E80F57
:10046000F91F8081FB0185834F5FD90115968C911F
:10047000481758F320E030E040E050E0A1EFBFEF34
:1004800016C0F801E40FF51FF081E0E02E273F27AA
:1004900068E0C901880F991F37FF04C09C012A2713
:1004A0003B2701C09C016150A1F74F5F5F4F4E1584
:1004B0005F053CF3C9010FB6F894DEBE0FBECDBE9A
:1004C000CF91DF911F910F91FF90EF90DF90CF9030
:1004D0000895CF93DF93EC010E94EC01382F8885BB
:1004E000891719F420E08985831321E0822FDF9199
:1004F000CF910895AF92BF92CF92DF92EF92FF9289
:100500000F931F93DF93CF9300D00F92CDB7DEB739
:100510006C011B821A82E2E0EE2EF12CEC0EFD1E25
:10052000DC011D964C914250C7018E010F5F1F4F99
:10053000B8010E9420074981F601238534852F5F89
:100540003F4F8A819B81B90150E00E94B80BBB24C8
:10055000AE2CEF2CF02E012F1DC04B2D50E0DF01F3
:10056000A40FB51F8C918E37A1F430E0241B350BFE
:100570004F5F5F4F4E0F5F1FCD01BA01A9010E946F
:10058000B80B498141508A2D9E2D6F2D702F0E94EE
:100590004807B3942981EA81FB81B216F0F2808189
:1005A000D60111968C931197818112968C93129794
:1005B000828113968C931397838114968C93B60142
:1005C0006B5F7F4FC601069644810E942007F601AB
:1005D00045812A813B812B5F3F4F86819781B901FD
:1005E00050E00E94B80BEA81FB818981E80FF11D80
:1005F00032978191D60118968C931897808119961D
:100600008C93CE010296BE016F5F7F4F0E94FF0662
:100610000F900F900F90CF91DF911F910F91FF904E
:10062000EF90DF90CF90BF90AF9008952F923F92C0
:100630004F925F926F927F928F929F92AF92BF92F2
:10064000CF92DF92EF92FF920F931F93DF93CF939E
:1006500000D00F92CDB7DEB75C012DB63EB61B823F
:100660001A82DC0115964C91495FCE010296BE01BB
:100670006F5F7F4F0E942007EA81FB81D5011196B1
:100680008C9111978083EA81FB8112968C9112974D
:100690008183EA81FB8113968C9113978283EA818F
:1006A000FB8114968C9114978383EA81FB811596C4
:1006B0008C91848320E00EC0822F90E0A80FB91F98
:1006C000F50146815781480F591FFA01808115961F
:1006D0008C932F5FD50115968C91AA81BB81281729
:1006E00058F38981A80FB11D1297F50180858C936D
:1006F0008981EA81FB81E80FF11D3197D5011996B7
:100700008C9180839924A2E04A2E512C4C0E5D1EC0
:100710003E010894611C711CFEE78F2E50C0C92C4D
:10072000DD24EA81FB81EC0DFD1D80818D57823037
:1007300008F044C0FDB6EEB64F5FC201B3010E949F
:100740004807E981F0E0CF018C199D092DB73EB72C
:10075000281B390B0FB6F8943EBF0FBE2DBF0DB747
:100760001EB70F5F1F4FFC012A813B812C0D3D1DE1
:10077000C801B901AF010E94B80B0894C11CD11C7B
:100780004A815B814C0D5D1D0894C108D108298107
:1007900030E02C193D09CA01B801A9010E94B80B2B
:1007A000EA81FB81EC0DFD1D808293942F2D3E2D5F
:1007B000C9010FB6F8949EBF0FBE8DBF93944981B7
:1007C000941608F4ACCFB501635F7F4F4E5FC5014F
:1007D0000B960E942007D5011B96ED91FC911C976A
:1007E0001DE710831B962D913C911C972F5F3F4F67
:1007F00049816A817B81C90150E00E94B80BF501F3
:1008000085850384F485E02DE80FF11D3197108371
:10081000CE010296BE016F5F7F4F0E94FF060FB6AA
:10082000F8943EBE0FBE2DBE0F900F900F90CF914B
:10083000DF911F910F91FF90EF90DF90CF90BF90CD
:10084000AF909F908F907F906F905F904F903F9070
:100850002F900895EF92FF920F931F93CF93DF9302
:10086000EC01162F072F83EC91E00E94D7084D85ED
:100870008B859C85612F702F50E00E94B80BCE01B4
:100880000E947A02BE01635F7F4FCE010B960E94E9
:10089000FF068C8181508E3F18F487ED91E00AC0ED
:1008A0008989882351F099818A81981709F4198AD6
:1008B00084E192E00E94D708A0C0CE010E946902A4
:1008C0009A81882361F0992339F084E592E00E94AF
:1008D000D70881E0898B91C08BE892E0EBCF992318
:1008E000F1F485EB92E00E94D7088E819F816D81A3
:1008F0000E949600BE016C5E7F4FCE0142964D81F4
:100900000E9420074C896E817F818A899B8950E0F3
:100910000E94B80B80E091E00E94D70868C08981EE
:100920008E01025F1F4FB0E1EB2EF12CEC0EFD1E8D
:100930008823B9F4C801B7014D810E942007488976
:100940006E817F818E859F8550E00E94B80B87EC79
:1009500092E00E94D7088E859F8568890E94960044
:1009600046C04D818889480FC801B7010E944807D9
:100970004D81888990E0841B91092E853F85280F41
:10098000391F6E817F81C90150E00E94B80B9981A7
:100990008A81981718F488EE92E002C082EF92E004
:1009A0000E94D70888EF92E00E94D7088E859F8525
:1009B00068890E94960099818A819817C1F4BE01C6
:1009C0006C5E7F4FCE01429648890E94200748897D
:1009D0006E857F858A899B8950E00E94B80B80E0F4
:1009E00091E00E94D708C801B7010E94FF06CE011E
:1009F00006962596BE010E94FF06DF91CF911F91BA
:100A00000F91FF90EF9008953F924F925F926F92F7
:100A10007F928F929F92AF92BF92CF92DF92EF928E
:100A2000FF920F931F93CF93DF93EC012B01322E94
:100A3000242F269526952695215030E0842F90E08E
:100A400087709070892B09F031E0F22EF30E8F2D14
:100A500090E053E0880F991F5A95E1F7E42EE81AC9
:100A600046E0A42EB12CAC0EBD1E35E0C32ED12C19
:100A7000CC0EDD1E2BE0622E712C6C0E7D1E9DE0D7
:100A8000892E912C8C0E9D1E00E080E193E00E9447
:100A9000D7080F1511F41E2D01C018E00983FA8242
:100AA0001B823C82C501B601412F0E942007A02F66
:100AB000B0E083E0AA0FBB1F8A95E1F7A40DB51D36
:100AC00090E007C0EE81FF81E90FF11D8D918083D9
:100AD0009F5F9117B8F3CE010E94EC019887898738
:100AE000CE010E941603C501B6010E94FF0682E2F4
:100AF00093E00E94D7086B857C85CE014D850E94CE
:100B00002A04C301B4010E94FF060F5FF01608F02B
:100B1000BCCFDF91CF911F910F91FF90EF90DF90AD
:100B2000CF90BF90AF909F908F907F906F905F908D
:100B30004F903F9008956F927F929F92AF92BF9295
:100B4000CF92DF92EF92FF920F931F93DF93CF9399
:100B5000CDB7DEB77C016DB67EB60E94A80B68E10A
:100B600070E00E943F0A982E9394892D90E02DB753
:100B70003EB7281B390B0FB6F8943EBF0FBE2DBFF2
:100B8000CDB6DEB60894C11CD11C00E010E05C01BB
:100B90000DC00E94A80BF601E00FF11F62E070E0AB
:100BA0000E943F0A835880830F5F1F4F0A151B0561
:100BB00080F3C701B601492D2FEF0E940405F7010C
:100BC0003489391511F420E02EC081E493E00E94AD
:100BD000D70886E693E00E94D708892D0E941B095A
:100BE00080E893E00E94D70883E893E00E94D7084A
:100BF000F70184890E941B0980E893E010C0A22FAE
:100C0000B0E0F701828993898A0F9B1FAC0DBD1D4F
:100C1000FC0190818C91981729F08DE993E00E9456
:100C2000D7081AC02F5F231750F383EC93E00E947C
:100C3000D708C701429624E130E0E20EF31EB70167
:100C40000E94FF060E94F506882339F087EE93E0A4
:100C50000E94D7080E94B80781E00FB6F8947EBEC4
:100C60000FBE6DBECF91DF911F910F91FF90EF905E
:100C7000DF90CF90BF90AF909F907F906F9008953E
:100C80000F931F93DF93CF93CDB7DEB767970FB660
:100C9000F894DEBF0FBECDBF8E010F5F1F4FC8019E
:100CA0000E947F00C8010E949B05882381F08CEF81
:100CB00093E00E94D70881E090E00E945E0982E004
:100CC00094E00E94D70881E090E00E94540C8CE0F0
:100CD00094E00E94D70881E090E00E945E0981E1E3
:100CE00094E00E94D70867960FB6F894DEBF0FBE57
:100CF000CDBFCF91DF911F910F9108957F928F9279
:100D00009F92AF92BF92CF92DF92EF92FF920F939A
:100D10001F93DF93CF93CDB7DEB769970FB6F894E3
:100D2000DEBF0FBECDBF0E948F0881E294E00E941B
:100D3000D7088E010D5F1F4FC8010E947F007E0102
:100D40000894E11CF11CC7010E94D007F98EE88EBF
:100D50001A830983702E812E9E2CCF2C8CE2A82E14
:100D600081E0B82EEDB6DEB60E94A80B68E070E018
:100D70000E943F0AF82EF3948DB79EB78F19910900
:100D80000FB6F8949EBF0FBE8DBF0DB71EB70F5F95
:100D90001F4F80E005C0F801E80FF11D80838F5FD1
:100DA0008F15C8F38EE594E00E94D708C8016F2D17
:100DB0000E949600872D982DB8014F2D2FEF0E948D
:100DC0000405892D9C2D0E94E80780E29EE4F50130
:100DD0003197F1F70197D9F78E2D9D2D9C010FB614
:100DE000F8943EBF0FBE2DBFBDCF20E08091E2043E
:100DF0009091E304892B09F021E0822F08950F934D
:100E00001F93CF93DF938C01EB01FC0180819181D3
:100E1000009781F00E94FF0A28818091E20490915E
:100E2000E304821B91099093E3048093E204F801A8
:100E3000118210821882DF91CF911F910F91089536
:100E4000DF92EF92FF920F931F93CF93DF938C016A
:100E50007B01D42EC42FD0E0CE010E94520AF801AB
:100E600091838083009761F08091E2049091E30484
:100E70008C0F9D1F9093E3048093E204F701D082CE
:100E8000DF91CF911F910F91FF90EF90DF90089528
:100E90007F928F929F92AF92BF92CF92DF92EF920A
:100EA000FF920F931F93DF93CF93CDB7DEB77C01F3
:100EB0005B01D42E8DB69EB67EB68DB79EB7841BD1
:100EC00091090FB6F8949EBF0FBE8DBF0DB71EB728
:100ED0000F5F1F4FF70160817181C80150E00E94D0
:100EE000B80B8D2D90E00E94520AF7018083918308
:100EF000B8014D2D50E00E94B80BF701808191811F
:100F0000892BD9F0F50180812D2D281B332727FD52
:100F100030958091E2049091E304820F931F9093A7
:100F2000E3048093E204D082282D372DC9010FB647
:100F3000F8949EBF0FBE8DBF08C0882D972D9C01D1
:100F40000FB6F8943EBF0FBE2DBF0FB6F8949EBEED
:100F50000FBE8DBECF91DF911F910F91FF90EF904B
:100F6000DF90CF90BF90AF909F908F907F9008952B
:100F70008091E2049091E30424E08030920748F0ED
:100F8000892F8695869590E00E945E0981E794E01E
:100F900004C00E945E098FE794E00E94D70808957C
:100FA0000E94A40888EE93E02CE231E0F901319729
:100FB000F1F70197D9F708950E94A40888EE93E00D
:100FC0002CE231E0F9013197F1F70197D9F7089553
:100FD000AF92BF92CF92DF92EF92FF920F931F9347
:100FE000DF93CF9300D00F92CDB7DEB75C018BE8D3
:100FF00094E00E94D7081B821A821982CE010296C1
:10100000BE016F5F7F4F41E00E9420070A811B8174
:101010000E94B908F8018083EA81FB8180818D37C5
:10102000A9F70E94E40880E20E94CF0882E0E82E3F
:10103000F12CEC0EFD1E6E010894C11CD11C4981DF
:101040004F5FC701B6010E944807898190E0019770
:101050000A811B81080F191F0E94B908F8018083BB
:101060008981EA81FB81E80FF11D319780810E941F
:10107000E40880E20E94CF088981EA81FB81E80FC1
:10108000F11D319780818D37D1F68FE994E00E9470
:10109000D70882EA94E00E94D7086A817B81F50133
:1010A0008081918149810E942A04C701B6010E9472
:1010B000FF060F900F900F90CF91DF911F910F912E
:1010C000FF90EF90DF90CF90BF90AF900895FF9288
:1010D0000F931F93CF93DF93162F072FF42E89EBD7
:1010E00094E00E94D708212F302FC901EC0110E0B5
:1010F0000AC088810E94E40880E20E94CF0889919A
:101100000E94C0081F5F1F15A0F38FE994E00E94A2
:10111000D708DF91CF911F910F91FF900895109202
:10112000C5008DE48093C40088E18093C10086E00F
:101130008093C20088EE93E02CE231E0F901319710
:10114000F1F70197D9F708951092CD008DE48093BF
:10115000CC0088E18093C90086E08093CA0088EEC5
:1011600093E02CE231E0F9013197F1F70197D9F7DB
:1011700008958091C80087FFFCCF8091CE0008952C
:10118000982F8091C80085FFFCCF9093CE000895E2
:101190008091C00087FFFCCF8091C6000895982FF2
:1011A0008091C00085FFFCCF9093C6000895FC019C
:1011B00007C08091C00085FFFCCF9093C600319698
:1011C00090819923B1F708951F93182F8D3719F443
:1011D0008BEC94E004C08E3729F480ED94E00E94FB
:1011E000D70827C085ED94E00E94D708912F9295EB
:1011F0009F70212F2F709A3030F48091C00085FFAE
:10120000FCCF905D05C08091C00085FFFCCF995C4C
:101210009093C6002A3030F48091C00085FFFCCF47
:10122000205D05C08091C00085FFFCCF295C209324
:10123000C6001F910895282F8A3040F48091C00085
:1012400085FFFCCF205D2093C6000895843680F48E
:101250008091C00085FFFCCF822F6AE00E941F0AA8
:10126000805D8093C6008091C00085FFFCCF1EC0CA
:101270008091C00085FFFCCF822F64E60E941F0A88
:10128000805D8093C6008091C00085FFFCCF822FD7
:1012900064E60E941F0A892F6AE00E941F0A805D8F
:1012A0008093C6008091C00085FFFCCF822F6AE04A
:1012B0000E941F0A905D9093C60008959C018A3099
:1012C000910530F48091C00085FFFCCF822FB3C020
:1012D0008436910588F48091C00085FFFCCFC90158
:1012E0006AE070E00E942B0A605D6093C600809106
:1012F000C00085FFFCCF9AC083E0283E380708F580
:101300008091C00085FFFCCFC90164E670E00E94B7
:101310002B0A605D6093C6008091C00085FFFCCF02
:10132000C90164E670E00E942B0A6AE070E00E9446
:101330002B0A605D6093C6008091C00085FFFCCFE2
:1013400075C087E22031380788F58091C00085FF9D
:10135000FCCFC90168EE73E00E942B0A605D6093C8
:10136000C6008091C00085FFFCCFC90168EE73E024
:101370000E942B0A64E670E00E942B0A605D609375
:10138000C6008091C00085FFFCCFC90164E670E013
:101390000E942B0A6AE070E00E942B0A605D609355
:1013A000C6008091C00085FFFCCF40C08091C00086
:1013B00085FFFCCFC90160E177E20E942B0A605DE6
:1013C0006093C6008091C00085FFFCCFC90160E139
:1013D00077E20E942B0A68EE73E00E942B0A605DA0
:1013E0006093C6008091C00085FFFCCFC90168EE04
:1013F00073E00E942B0A64E670E00E942B0A605D95
:101400006093C6008091C00085FFFCCFC90164E6EF
:1014100070E00E942B0A6AE070E00E942B0A605D77
:101420006093C6008091C00085FFFCCFC9016AE0CF
:1014300070E00E942B0A805D8093C6000895991B7E
:1014400079E004C0991F961708F0961B881F7A95BB
:10145000C9F780950895AA1BBB1B51E107C0AA1FBD
:10146000BB1FA617B70710F0A61BB70B881F991F45
:101470005A95A9F780959095BC01CD01089597FBE9
:10148000092E07260AD077FD04D0E5DF06D000201C
:101490001AF4709561957F4F0895F6F790958195B0
:1014A0009F4F0895CF93DF93BC018230910510F4D4
:1014B00062E070E0A091E604B091E704ED01E0E0A5
:1014C000F0E040E050E021C08881998186179707BD
:1014D00069F48A819B81309719F09383828304C0D9
:1014E0009093E7048093E604FE0134C068177907FF
:1014F00038F44115510519F08417950708F4AC012B
:10150000FE018A819B819C01E9012097E9F6411542
:101510005105A9F1CA01861B970B049708F4BA017B
:10152000E0E0F0E02AC08D919C9111978417950717
:10153000F9F46417750781F412968D919C911397B5
:10154000309719F09383828304C09093E7048093CB
:10155000E604FD0132964FC0CA01861B970BFD01C0
:10156000E80FF91F6193719302978D939C9343C089
:10157000FD01828193819C01D9011097A1F6809190
:10158000E4049091E504892B41F48091DA04909170
:10159000DB049093E5048093E4044091DC045091D3
:1015A000DD044115510541F44DB75EB78091D80473
:1015B0009091D904481B590B2091E4043091E50423
:1015C00024173507B0F4CA01821B930B86179707BF
:1015D00080F0AB014E5F5F4F8417950750F0420FCC
:1015E000531F5093E5044093E404F9016193719310
:1015F00002C0E0E0F0E0CF01DF91CF910895CF93FA
:10160000DF93009709F450C0EC0122971B821A82E5
:10161000A091E604B091E704109709F140E050E092
:10162000AC17BD0708F1BB83AA83FE01219131915C
:10163000E20FF31FAE17BF0779F48D919C911197BC
:10164000280F391F2E5F3F4F3983288312968D91C3
:101650009C9113979B838A834115510571F4D09314
:10166000E704C093E60420C012968D919C911397D5
:10167000AD01009711F0DC01D3CFFA01D383C2830F
:1016800021913191E20FF31FCE17DF0769F48881B2
:101690009981280F391F2E5F3F4FFA013183208334
:1016A0008A819B8193838283DF91CF910895A0E00B
:1016B000B0E0EDE5FBE00C94030CEC01A880B980F0
:1016C000CA80DB80A114B104C104D10441F484E2D6
:1016D000A82E89EDB82E8BE5C82E87E0D82EC6013E
:1016E000B5012DE133EF41E050E00E94E00B27EA25
:1016F00031E440E050E00E94C10B7B018C01C60147
:10170000B5012DE133EF41E050E00E94E00BCA014A
:10171000B9012CEE34EF4FEF5FEF0E94C10B6E0D5D
:101720007F1D801F911F97FF04C061507040804053
:101730009048688379838A839B839B013F77C901A3
:10174000CDB7DEB7EAE00C941F0C0E94570B08954A
:101750008EED94E00E94570B0895A0E0B0E08093D6
:10176000DE049093DF04A093E004B093E1040895B5
:10177000FB01DC0102C001900D9241505040D8F7AE
:101780000895629FD001739FF001829FE00DF11DCB
:10179000649FE00DF11D929FF00D839FF00D749FEB
:1017A000F00D659FF00D9927729FB00DE11DF91F97
:1017B000639FB00DE11DF91FBD01CF0111240895F4
:1017C00097FB092E05260ED057FD04D04BD00AD02A
:1017D000001C38F450954095309521953F4F4F4F60
:1017E0005F4F0895F6F790958095709561957F4FBE
:1017F0008F4F9F4F08952F923F924F925F926F921B
:101800007F928F929F92AF92BF92CF92DF92EF9290
:10181000FF920F931F93CF93DF93CDB7DEB7CA1B11
:10182000DB0B0FB6F894DEBF0FBECDBF09942A883C
:10183000398848885F846E847D848C849B84AA84E4
:10184000B984C884DF80EE80FD800C811B81AA8171
:10185000B981CE0FD11D0FB6F894DEBF0FBECDBF3C
:10186000ED010895A1E21A2EAA1BBB1BFD010DC0BC
:10187000AA1FBB1FEE1FFF1FA217B307E407F50740
:1018800020F0A21BB30BE40BF50B661F771F881F1C
:10189000991F1A9469F760957095809590959B01B2
:0C18A000AC01BD01CF010895F894FFCF0A
:1018AC000D0A002B2D2D2D2D2D2D2D2D2B2D2D2DD0
:1018BC002D2D2D2D2D2D2D2D2B2D2D2D2D2D2D2D4E
:1018CC002D2D2D2D2D2B2D2D2D2D2D2D2D2D2B006D
:1018DC002D2D2D2D2D2D2D2D2D2D2D2D2B2D2D2D2E
:1018EC002D2D2D2D2D2B0D0A007C20486561646556
:1018FC0072207C2020436F6E74726F6C20207C20D1
:10190C0041646472657373696E67207C204C656EEC
:10191C00677468207C004E4554205061636B65747D
:10192C00002020436865636B73756D20207C204616
:10193C006F6F746572207C0D0A007C2020002020C3
:10194C007C2000207C2000202000207C2020007C9B
:10195C00200020202000202020207C200020207C23
:10196C000D0A000D0A524543454956494E4720463B
:10197C0052414D450D0A0044726F7070696E6720BC
:10198C006672616D653A2044657374696E61746941
:10199C006F6E206164647265737320646F6573206D
:1019AC006E6F74206D61746368206465766963651D
:1019BC00730D0A0044726F7070696E6720667261F5
:1019CC006D653A204572726F72206465746563743C
:1019DC00656420696E2070726576696F757320730B
:1019EC00706C6974207061636B6574206672616DD4
:1019FC00650D0A0044726F7070696E6720667261C3
:101A0C006D653A204572726F7220646574656374FB
:101A1C00656420696E2073706C6974207061636BEF
:101A2C006574206672616D650D0A0044726F70708A
:101A3C00696E67206672616D653A204572726F72CD
:101A4C0020646574656374656420696E20667261D8
:101A5C006D650D0A00526563656976656420706179
:101A6C00636B65743A20005061727469616C6C79B7
:101A7C00207265636F6E7374727563746564207025
:101A8C0061636B65743A20005061727469616C6CAF
:101A9C00790046756C6C7900207265636F6E737497
:101AAC00727563746564207061636B65743A2000B1
:101ABC000D0A53454E44494E47204652414D450D63
:101ACC000A0050617373696E67206672616D6520E0
:101ADC00746F207669727475616C20444C4C0D0ADD
:101AEC00004572726F723A205061636B6574206CA2
:101AFC00656E6774687320646F206E6F74206D61FF
:101B0C007463680D0A0053656E74202020202070C9
:101B1C0061636B6574206C656E677468203D200092
:101B2C000D0A005265636569766564207061636BAC
:101B3C006574206C656E677468203D200045727278
:101B4C006F723A205061636B657420636F6E7465BD
:101B5C006E747320646F206E6F74206D6174636893
:101B6C000D0A0053656E7420616E642072656365A6
:101B7C0069766564207061636B657473206D617444
:101B8C0063680D0A0D0A004572726F723A204D653A
:101B9C006D6F7279206C65616B0D0A0054657374FE
:101BAC002000206661696C65640D0A00416C6C2034
:101BBC0000207465737473207061737365640D0A0F
:101BCC00000D0A2D2D2D2D2D2D2D2D2D2D2D2D2DA9
:101BDC002D2D2D2D2D2D2D2D2D2D2D2D2D2D2D2D29
:101BEC002D2D2D2D2D2D2D2D2D2D2D2D2D2D2D2D19
:101BFC002D2D2D2D2D2D2D2D2D2D2D0D0A000D0ABC
:101C0C0053454E44494E47205041434B45540D0AD1
:101C1C0000204B694220696E207573650D0A002007
:101C2C004220696E207573650D0A000D0A524543FA
:101C3C00454956494E472042595445530D0A000D0B
:101C4C000A0050617373696E67206672616D65205E
:101C5C00746F20444C4C0D0A000D0A53454E4449F8
:101C6C004E472042595445530D0A00464C414700FB
:101C7C0020455343003078002000E80400000100A8
:021C8C00000056
:00000001FF
