:100000000C943E000C945B000C945B000C945B0021
:100010000C945B000C945B000C945B000C945B00F4
:100020000C945B000C945B000C945B000C945B00E4
:100030000C945B000C945B000C945B000C945B00D4
:100040000C945B000C945B000C945B000C945B00C4
:100050000C945B000C945B000C945B000C945B00B4
:100060000C945B000C945B000C945B000C945B00A4
:100070000C945B000C945B000C945B0011241FBE7D
:10008000CFEFD0E1DEBFCDBF13E0A0E0B1E0EAEDFD
:10009000FBE102C005900D92AE3BB107D9F713E02A
:1000A000AEEBB3E001C01D92A43CB107E1F70E94A2
:1000B00036020C94EB0D0C940000AF92BF92CF92DD
:1000C000DF92EF92FF920F931F93DF93CF93CDB701
:1000D000DEB7C854D0400FB6F894DEBF0FBECDBF18
:1000E000FE017996DE011196CF01C0961192119210
:1000F0001D92E817F907D1F700E010E079E1C72E6B
:10010000D12CCC0EDD1E7E010894E11CF11CC8012F
:10011000880F991FB701600F711F8C0D9D1D40E85E
:100120000E94760A0F5F1F4F0831110581F780E0AA
:1001300091E00E94B908FF2459E1A52EB12CAC0E24
:10014000BD1E6E010894C11CD11C20C00E94710C00
:100150009801220F331FF601E00FF11F60E870E0F5
:100160000E94080B482FC501820F931FBF010E94F8
:100170004B0A0F5F1F4F0831110541F780E091E0F6
:100180000E94B908F39483E0F81619F000E010E03B
:10019000DDCF00E010E039E1C32ED12CCC0EDD1E06
:1001A0007E010894E11CF11CC801880F991FB7015A
:1001B000600F711F8C0D9D1D0E94FE090F5F1F4F68
:1001C0000831110589F70E94F409882339F083E08A
:1001D00091E00E94B9080E94D00A81E0C85BDF4F1D
:1001E0000FB6F894DEBF0FBECDBFCF91DF911F9148
:1001F0000F91FF90EF90DF90CF90BF90AF90089558
:10020000BF92CF92DF92EF92FF920F931F93DF93F3
:10021000CF93CDB7DEB76E970FB6F894DEBF0FBEA3
:10022000CDBF8E010B5F1F4FC8010E9491028DE769
:1002300089838A838B838C8389E191E00E94B9084A
:100240007E010894E11CF11CC70164E00E94AD022C
:10025000C801B70144E02FEF0E949307DD24B02EC0
:10026000C12E1FC00D2D10E07801EE0CFF1CEF8990
:10027000F88DEE0DFF1D60817181E98DFA8DE00F23
:10028000F11F8B2D9C2D40810E94C5068F89988D72
:10029000698D7A8D600F711F8E0D9F1D0E94FE0962
:1002A000D3948B8DD816F0F2CE014796BE01675ECF
:1002B0007F4FAE01455E5F4F0E941F0A85E291E0CD
:1002C0000E94B9088C8D9D8D6E8D0E94AD028E8D21
:1002D0008430B9F081E391E00E94B9088FE491E0A5
:1002E0000E94B90884E00E94F00882E691E00E9432
:1002F000B9088E8D0E94F00880E091E00E94B90854
:10030000A4C0EC8DFD8D90818981981731F0BB24BC
:10031000CC24DD24EE24FF2427C091818A81981704
:1003200049F0BB24B39491E0C92ED12C81E0E82E92
:10033000F12C1AC092818B81981749F002E0B02EFF
:1003400012E0C12ED12CB2E0EB2EF12C0DC0938126
:100350008C81981709F468C0A3E0BA2EF3E0CF2E81
:10036000D12CE3E0EE2EF12C8BE791E00E94B9084E
:1003700089E991E00E94B9088B2D0E94F00886EA75
:1003800091E00E94B9088E010F5F1F4FE00EF11E31
:10039000F70180810E94C6088BEA91E00E94B908AB
:1003A0008B2D0E94F00886EA91E00E94B908EC8D3E
:1003B000FD8DEC0DFD1D2CC0EB2CFF24EC8DFD8D77
:1003C000EE0DFF1D6801CE0CDF1C9081F6018081CF
:1003D000981729F189E991E00E94B9088B2D0E94B4
:1003E000F00886EA91E00E94B908F60180810E9437
:1003F000C6088BEA91E00E94B9088B2D0E94F00894
:1004000086EA91E00E94B908EC8DFD8DEE0DFF1D8E
:1004100080810E94C60880E091E00E94B908B394F0
:10042000F4E0BF1649F611C0CE014C96BE01625EE3
:100430007F4F0E94FE090E94F409882339F083E06F
:1004400091E00E94B9080E94D00A81E06E960FB632
:10045000F894DEBF0FBECDBFCF91DF911F910F91FA
:10046000FF90EF90DF90CF90BF9008950E949E087C
:1004700088EE93E02CE231E0F9013197F1F7019732
:10048000D9F78EEB91E00E94B9080E940001882301
:1004900079F089EF91E00E94B90881E090E00E9434
:1004A00033098FEF91E00E94B90821E030E00EC0DF
:1004B00089E092E00E94B90881E090E00E9433094F
:1004C0008EE092E00E94B90820E030E0C901089572
:1004D00080E00895FC018DE78083158217821682E3
:1004E00082870895FC018DE780831582178216822A
:1004F00082870895FC018DE780831582178216821A
:10050000828714861386158617861686108A138AA4
:10051000128A158A148A168A108E178A118E118AE9
:100520000895FC018DE780831582178216828287E9
:1005300014861386158617861686108A138A128AE1
:10054000158A148A168A108E178A118E118A0895B8
:10055000681708F4682F862F08950F931F93CF9381
:10056000DF93062FEC0110E007C089910E94C608B6
:1005700080E20E94B1081F5F1017B8F38EE192E08D
:100580000E94B908DF91CF911F910F9108952F928A
:100590003F924F925F926F927F928F929F92AF9213
:1005A000BF92CF92DF92EF92FF920F931F93DF9350
:1005B000CF93CDB7DEB72B970FB6F894DEBF0FBE43
:1005C000CDBFDE2CE982FA820B831C83E22F2D83C0
:1005D000932F3E834F83588769877A878B87E92ECD
:1005E0009D2C8F2C702E612E5E2ECF80D884462EAF
:1005F000372E282E85E0989FC0011124B82EB39481
:100600008BE08B1510F09CE0B92E86EFF82EFB0CDA
:100610000B2D017081E292E00E94B908EE2059F0A2
:1006200010E004C08DE20E94B1081F5F1B15D0F3DB
:100630008BE20E94B1088EE492E00E94B90887E63E
:1006400092E00E94B908EE20F9F0AF2CA69410E0D9
:100650000A0D111DFF2404C080E20E94B108F3942A
:100660008F2D90E080179107BCF384E992E00E94FF
:10067000B90810E004C080E20E94B1081F5F1A159B
:10068000D0F38CE70E94B1088FE992E00E94B9088C
:1006900081E292E00E94B908EE2059F010E004C017
:1006A0008DE20E94B1081F5F1B15D0F38BE20E9400
:1006B000B1088EE492E00E94B90888EB92E00E94B3
:1006C000B908892D0E94C6088CEB92E00E94B908F7
:1006D000882D0E94C60880E20E94B108872D0E94E2
:1006E000C60881EC92E00E94B908862D0E94C608D7
:1006F00085EC92E00E94B908852D0E94C60888EC1E
:1007000092E00E94B9088E2D0E94C6088CEB92E000
:100710000E94B908E2E0EE1590F4FC2CC6018C01B1
:10072000F80181918F010E94C60880E20E94B10801
:10073000802F8F198E15A0F38DEC92E01FC0F2E090
:10074000EF1679F4F60180810E94C60885EC92E0EC
:100750000E94B908F60181810E94C60881EC92E0EE
:100760000DC0F1E0EF1661F480ED92E00E94B9084F
:10077000F60180810E94C60884ED92E00E94B908CB
:10078000842D0E94C60885EC92E00E94B908832D52
:100790000E94C60888EC92E00E94B908822D0E944F
:1007A000C6088BED92E00E94B90881E292E00E94B7
:1007B000B908EE2059F010E004C08DE20E94B108A3
:1007C0001F5F1B15D0F38BE20E94B1088EE492E00C
:1007D0000E94B9082B960FB6F894DEBF0FBECDBFAE
:1007E000CF91DF911F910F91FF90EF90DF90CF900D
:1007F000BF90AF909F908F907F906F905F904F9041
:100800003F902F900895AF92BF92CF92DF92EF92D8
:10081000FF920F931F93DF93CF93CDB7DEB7AC0159
:10082000CDB6DEB6DC0115968C911597895F082F41
:1008300010E078010894E108F108EDB7FEB7E01B7D
:10084000F10B0FB6F894FEBF0FBEEDBF2DB73EB74C
:100850002F5F3F4F11968C911197818312968C9147
:10086000D90111968C931197FA01838112968C937A
:100870001297848113968C931397858114968C9389
:1008800060E010C0862F90E05901A80EB91EDA0171
:100890001696ED91FC911797E80FF91F8081F501ED
:1008A00085836F5FDA0115968C91681758F3D8012C
:1008B0001297F901EA0FFB1F1082F901EE0DFF1DDF
:1008C0001082F80163E0EE0FFF1F6A95E1F760E028
:1008D00001C06F5F862F90E08E179F07D4F3A20FA1
:1008E000B31F8C91FA0180872E0D3F1DD9018C9189
:1008F00081870FB6F894DEBE0FBECDBECF91DF91DB
:100900001F910F91FF90EF90DF90CF90BF90AF902D
:1009100008954F925F926F927F928F929F92AF92C3
:10092000BF92CF92DF92EF92FF920F931F93DF93CC
:10093000CF9300D00F92CDB7DEB76C018DB69EB6C7
:100940001B821A82E2E0EE2EF12CEC0EFD1EDC0181
:100950001D964C914250C7018E010F5F1F4FB80189
:100960000E94760A4981F601238534852F5F3F4F27
:100970008A819B81B90150E00E944F0D81EE92E087
:100980000E94B9088A819B8169810E94AD028EE133
:1009900092E00E94B908BB2470E2472E5E2C6F2CB7
:1009A000702EA12E70C00B2D10E04A815B81FA01E0
:1009B000E00FF11F80818E3709F064C0FDB6EEB6FE
:1009C00030E0201B310B0F5F1F4F400F511F0150B4
:1009D0001040CF01BA01A9010E944F0D84EF92E0AF
:1009E0000E94B9088A819B8169810E94AD02EA81D7
:1009F000FB81E00FF11F80818425808387E093E0F5
:100A00000E94B9088A819B8169810E94AD02298177
:100A100030E0215030408DB79EB7821B930B0FB64C
:100A2000F8949EBF0FBE8DBF0DB71EB70F5F1F4F4F
:100A30006A817B81C801A9010E944F0D4981415003
:100A4000852D962D672D7A2D0E944B0A49818A812A
:100A50009B81B80150E00E944F0D8AE193E00E9413
:100A6000B9088A819B8169810E94AD028EE192E082
:100A70000E94B9082F2D3E2DC9010FB6F8949EBFD4
:100A80000FBE8DBFB3942981B21608F48CCF8DE2CE
:100A900093E00E94B9088A819B8169810E94AD021E
:100AA000EA81FB818081D60111968C931197818117
:100AB00012968C931297828113968C93139783814D
:100AC00014968C93B6016B5F7F4FC60106964481E6
:100AD0000E94760AF60145812A813B812B5F3F4FB8
:100AE00086819781B90150E00E944F0DEA81FB8118
:100AF0008981E80FF11D32978191D60118968C9368
:100B00001897808119968C93CE010296BE016F5F73
:100B10007F4F0E94FE090FB6F8949EBE0FBE8DBE99
:100B20000F900F900F90CF91DF911F910F91FF9039
:100B3000EF90DF90CF90BF90AF909F908F907F907D
:100B40006F905F904F9008952F923F924F925F92D7
:100B50006F927F928F929F92AF92BF92CF92DF92CD
:100B6000EF92FF920F931F93DF93CF9300D000D0AB
:100B70000F92CDB7DEB74C012DB73EB73D832C8326
:100B80001B821A82DC0115964C91495FCE010296B8
:100B9000BE016F5F7F4F0E94760AEA81FB81D4011C
:100BA00011968C9111978083EA81FB8112968C912A
:100BB00012978183EA81FB8113968C91139782832C
:100BC000EA81FB8114968C9114978383EA81FB81DF
:100BD00015968C91848320E00EC0822F90E0A80FA0
:100BE000B91FF40146815781480F591FFA018081CE
:100BF00015968C932F5FD40115968C91AA81BB8199
:100C0000281758F38981A80FB11D1297F401808528
:100C10008C938981EA81FB81E80FF11D3197D40122
:100C200019968C9180837724A2E02A2E312C2C0EE9
:100C30003D1E2E010894411C511CF0E26F2E56C03F
:100C4000A72CBB24EA81FB81EA0DFB1D80818D5717
:100C5000823008F04AC0DDB6CEB64F5FC101B201A6
:100C60000E944B0AE981F0E0CF018A199B092DB758
:100C70003EB7281B390B0FB6F8943EBF0FBE2DBFF1
:100C80000DB71EB70F5F1F4FFC012A813B812A0D54
:100C90003B1DC801B901AF010E944F0D75010894B9
:100CA000E11CF11C4A815B814E0D5F1D298130E002
:100CB0002A193B09CA01B801A9010E944F0DEA8116
:100CC000FB81EA0DFB1D3EE73083EA81FB81EE0DDF
:100CD000FF1D80818625808373942D2D3C2DC901B5
:100CE0000FB6F8949EBF0FBE8DBF739449817416E2
:100CF00008F4A6CFB401635F7F4F4E5FC4010B962B
:100D00000E94760AD4011B96ED91FC911C971DE779
:100D100010831B962D913C911C972F5F3F4F49816B
:100D20006A817B81C90150E00E944F0DF4018585E5
:100D30000384F485E02DE80FF11D31971083CE0177
:100D40000296BE016F5F7F4F0E94FE092C813D819C
:100D50000FB6F8943EBF0FBE2DBF0F900F900F90AF
:100D60000F900F90CF91DF911F910F91FF90EF9017
:100D7000DF90CF90BF90AF909F908F907F906F90BB
:100D80005F904F903F902F900895AF92BF92CF9277
:100D9000DF92EF92FF920F931F93CF93DF93EC01BB
:100DA000162F072F9BE0C92ED12CCC0EDD1E8DE017
:100DB000A82EB12CAC0EBD1EC601B5010E94760A4C
:100DC0004D858B859C85612F702F50E00E944F0DC3
:100DD000CE010E94890480E493E00E94B9088B85CB
:100DE0009C856D850E94AD02E880F9800A811B8197
:100DF0002C813D814E815F81688579858A850E943D
:100E0000C702C601B5010E94FE098C8181508E3F48
:100E100028F480E593E00E94B90806C08A818823FF
:100E200029F08989882311F081E072C0198A8A81AA
:100E30008823B9F48DE893E00E94B9088E819F81E0
:100E40006D810E94AD02BE01675E7F4FCE01479665
:100E50004D810E94760A498D6E817F818F89988DA0
:100E600015C089818E01025F1F4FB0E1EB2EF12C7E
:100E7000EC0EFD1E882371F4C801B7014D810E945C
:100E8000760A48896E817F818E859F8550E00E9419
:100E90004F0D37C04D818889480FC801B7010E94A6
:100EA0004B0A4D81888990E0841B91092E853F85EE
:100EB000280F391F6E817F81C90150E00E944F0DBC
:100EC00099818A819817E9F48DE893E00E94B90826
:100ED0008E859F8568890E94AD02BE01675E7F4F47
:100EE000CE01479648890E94760A48896E857F859B
:100EF0008F89988D50E00E944F0DC801B7010E9464
:100F0000FE09CE0106962596BE010E94FE0980E0EC
:100F1000DF91CF911F910F91FF90EF90DF90CF90D5
:100F2000BF90AF9008952F923F924F925F926F9231
:100F30007F928F929F92AF92BF92CF92DF92EF9269
:100F4000FF920F931F93DF93CF93CDB7DEB729970F
:100F50000FB6F894DEBF0FBECDBF99878887062FE6
:100F6000F72E142F2E83442309F4CFC020E0842FC2
:100F700090E087709070892B09F021E0812E869493
:100F800086948694820E688579856C5E7F4F48854D
:100F900059854A5E5F4F888599854296282D0E9423
:100FA0009E0A482D50E081E090E0841B950B63E0A1
:100FB000880F991F6A95E1F7180F198336E0432EC1
:100FC000512C88859985480E591E25E0622E712C7A
:100FD000680E791E0B969D838C83A885B9851D9616
:100FE000BB83AA83202F3F2DC9015C019924CC2407
:100FF000DD241A01089421083108B82DB150BF83AF
:1010000081C0892D90E08215930511F018E001C090
:101010001981E885F98591828F81828313829E816F
:101020009483C201B301412F0E94760A950190E09A
:101030000DC0A885B9851696ED91FC911797E90F1B
:10104000F11DD9018D919D0180839F5F911788F3D8
:10105000888599850E940304888599850E94A40546
:10106000E885F985E080F180028113812481358152
:10107000468157816085718582850E94C70280E420
:1010800093E00E94B908A885B9851B968D919C9123
:101090001C971D966C910E94AD02E885F9858289A6
:1010A000938964897589690D711D8C0D9D1D458518
:1010B0000E94760AA885B9855296ED91FC915397C6
:1010C000EC0DFD1D1D964C911D971B966C911B9769
:1010D0001C967C918081918150E00E944F0DC2014D
:1010E000B3010E94FE098C819D816A817B810E94EF
:1010F000FE099394E2E0F0E0CE0EDF1E88E090E07F
:10110000A80EB91E981408F47CCF29960FB6F8944F
:10111000DEBF0FBECDBFCF91DF911F910F91FF902A
:10112000EF90DF90CF90BF90AF909F908F907F9087
:101130006F905F904F903F902F9008951092C50050
:101140008DE48093C40088E18093C10086E08093A1
:10115000C20008958091C00087FFFCCF8091C60037
:101160000895982F8091C00085FFFCCF9093C60012
:101170000895FC0107C08091C00085FFFCCF9093CB
:10118000C600319690819923B1F708951F93182FC7
:1011900086E993E00E94B908912F92959F701F7085
:1011A0009A3030F48091C00085FFFCCF905D05C07F
:1011B0008091C00085FFFCCF995C9093C6001A30E7
:1011C00030F48091C00085FFFCCF105D05C0809198
:1011D000C00085FFFCCF195C1093C6001F910895D5
:1011E000282F8A3040F48091C00085FFFCCF205D1D
:1011F0002093C6000895843680F48091C00085FF56
:10120000FCCF822F6AE00E94E80A805D8093C600CE
:101210008091C00085FFFCCF1EC08091C00085FF7B
:10122000FCCF822F64E60E94E80A805D8093C600AE
:101230008091C00085FFFCCF822F64E60E94E80AFF
:10124000892F6AE00E94E80A805D8093C600809141
:10125000C00085FFFCCF822F6AE00E94E80A905D03
:101260009093C60008959C018A30910530F48091D6
:10127000C00085FFFCCF822FB3C08436910588F46F
:101280008091C00085FFFCCFC9016AE070E00E9438
:10129000F40A605D6093C6008091C00085FFFCCFBA
:1012A0009AC083E0283E380708F58091C00085FF8A
:1012B000FCCFC90164E670E00E94F40A605D6093AF
:1012C000C6008091C00085FFFCCFC90164E670E0D4
:1012D0000E94F40A6AE070E00E94F40A605D609384
:1012E000C6008091C00085FFFCCF75C087E2203129
:1012F000380788F58091C00085FFFCCFC90168EEF2
:1013000073E00E94F40A605D6093C6008091C000A3
:1013100085FFFCCFC90168EE73E00E94F40A64E621
:1013200070E00E94F40A605D6093C6008091C00086
:1013300085FFFCCFC90164E670E00E94F40A6AE010
:1013400070E00E94F40A605D6093C6008091C00066
:1013500085FFFCCF40C08091C00085FFFCCFC90154
:1013600060E177E20E94F40A605D6093C6008091BC
:10137000C00085FFFCCFC90160E177E20E94F40A5A
:1013800068EE73E00E94F40A605D6093C60080918D
:10139000C00085FFFCCFC90168EE73E00E94F40A2B
:1013A00064E670E00E94F40A605D6093C60080917C
:1013B000C00085FFFCCFC90164E670E00E94F40A1A
:1013C0006AE070E00E94F40A605D6093C60080915C
:1013D000C00085FFFCCFC9016AE070E00E94F40AFA
:1013E000805D8093C600089520E08091BE039091B7
:1013F000BF03892B09F021E0822F08950F931F93DB
:10140000CF93DF938C01EB01FC01808191810097E8
:1014100081F00E94C80B28818091BE039091BF0388
:10142000821B91099093BF038093BE03F801118240
:1014300010821882DF91CF911F910F910895EF9242
:10144000FF920F931F93CF93DF938C017B01EA01EF
:10145000FC0180819181009711F4188215C00E94CF
:10146000C80B2881220F8091BE039091BF03821B7D
:1014700091099093BF038093BE03F80111821082FB
:10148000C701BE010E94FE09DF91CF911F910F910C
:10149000FF90EF900895FF920F931F93CF93DF93E8
:1014A0008C01EB01F42EFC0180819181642F70E0AE
:1014B0000E94810CF80191838083009789F08881D4
:1014C0002F2D281B332727FD30958091BE03909147
:1014D000BF03820F931F9093BF038093BE03F882D4
:1014E000DF91CF911F910F91FF900895DF92EF92BE
:1014F000FF920F931F93CF93DF938C017B01D42E28
:10150000C42FD0E0CE010E941B0BF8019183808391
:10151000009761F08091BE039091BF038C0F9D1FD7
:101520009093BF038093BE03F701D082DF91CF91E8
:101530001F910F91FF90EF90DF900895BF92CF928F
:10154000DF92EF92FF920F931F93CF93DF938C0163
:101550007B016A01B22EC22FD0E0CC0FDD1FCE017D
:101560000E941B0BF80191838083009779F0809192
:10157000BE039091BF038C0F911D9093BF03809386
:10158000BE03C701B6014B2D0E94760ADF91CF91B1
:101590001F910F91FF90EF90DF90CF90BF90089533
:1015A0008091BE039091BF0324E08030920748F001
:1015B000892F8695869590E00E94330989E993E00A
:1015C00004C00E94330987EA93E00E94B908089595
:1015D000991B79E004C0991F961708F0961B881F85
:1015E0007A95C9F780950895AA1BBB1B51E107C0E6
:1015F000AA1FBB1FA617B70710F0A61BB70B881FA3
:10160000991F5A95A9F780959095BC01CD01089531
:1016100097FB092E07260AD077FD04D0E5DF06D018
:1016200000201AF4709561957F4F0895F6F7909514
:1016300081959F4F0895CF93DF93BC018230910530
:1016400010F462E070E0A091C203B091C303ED0119
:10165000E0E0F0E040E050E021C088819981861709
:10166000970769F48A819B81309719F0938382836D
:1016700004C09093C3038093C203FE0134C0681773
:10168000790738F44115510519F08417950708F4C6
:10169000AC01FE018A819B819C01E9012097E9F65A
:1016A00041155105A9F1CA01861B970B049708F44F
:1016B000BA01E0E0F0E02AC08D919C911197841767
:1016C0009507F9F46417750781F412968D919C9132
:1016D0001397309719F09383828304C09093C303C8
:1016E0008093C203FD0132964FC0CA01861B970B3F
:1016F000FD01E80FF91F6193719302978D939C93FD
:1017000043C0FD01828193819C01D9011097A1F60C
:101710008091C0039091C103892B41F48091B5035E
:101720009091B6039093C1038093C0034091B70397
:101730005091B8034115510541F44DB75EB7809102
:10174000B3039091B403481B590B2091C00330910F
:10175000C10324173507B0F4CA01821B930B861707
:10176000970780F0AB014E5F5F4F8417950750F0ED
:10177000420F531F5093C1034093C003F90161937B
:10178000719302C0E0E0F0E0CF01DF91CF910895C6
:10179000CF93DF93009709F450C0EC0122971B828E
:1017A0001A82A091C203B091C303109709F140E0DF
:1017B00050E0AC17BD0708F1BB83AA83FE0121915D
:1017C0003191E20FF31FAE17BF0779F48D919C9111
:1017D0001197280F391F2E5F3F4F398328831296A8
:1017E0008D919C9113979B838A834115510571F4C8
:1017F000D093C303C093C20320C012968D919C91D5
:101800001397AD01009711F0DC01D3CFFA01D38318
:10181000C28321913191E20FF31FCE17DF0769F4E4
:1018200088819981280F391F2E5F3F4FFA0131833C
:1018300020838A819B8193838283DF91CF91089556
:10184000A0E0B0E0E6E2FCE00C949A0DEC01A88088
:10185000B980CA80DB80A114B104C104D10441F471
:1018600084E2A82E89EDB82E8BE5C82E87E0D82E0D
:10187000C601B5012DE133EF41E050E00E94770D44
:1018800027EA31E440E050E00E94580D7B018C01D2
:10189000C601B5012DE133EF41E050E00E94770D24
:1018A000CA01B9012CEE34EF4FEF5FEF0E94580DE3
:1018B0006E0D7F1D801F911F97FF04C06150704007
:1018C00080409048688379838A839B839B013F771C
:1018D000C901CDB7DEB7EAE00C94B60D0E94200C2A
:1018E000089589EB93E00E94200C0895A0E0B0E0F9
:1018F0008093B9039093BA03A093BB03B093BC0346
:101900000895A0E0B0E0E7E8FCE00C94980D8C01AD
:10191000009729F4CB010E941B0B8C01BAC09EEFEB
:10192000E92E9FEFF92EE00EF11E5801A60EB71E0C
:10193000AE14BF0408F4ABC08EEF882E8FEF982E44
:101940008A0C9B1CE7014881598146175707B8F05C
:101950004530510508F49DC0CA01049786179707C2
:1019600008F497C042505040461B570BF401518376
:10197000408379836883C5010E94C80B8AC06B01CC
:10198000C41AD50AE091C203F091C303A0E0B0E00D
:10199000C0E0D0E042C0E815F905A1F52081318111
:1019A0002C153D0578F1C90102968C159D05A8F00E
:1019B0004E5F5F4F420F531FE701598348832281D7
:1019C0003381109729F013963C932E93129761C0A0
:1019D0003093C3032093C2035CC0225030402C19C3
:1019E0003D0931832083109729F01396FC93EE93E1
:1019F000129704C0F093C303E093C203F70171830D
:101A0000608347C080819181C817D90708F4EC0131
:101A1000DF01828193819C01F901309709F0BBCFEE
:101A2000400F511F8091C0039091C1038417950707
:101A3000E9F4C617D707D0F42091B7033091B80363
:101A40002115310541F42DB73EB78091B303909134
:101A5000B403281B390BA216B306C8F4B092C10315
:101A6000A092C003E7017983688313C0CB010E9471
:101A70001B0BEC01009759F0F70140815181B8012F
:101A80000E944F0DC8010E94C80B8E0102C000E0E9
:101A900010E0C801CDB7DEB7ECE00C94B40DFB014B
:101AA000DC0102C001900D9241505040D8F70895DA
:101AB000629FD001739FF001829FE00DF11D649F32
:101AC000E00DF11D929FF00D839FF00D749FF00DBE
:101AD000659FF00D9927729FB00DE11DF91F639F5F
:101AE000B00DE11DF91FBD01CF011124089597FB31
:101AF000092E05260ED057FD04D04BD00AD0001C6D
:101B000038F450954095309521953F4F4F4F5F4F9A
:101B10000895F6F790958095709561957F4F8F4F5A
:101B20009F4F08952F923F924F925F926F927F92B4
:101B30008F929F92AF92BF92CF92DF92EF92FF92DD
:101B40000F931F93CF93DF93CDB7DEB7CA1BDB0B89
:101B50000FB6F894DEBF0FBECDBF09942A8839882E
:101B600048885F846E847D848C849B84AA84B98435
:101B7000C884DF80EE80FD800C811B81AA81B98141
:101B8000CE0FD11D0FB6F894DEBF0FBECDBFED0155
:101B90000895A1E21A2EAA1BBB1BFD010DC0AA1FAE
:101BA000BB1FEE1FFF1FA217B307E407F50720F0C6
:101BB000A21BB30BE40BF50B661F771F881F991F41
:101BC0001A9469F760957095809590959B01AC018A
:0A1BD000BD01CF010895F894FFCF86
:101BDA000D0A004572726F723A204D656D6F727907
:101BEA00206C65616B210D0A005458207061636B8B
:101BFA0065743A20005258207061636B65743A200C
:101C0A00004572726F723A204C656E677468732071
:101C1A00646F206E6F74206D617463680D0A0073BF
:101C2A00656E745F7061636B65745F6C656E203D91
:101C3A0020002C2072656365697665645F70616354
:101C4A006B65745F6C656E203D20004572726F7221
:101C5A003A205061636B65747320646F206E6F74F1
:101C6A00206D617463680D0A0073656E745F70613C
:101C7A00636B65745B005D203D20002C20726563F8
:101C8A0065697665645F7061636B65745B002D2DB1
:101C9A002D2D2D2D2D2D2D2D2D2D2D2D2D2D2D2D6A
:101CAA002D2D2D2D2D2D2D2D2D2D2D2D2D2D2D2D5A
:101CBA002D2D2D2D2D2D2D2D2D2D2D2D2D2D2D2D4A
:101CCA002D2D2D2D2D2D0D0A005465737420002005
:101CDA006661696C65640D0A00416C6C20002074B1
:101CEA0065737473207061737365640D0A000D0A5D
:101CFA00002B2D2D2D2D2D2D2D2D2B2D2D2D2D2D3B
:101D0A002D2D2D2D2D2D2B2D2D2D2D2D2D2D2D2DFB
:101D1A002D2D2D2B2D2D2D2D2D2D2D2D2B002D2D1A
:101D2A002D2D2D2D2D2D2D2D2D2D2B2D2D2D2D2DDB
:101D3A002D2D2D2B0D0A007C2048656164657220CB
:101D4A007C2020436F6E74726F6C20207C2041646B
:101D5A006472657373696E67207C204C656E677464
:101D6A0068207C004E4554205061636B65740020E6
:101D7A0020436865636B73756D20207C20466F6F06
:101D8A00746572207C0D0A007C20200020207C20B3
:101D9A0000207C2000202000207C2020007C2000C5
:101DAA0020202000202020207C200020207C0D0ADA
:101DBA00004F726967696E616C206D657373616744
:101DCA00653A2000536869667420627974657320E5
:101DDA006C6566743A2000584F5220627974653AED
:101DEA002020202020202020200044656372656D79
:101DFA00656E74206C656E6774683A200046696E79
:101E0A00616C206D6573736167653A20202020003C
:101E1A0053747566666564206672616D653A200062
:101E2A0044726F7070696E67206672616D653A20E0
:101E3A0044657374696E6174696F6E20616464725B
:101E4A0065737320646F6573206E6F74206D61749F
:101E5A00636820646576696365730D0A005061637F
:101E6A006B65743A2000307800204B694220696E15
:101E7A00207573650D0A00204220696E207573650E
:0E1E8A000D0A002000C403000001000000004B
:00000001FF
